:020000041000EA
:1000000000B5324B212058609868022188439860DF
:10001000D860186158612E4B002199600221596106
:100020000121F02299502B49196001219960352056
:1000300000F044F80222904214D00621196600F024
:1000400034F8196E01211966002018661A6600F04E
:100050002CF8196E196E196E052000F02FF8012189
:100060000842F9D1002199601B49196000215960AB
:100070001A491B48016001219960EB211966A021F2
:10008000196600F012F800219960164914480160C1
:100090000121996001BC002800D000471248134993
:1000A000086003C880F30888084703B5996A0420EC
:1000B0000142FBD001200142F8D103BD02B5186610
:1000C0001866FFF7F2FF186E186E02BD00000240BE
:1000D000000000180000070000035F00212200005C
:1000E000F4000018222000A00001001008ED00E03C
:1000F00000000000000000000000000074B24E7A12
:1001000000200420F7010010CB010010CD010010E9
:10011000C9010010C9010010C9010010C901001077
:10012000C9010010C9010010C9010010CF01001061
:10013000C9010010C9010010D1010010D301001045
:10014000C1010010C1010010C1010010C101001067
:10015000C1010010C1010010C1010010C101001057
:10016000C1010010C1010010C1010010C101001047
:10017000C1010010C1010010C1010010C101001037
:10018000C1010010C1010010C1010010C101001027
:10019000C1010010C1010010C1010010C101001017
:1001A000C1010010C1010010C1010010C101001007
:1001B000C1010010C1010010C1010010C1010010F7
:1001C000EFF30580103800BE00BE00BE00BE00BECA
:1001D00000BE00BEF2EB8871B0030110D003011025
:1001E0003802001090A31AE71E481F49086006C88D
:1001F00081F3088810471D480068002801D019487D
:10020000F3E70DA40ECC002902D000F012F8F9E7B4
:100210001749184A002000E001C19142FCD116495B
:100220008847164988471649884700BEFDE701C937
:1002300001C29A42FBD37047D0030110C0000020D6
:100240003C0B00204C0E0110000004200000042094
:100250004C0E0110001004200010042000000000CB
:10026000704700000000000008ED00E0000000D032
:100270003C0B00203C320020A17800103503001018
:1002800061780010F8B5C04606480749091A8B1076
:10029000C90FC91810B5491003D0044B002B00D06A
:1002A000984710BD3C0B00203C0B002000000000D4
:1002B000054B10B5002B03D00449054800E000BFF2
:1002C000FFF7E2FF10BDC04600000000C82F00206D
:1002D000CCD7001010B504F053FE002905D0FA2247
:1002E0009200002305F09CFA10BDFA21890005F068
:1002F00059FAF9E77047704710B5FFF7EBFF0B4B62
:100300001B68C01AFA229200904200D210BD074A20
:10031000FA2189008C4663441360054C207804F070
:1003200055FE2378012253402370EFE72C32002042
:100330003832002000B583B007F0F4FB184B0022E0
:10034000DA6204F039FE07F06BFD07F04DFD07F0AF
:10035000E1FD144807F03EFD01A9134B1B880B80FB
:10036000002003F053FB114B002B01D000E000BF35
:100370000BF0E0FF01200021404201F025FD0BF0D1
:1003800043FEFFF7B9FF0A4B1B78002BF2D107F0B1
:10039000A1FD07F051FE0028ECD007F0E3FCE9E7EF
:1003A00000400540C02D0020D0D700100000000004
:1003B000E804002010B504F0EFFC10BD7047000009
:1003C00030B505004B0613D0012200E001320F2AA0
:1003D0000CD85301074C18191B5D002BF6D0437F36
:1003E000AB42F3D183788B42F0D100E0002030BDE6
:1003F0000048FCE7841F0020012200200F2A09D8B2
:100400005301054958185B5C002B01D00132F5E718
:10041000511E81777047C046841F0020F0B5C64644
:1004200000B584B00D00437F98468778C68A00F0F7
:100430007DFC01AC0C220021200006F0C3F8022351
:1004400063704346A37027716571039601212000F4
:100450000DF092F904B080BCB846F0BD10B50A4B5F
:10046000DB6C9B0709D5094B9B7E002B06D0074808
:100470000823C3820021FFF7D1FF10BD044B054ABA
:100480000548AD2107F0F0F900001150841F00204D
:10049000D4D7001020F50010E0D7001010B50C00E4
:1004A0000A4B98658B7E002B05D0080000F0C4FC39
:1004B000002806D110BD064B064A0748692107F0FF
:1004C000D3F900212000FFF7A9FFF3E70030115016
:1004D000D4D7001034F50010E0D7001070B5164BDB
:1004E0009E6DF30701D4012519E001239E431349B2
:1004F0004B681B680120FFF7D1FFF4E786436901D1
:100500000E4BC918FFF7CAFF0134012C06D86B0047
:100510001B19012098403042F6D0EFE701350F2D2E
:1005200003D8002E01D00024EFE7002E00D170BDCB
:100530000348310003F0EEFF00001150841F00203B
:100540003CD8001030B585B0324A9823D458973B38
:100550001D002540234211D0136D1B0A9B0721D09B
:1005600001A80023037043700371437101210DF052
:1005700003F9294BC02292001A65012563051CD49A
:10058000E30626D423072CD4630605D540231D4358
:10059000214B802212051A65A3062ED4A54233D121
:1005A00005B030BD01A80023037001224270037121
:1005B000437101210DF0E0F8DBE78023DB001D43F0
:1005C000154B802292051A6514480221FFF726FF79
:1005D000D6E710231D43124807F0DEFAFFF77EFF2F
:1005E000D0E708231D430C4B8022D2021A650D4828
:1005F00007F0D2FAFFF732FFC6E7074B8022120658
:100600001A65094803F086FF29006140074803F096
:1006100081FFC0460000115000301150841F00209F
:1006200054D8001068D800107CD8001090D8001062
:1006300070B5051E08D1164C164BA360164B6360AF
:10064000164BE360200070BDFFF7D6FE0400144B8C
:10065000AD00E958827F134807F0CEFA002C0FD086
:10066000A37FDA0010495118A16010498C466244FA
:10067000626002339B01094A94466344E360E1E708
:100680000B4B0C4A20210C48FF3107F0EDF8C04617
:10069000841F002080001050000110508001105075
:1006A00090F40010A4D800108800105008001050DA
:1006B000B8D80010A0F40010E0D7001070B50028E2
:1006C0001DD100F00BFB114C0C23A367104D29002A
:1006D000052003F0DFFDFF222900052003F0CEFCFA
:1006E0000C4880229200002105F06CFF0323236454
:1006F000094BE3649023094AE250012070BD084B86
:10070000084ABF210848490007F0AEF80000115020
:1007100045050010841F0020008600207B04000097
:10072000BCD8001014F50010E0D7001010B5002858
:1007300000D110BD034B044AD5210448490007F0FD
:1007400093F8C046BCD8001004F50010E0D70010A4
:100750007047000010B5002808D1084B186DC02361
:100760009B001840431E9841C0B210BD044B054A7F
:10077000B8210548FF3107F077F8C0460000115056
:10078000BCD80010ECF40010E0D7001010B5031E28
:100790000AD10A4A126D120A03201040012802D021
:1007A000022808D1180010BD054B064ADF21064873
:1007B000490007F059F8054803F0ACFE000011505D
:1007C000BCD80010D8F40010E0D70010C8D8001032
:1007D000F8B5CE46474680B504000E00994608A9F4
:1007E0000D7809A90B789C4643689846002B4DD09C
:1007F0008368002B51D0C168002955D07F23180091
:100800001040D709A27066776770134253D17E3BC0
:10081000E3704B462383E5762B4B4B4089064CD146
:10082000AD061D43A0231B062B436246002A02D0BF
:10083000013A120413434246136001232370234BF1
:100840009C421FD0030433431D00002F02D180259A
:10085000AD041D430020FFF799FF0700300000F0B2
:1008600015FD874202D08023DB041D43A37F9B003C
:10087000174A944663445D60A27F0132012393408E
:10088000144A5365C0BCB946B046F8BD124B134A72
:100890009B211348490006F0E7FF124B0F4A38210D
:1008A0000F48FF3106F0E0FF0F4B0C4A9C310C481B
:1008B000490006F0D9FF0023AAE70C4B074AA621FE
:1008C0000748490006F0D0FF00001050841F0020A8
:1008D0000000115000201150D8D800107CF40010F6
:1008E000E0D70010F0D8001004D9001014D900107F
:1008F000F8B50D1E26D0012400E001340F2C21D8BC
:100900006001114BC018437FAB42F6D10E4B620120
:10091000D35C002BF1D00C4E1700827F01320123F3
:1009200093400A4A5365837F9B00094A9446634477
:1009300000225A60BA5543681A6083681A6000F052
:10094000F5F9DAE7F8BDC046841F002000301150E9
:100950000000115010B5002804D10121052003F03A
:1009600041FB10BD034B044AF2210448FF3106F05D
:100970007BFFC046BCD80010C8F40010E0D70010C0
:1009800030B583B00D001400D0788007800FFFF7DA
:100990004FFE002812D0A278217963791B020B4305
:1009A0005B055B0DE1788907890FA47901940091BB
:1009B0002900FFF70DFF012003B030BD03490448B3
:1009C000044A07F019F90020F6E7C046B8F4001011
:1009D00030D9001009020000F0B5D6464F46464611
:1009E000C0B582B00E0015009A460AAB1B88994626
:1009F0007F271740D309984611003000FFF7E0FC2D
:100A0000041E1FD0837E002B23D18378AB420AD0F3
:100A1000002F25D1038B00220192C27E00922A0072
:100A20003100FFF7D5FE254B9C421FD04A46514668
:100A3000200000F0E5F9012002B0E0BCBA46B14662
:100A4000A846F0BD1E491F481F4A07F0D5F80020F0
:100A5000F2E71E4B1A4A89211D48890006F004FF5F
:100A60001C4B174A1A481C4906F0FEFE4A465146DE
:100A7000200000F0C5F93B043343184A1360434695
:100A8000002B16D0164C0020FFF780FE050030002A
:100A900000F0FCFB85420ED04023234301221900C5
:100AA00091430E4AD1640C210339FDD2D364012055
:100AB000C2E70C4CE7E70023EFE7C046841F0020A5
:100AC0006CF4001030D900102102000048D9001049
:100AD000E0D7001054D90010290200000000115086
:100AE00009860020058600200020704770B582B07E
:100AF0000D00002304E0D45C2448C4540133DBB26D
:100B0000072BF8D90020FFF793FD041E28D0837E21
:100B1000002B2CD1038B0022019200922900FFF7B9
:100B200057FE2678002E28D00823A382073BA37601
:100B3000174B1D600020FFF729FE0400280000F07D
:100B4000A5FB84421FD0134A012311009943104B87
:100B5000D9640C210339FDD2DA64300002B070BDD3
:100B60000D490E480E4A07F047F80026F5E70D4BF1
:100B7000094A0D480D4906F077FE0D4B064A0A4812
:100B80000C4906F071FE0C4ADEE7C046000010502A
:100B900000001150438600205CF4001030D9001092
:100BA0005F02000048D90010E0D700106202000088
:100BB00060D90010660200000386002004E00A7875
:100BC0000270013101301A00531E002AF7D170471C
:100BD000F8B504000F00838A028B1E1C934200D9D3
:100BE000161CB6B29B1BA3828022D2003243E3784C
:100BF000002B13D08025AD01154301225340E37033
:100C00006378002B0CD0A38A002B02D18023DB0158
:100C10001D43002F00D02D042800F8BD0025EBE770
:100C2000E068BB01C01821693200FFF7C7FF2369E4
:100C30009B19236180231B021D43E4E770B5040068
:100C400083681B68002900D01B0C9D05AD0D6278E0
:100C5000002A11D11B0409D4E38A5B19E382238B98
:100C6000AB4201D90023A382280070BD0D4B0E4A70
:100C70000E48E82106F0F8FD1B040DD52069E36855
:100C8000890159182A00FFF799FFE38A5B19E3826B
:100C900023695B192361E2E7054B034A0348EE2110
:100CA00006F0E2FD98D900104CF50010B8D90010FC
:100CB00014DA001010B5040083681B680021FFF7E8
:100CC000BDFF63681B685B0002D5238B834200D0A5
:100CD00010BD01212000FFF7B1FFF9E710B5802317
:100CE0005B040C4A13600C4A13600C4B1A68802397
:100CF0005B049343F9D1802252010021084805F09A
:100D000061FC084B09225A670748202106F074FF4E
:100D100010BDC04600E0004000F0004008C00040A8
:100D2000000010500000115034DA001000238376C8
:100D30008382C3820361704710B5002902D08368A3
:100D40001B681940002A10D0114352050DD5826846
:100D500013685B050CD4084B0B401360074B1B6CEE
:100D60009B0702D40C23033BFDD28368196010BD9E
:100D70008178034803F0CEFBFFFBFFFF000011501A
:100D800054DA001070B5040043681E680021FFF7B4
:100D90001FFF80256D010543164B1B6C9B0715D566
:100DA000A3785B0617D10023A28A002A01D0002B6A
:100DB00015D0114B1E4080239B053343626813609E
:100DC0002A0000212000FFF7B7FF70BDA378DB09E0
:100DD00003D10133E8E70123E6E70023E4E701213B
:100DE0002000FFF7F5FE0543044A3240A023DB054F
:100DF0001343E3E700001150FFFFFFAFFFFFFFDFEA
:100E000070B504000D001600837E002B09D1A68268
:100E10000023E3820133A37625612000FFF7B2FFB0
:100E200070BD8178034806F0E7FE2000FFF77EFFE3
:100E3000EDE7C04674DA001070B50400857E002D21
:100E400006D0FFF737FFA38A002B05D1280070BD1D
:100E50008178044803F05EFB2000FFF793FF002534
:100E6000F4E7C046ACDA00100B4B1B78834206D97E
:100E70000A4B1B68C200121A9200981870479A1CFD
:100E8000824206DBC01AC300181A8000044BC01847
:100E9000F4E70020F2E7C04633320020481000207B
:100EA00084F600104369C2781A707047002802D097
:100EB0000521042004E00421002001E00130C0B23B
:100EC000814209D9054B562242439B181B79DB0707
:100ED000F4D40130C0B200E000207047B018002008
:100EE00010B504005622002105F06CFB20000D30E7
:100EF0000822FF2105F066FB200015302022FF218B
:100F000005F060FB10BD0000F0B5D6464F464646E2
:100F1000C0B582B00700894692460023984638E063
:100F20004148210006F068FE043E0123B3404246DA
:100F30001A4390465EE00136F6B23C4B1B78023312
:100F4000B34208DB3000FFF78FFF0028F3D083693E
:100F500020009847EFE721003800FFF7C9FC280080
:100F6000FFF7BEFF324B1B7BA34213D1314D2868E4
:100F7000012149420CF0F0FB2D4B00225A732868E6
:100F80000CF0D2FB06E04346002B46D00023002B9A
:100F900032D00024042CF6D8260056231D006543C9
:100FA000254AAD180134E4B273439B5CBB42F1D1D6
:100FB0002B79DB07EED54B46002B02D06B784B45E7
:100FC000E8D15346002B06D01B4B562272439B1888
:100FD0009B785345DED11948009453464A46390060
:100FE00006F00AFE042C9BD8154B002B02D02000E3
:100FF000FFF781F90026A0E74246DA40D20702D483
:101000000133DBB2C3E701229A404146914388464F
:101010005A1DD2B291469A46BBE702B0E0BCBA462E
:10102000B146A846F0BDC046F8DA001033320020C1
:1010300050100020681B0020B0180020D4DA0010E7
:10104000F702001010B5064BDA7810218A43DA70E7
:101050005878002800D110BD01F06EFCFBE7C046B7
:101060006010002070B506000D00002404E0315D22
:10107000044806F0C1FD0134AC42F8D3024806F042
:101080008BFD70BD10DB001068E40010F0B589B076
:1010900007000D00154806F07FFD06AE144B320028
:1010A00003CB03C26C4618220021684605F08AFA79
:1010B0002770E5700F4DEB89019302962B6803931F
:1010C0006B680493AB6805930B4E3068012149426D
:1010D0000CF042FB00236B7330680CF025FB049B83
:1010E000002B01D06846984709B0F0BD68E40010B5
:1010F000601A002050100020681B0020F0B5DE466A
:1011000057464E464546E0B589B083460F0003007A
:10111000013BDBB2042B12D8421E56235343504AE4
:1011200098469044BB78F978090219437B180593D7
:101130003E78BE194B4806F05FFD079731E000236B
:101140009846EFE7079FF11B474806F055FD012041
:1011500018E0F2789146F6182EE044494448454A92
:1011600006F04AFD00200DE0D52240494048D2005B
:1011700006F042FD002005E03C493D483E4A06F0AD
:101180003BFD002009B0F0BCBB46B246A946A046D4
:10119000F0BD8046230052463100153002F014FDA8
:1011A0005644059B9E4259D23378002BCAD07278A0
:1011B0000B2ACED0012399467378042BCDD1059B01
:1011C0009A1B92B24946300002F020FD8246082860
:1011D000CAD900244B46069306E0284B1B780233FD
:1011E000BB422DD00134E4B22700244B1B780233DC
:1011F000A342D5DB2000FFF737FE051EEDD0C36804
:10120000994643461878534632005946C847002845
:10121000E3D0069B99462968194806F0EDFC0022A8
:101220004D4640469542B4D9B3789B18DBB2C118FD
:10123000497BFF29A0D1C3185C730132D2B2F1E718
:1012400043461978B3787279B579F7790D480297E2
:10125000019500925A4606F0CFFCC3E7012091E7C2
:10126000B018002018DB001050DB0010FCF5001057
:1012700030D900108F060000B6060000333200207F
:1012800088DB001098DB001070470000431EDBB2C3
:10129000042B06D8013856234343044A9B18D878B8
:1012A0007047034BD8780007000FF9E7B01800200B
:1012B00060100020034B1B78181A42425041C0B204
:1012C0007047C04608050020034B1878FF38431EBE
:1012D0009841C0B27047C04608050020F8B5060026
:1012E0000F00FFF7E7FF041E16D17B78022B15D005
:1012F0003E4A3F48310006F07FFCFFF7E5FF00283B
:101300000ED03C4B1E7039003000FFF7D7F9041E99
:1013100065D03000FFF71EFB2000F8BD364AE8E735
:101320003648562106F068FC35480C2106F064FC6E
:101330003448102106F060FC3348182106F05CFCAC
:101340003248142106F058FC3148242106F054FCA0
:10135000304C200003F0D2F9143C200002F087FD4D
:101360002D4B1C602D4C200003F07CF92C4B1C6095
:101370002C4B002B04D02C4800E000BF2B4B1860F6
:101380002B4B00221A602B48D7325200002105F067
:1013900019F929481022002105F014F9002407E06A
:1013A00056206043234BC018FFF79AFD0134E4B286
:1013B000042CF5D9002401E00134E4B21A4B1B7867
:1013C0000233A3429DDB2000FFF74EFD051EF3D044
:1013D00001681A4806F010FC6B689847ECE7D122C8
:1013E00017491848520006F007FC95E7F0DB00109B
:1013F000F8DB001008050020E8DB001024DC0010FA
:1014000044DC001060DC00107CDC001098DC001074
:10141000B4DC001000050020741B00206C1B0020B1
:10142000681B00200000000033320020481000201C
:1014300060100020B018002050100020D8DC0010F0
:1014400074F6001030D9001010B5FFF73DFF0028EA
:1014500000D110BD034B186802F09AFC01235840DC
:10146000C0B2F6E7741B0020431EDBB2042B05D884
:10147000013856234343034AD05C7047024B187827
:10148000FBE7C046B01800206010002070B582B0A5
:1014900004000E00FFF7E8FF01000D4D33002200AD
:1014A000280006F0A9FB6D4607220021684605F0DA
:1014B00089F807232B70023B6B70AE802000FFF78A
:1014C000D3FF6A462100FFF75BFA02B070BDC04649
:1014D000E4DC0010F8B5CE46474680B505000C00A8
:1014E0002F480A00290006F087FB7F231F002740B2
:1014F000E2099046234220D12800FFF7B5FF294B8F
:101500001B7BAB4242D1274B5B7B002B02D10023DC
:1015100099463DE022002900FFF7E6FA224C2068B8
:10152000012149420CF018F91E4B00225A73206821
:101530000CF0FAF8012399462AE06B1EDBB2042B6B
:101540002BD86B1E56265E43184BF6187B00F318FB
:10155000434430335B79DB07DA0F9146002B17D019
:10156000307822002900FFF7BFFA7F00F3194344C7
:1015700030335A7901218A435A710B4B1968474419
:101580003037F019053002F0A5FA01E00023994642
:101590004846C0BCB946B046F8BD00239946F7E7B7
:1015A00008DD001050100020681B0020B01800203B
:1015B000F0B5C64600B584B0040015001E00FFF764
:1015C00053FF8046002D19D0022D15D0544B554F96
:1015D000009622004146380006F00EFB52480821D2
:1015E000FFF740FD29002000FFF750FD01242000F7
:1015F00004B080BCB846F0BD4C4BE8E74C4B5B7B7D
:10160000DAB2022B08D0032A62D0012A00D085E08A
:10161000454BDB88002B26D1434BDB88002B49D17F
:10162000B6B2434FFE81434D2868012149420CF078
:1016300093F803237B7328680CF076F83A4B1B78F9
:10164000DB0943D180225242D2B200230093210011
:101650004046FFF7C1F9041EC9D137493748384A17
:1016600006F0CAFAC3E7334D2868012149420CF05D
:1016700073F82F4B02225A7328680CF055F82A4B46
:101680001B78DB0914D080225242274BD988284B83
:101690001B68D2B2009121004046FFF79DF9041E5D
:1016A000A5D1B92224492548920006F0A5FA9EE763
:1016B0000022EAE723482200414606F09DFA1C4B2F
:1016C00018680222310002F0C3FAA9E70022BBE742
:1016D000154B5B78092B05D029002000FFF7D6FCBD
:1016E000012484E7104B1B780393002BF4D10127CE
:1016F00010E000213943C9B22000FFF7EBFE0136AC
:10170000F6B2012E04D8002EF3D080214942F1E731
:101710000137FFB20F2FDFD8039EF2E7002466E700
:1017200034DD00103CDD0010601A00202CDD0010BC
:1017300050100020681B0020E4F5001030D9001084
:10174000F302000068DD001000487047681A0020AE
:1017500070B504000D00431EDBB2042B07D8421EF7
:1017600056235343104A9B181A79D20708D4D9221A
:101770000E490F48920006F03FFA0026300070BD77
:101780007F200840CA090B490968400080183030A2
:101790001818053002F076F9061EEFD006482A0028
:1017A000210006F029FAE9E7B0180020C0F5001082
:1017B00030D90010681B002080DD0010F8B504004F
:1017C0000E00431EDBB2042B1FD8421E5623534388
:1017D0000F4A9B181D79ED07EF0F002D01D138003E
:1017E000F8BD7F200840CA090A49096840008018EE
:1017F00030301818053002F06DF9071EEFD006489A
:101800003200210006F0F8F9E9E70027E7E7C046D3
:10181000B0180020681B00209CDD0010F0B5D646F3
:101820004F464646C0B584B080460E0003929A46A5
:101830000300013BDBB2042B4AD80300013B5624D2
:101840005C43244BE4187F230B409946CF09224880
:10185000524606F0D1F94B465D006519ED19303559
:101860006B79DB0716D44B465B00E318DB1930338A
:101870005A7901210A435A71207853460093039BF9
:1018800032004146FFF7A8F8051E10D0134806F0B5
:1018900083F905E012491348134A06F0ADF9002513
:1018A000280004B0E0BCBA46B146A846F0BD4B469D
:1018B0005B00E418E41930346379012293436371C7
:1018C0006379033293436371084806F065F9E7E7EB
:1018D0000025E5E7B0180020B8DD0010E0DD0010BD
:1018E000A0F5001030D900108F030000E4DD0010D7
:1018F00070B505000E00FFF7C9FC0100300002F0D2
:1019000005F9041E09D02800FFF7AEFD32002900BA
:10191000FFF736F80400200070BD03490348044A6D
:1019200006F06AF9F7E7C04690F5001030D90010CC
:10193000B6030000F8B507000C00431EDBB2042B11
:1019400007D8431E56265E43164BF6180134E4B200
:1019500003E00026FAE70134E4B2072C0ED833196D
:10196000587BFFF781FA051EF5D001680E4822006A
:1019700006F042F92B69210038009847082C00D066
:10198000F8BDFFF75FFB042F06D8084B002BF7D0FC
:101990003800FEF7AFFCF3E70548390006F02CF9F4
:1019A000EEE7C046B0180020ECDD0010F502001094
:1019B00008DE001030B585B00400C378002B0BD1D1
:1019C000B34B00221A70057843690C2B00D95CE1F7
:1019D0009B00B04AD3589F46AF4BDB78DB0603D55C
:1019E000AB4B1B78022B03D9FFF72CFB05B030BDA6
:1019F000A74D01332B706420FEF7DCFC2978A74843
:101A000006F0FAF8200000F007FB0028EED1EBE723
:101A1000A34B9B68039303AB1B78DB0719D503AB80
:101A20005B785A0718D45B08012119409A4AD37889
:101A30000F2083430B43D37003AB9B78DB06D5D5D4
:101A400050789178974B03220092113200F024FDD8
:101A5000CCE7FFF7F7FAC9E70221E7E73220FEF704
:101A6000A9FC904B904A8C488178407806240094D9
:101A700000F0B2FE0028B9D18C498D488D4A06F09D
:101A8000BBF8B3E7864B9B68039303AB9B78DB06FD
:101A9000ACD5814B58789978824B072200920D3251
:101AA00000F0FAFC0028A1D1AF2280498048D20082
:101AB00006F0A2F89AE708210020FFF7E7FC0028CB
:101AC00013D07D4806F068F8764B774907220092DC
:101AD0000132002000F024FC002800D086E7734982
:101AE0007348764A06F088F880E770497048744A6F
:101AF00006F082F87AE700F05FFB77E70220FEF756
:101B000059FCA3689D786B1EDBB2042B27D86B1E93
:101B100056245C436B4BE418237902221343237150
:101B20005D4B18780021FEF7E3FE61792800FFF78E
:101B3000ADFC002819D0644806F02EF8594B5A49DC
:101B4000092200920932280000F0EAFB002800D0A8
:101B50004CE7564956485D4A06F04EF846E7534969
:101B600053485B4A06F048F840E750495048594A04
:101B700006F042F83AE76B1EDBB2042B26D86A1E49
:101B8000562353434F4A9B18454C228ADA80628A77
:101B90001A81A27D9A72E27DDA72227E1A734E4811
:101BA00005F0FAFF220008320A2301933D4B00930F
:101BB00009230021280000F0C5FB002800D015E70C
:101BC0003A493B48454A06F017F80FE73749384885
:101BD000434A06F011F809E7314B5C8980235B002A
:101BE0009C4215D83F4805F0D7FF2F4A0B2301939D
:101BF0002C4B009323000021280000F0A3FB0028B9
:101C000000D0F3E629492A48374A05F0F5FFEDE60A
:101C100026492748354A05F0EFFFE7E6214A0C231D
:101C20000121280000F0E0FB002800D0DEE61F497B
:101C30001F482F4A05F0E0FFD8E62E4805F0ACFF1C
:101C40006B1EDBB2042B13D86A1E562353431D4A66
:101C50009B181A7904210A431A7113492800FFF7C7
:101C60004DFA00280AD0FF212800FFF763FEBDE6E9
:101C70000E490F48204A05F0BFFFB7E6BE220B49C8
:101C80000B48D20005F0B8FFB0E6FFF7DBF9ADE690
:101C9000363200205CF500106010002028DE0010B5
:101CA000601A0020B5190010681A002034F60010E0
:101CB00030D900106E05000044DE001086050000DB
:101CC00082050000B018002068DE0010B905000091
:101CD000AE050000B505000080DE0010CC05000058
:101CE000C1050000ACDE0010DE050000D9050000D3
:101CF000E4050000D0DE0010EA05000030B589B030
:101D000003000078284A1070197951705B7993703C
:101D1000002930D1FEF70AFD3220FEF74BFB224CA2
:101D20002078FEF715FDE1204000FEF743FB207808
:101D3000FEF710FD041E1AD01B4D2878FEF726FD75
:101D40000F231A000240E8780F2188431043E870FF
:101D5000164B9200D158164805F04EFF02A80023FA
:101D60000370C37003334361FFF724FE12E0FFF7F3
:101D700069F901340EE0E1204000FEF71BFB0D4B3A
:101D80000D4A0948817840780224009400F024FD2F
:101D9000041E02D0200009B030BD08490848094A95
:101DA00005F02AFFF6E7C0466010002080F9001019
:101DB000E4DE0010B5190010681A002048F6001083
:101DC00030D900102D060000F0B5C64600B584B02D
:101DD0008846FFF779FA00280AD104B080BCB846DB
:101DE000F0BD032B04D1029B002B01D00398984730
:101DF0007C4B1C686069EFF3108272B60368002B9D
:101E0000FCD0BFF35F8FA26101A9200001F0DCFFCD
:101E10006269A369BFF35F8F0021116083F31088AB
:101E20000028DAD001AB5B78022B00D17AE0D8D859
:101E3000002B16D0012BDBD101AC217822796379FC
:101E4000694805F0D9FE627921792078FFF75CF8BE
:101E500020790028CCD06379002BC9D000F06CFD2C
:101E6000C6E7624BDB78DB064ED501AB19785F4BDA
:101E70001B7899420BD101AB1A795C4B5B789A4283
:101E800005D101AB5A79594B9B789A422AD05848D0
:101E900005F0B2FE534C206801F07AFF060024687A
:101EA0006269EFF3108172B61368002BFCD0BFF3A8
:101EB0005F8FA16101A9200001F0A7FF6269A369FA
:101EC000BFF35F8F0021116083F31088002814D0C6
:101ED00001AB187859784246FFF7D6F9002E00D1A9
:101EE00086E77AE7434805F087FE00210020FFF7E8
:101EF000F1FA01A8FFF702FF7AE72E223E493F4898
:101F0000FF3205F079FEE9E701AC21783C4805F0A5
:101F100073FE364AD37810210B43D3702000FFF7AD
:101F2000EDFE65E701AE37797F243C40FD09039A59
:101F30007179344B8900CB583348390005F05CFE89
:101F4000B07800280FD1002C06D101AB5A79039B41
:101F50003900FFF72DFB4BE789222C4927489200D7
:101F600005F04AFE39E7431EDBB2042B00D934E703
:101F7000431E56225A43264BD2181379DB0700D44E
:101F80002BE76300D3185B19303359790126B1432D
:101F9000597159790336B1435971002C13D064003B
:101FA00012195219507DFEF75FFF041E12D001680E
:101FB000184805F021FE646901A94A79039B8878D5
:101FC0003900A04714E701AB5A79039B3900FFF7AA
:101FD000EFFA0DE793220D490848920005F00CFE38
:101FE000FBE6C046741B002074DF00106010002068
:101FF00018DF0010F0DE001058F6001030D9001085
:1020000058DF00103CF9001098DF001064F6001053
:10201000B0180020B8DF001070B582B0040043781B
:10202000002B00D0A4E08368002B00D1A4E0067848
:10203000002E0CD1534BDB78DB06DD0F002B00DBD1
:1020400097E0514B5B7B002B11D0002591E0731E74
:10205000DBB2042B00D991E0721E562353434B4A46
:102060009B181B79DB07DD0F002BEAD181E0484B81
:102070001868012149420BF06FFB434B5B7BDDB2DB
:10208000002B10D1404B01225A731E730022DA81BB
:10209000E2681A6022695A6062699A60A1683D48E4
:1020A000082204F095FA3A4B18680BF03DFB002D1E
:1020B00066D13000FFF7D8F90500A3681A786021CF
:1020C000114206D15B780C2B1DD8334A9B009B58DC
:1020D00000E0324B32483200290005F08DFDA06847
:1020E0000821FEF7BFFF2369002B0ED0294A3100DB
:1020F0002800FEF7FBFC051E3BD12A492A482B4A43
:1021000005F07AFD35E0254BE4E76B46DA1D042344
:1021100013701D4B9A60264A5A601E4A31002800EF
:10212000FEF7E4FC051E0ED06B4607331B78042B2C
:102130000FD1FFF789F90028F6D001200021404295
:10214000FFF742FEF0E7174917481A4A05F054FD19
:102150000FE06369002B03D06A46073212781A70C9
:102160006B4607331B78E370074BDB89636000E045
:102170000025280002B070BD0025FAE70025F8E729
:102180000025F6E76010002050100020B018002055
:10219000681B0020601A00204CF90010CCDF0010F2
:1021A000DCDF0010D0F5001030D9001095020000DF
:1021B000A50E00109F02000030B589B02E4B187B91
:1021C000093843425841C0B2FEF770FE051E43D0A5
:1021D0002A48290005F010FD6B1EDBB2042B42D803
:1021E0006A1E56235343264A9B18264A11781970B3
:1021F0005178597091789970D2781207120FDA706D
:102200001A7901210A431A711B4AD27B5A7106AC12
:1022100023781F2293432370DBB241329343237010
:10222000DAB27F2313402370052363706580002397
:10223000A380E38018220021684604F0C3F90294C9
:10224000114B0493082305936846FFF7E5FE041E2F
:102250000BD0200009B030BD0C490D480D4A05F0E7
:10226000CBFC0024F5E70023BFE7084908480A4AE9
:1022700005F0C2FCEDE7C046601A0020ECDF00105C
:10228000B018002060100020B51900101CF60010D6
:1022900030D900104D0600006C060000F0B5C646AF
:1022A00000B588B0060098460EA880C8058806AC20
:1022B00020781F2398432070C0B241339843207088
:1022C000C3B280204042184320700620607009028B
:1022D000114361804346A380E5806D4618220021AA
:1022E000684604F06FF92E7002940397109B0493D4
:1022F000119B05936846FFF78FFE08B080BCB84677
:10230000F0BD30B585B008AC24880A9D0395099DC1
:102310000295019400930023FFF7C0FF05B030BD84
:1023200010B584B0141C122A00D91224A4B2069A43
:102330000292019300940B0000220121FFF7E1FFBC
:1023400004B010BD10B584B0079C0294069C0194A3
:10235000009313000A000221FFF7D3FF04B010BD61
:10236000F0B5D6464F464646C0B588B006000F00C9
:1023700015009A4610AB04CB90461B889946194825
:1023800005F00AFC06AC23781F2293430122134375
:102390002370DBB2602293432370DAB280235B4266
:1023A00013432370062363702D0253461D4365803B
:1023B000A7804B46E3806D4618220021684604F052
:1023C00001F92E70029443460393129B0493139BCE
:1023D00005936846FFF720FE08B0E0BCBA46B14658
:1023E000A846F0BD00E00010F0B5C64600B588B0C4
:1023F00080460D0017001E00134805F0FDFB06ACDB
:1024000023781F2293432370DBB24132934323701E
:10241000DAB27F23134023700923637065800023A1
:10242000A380E3806D4618220021684604F0CAF8B4
:1024300043462B700294049705966846FFF7ECFD1F
:1024400008B080BCB846F0BD1CE0001070B584B088
:10245000C378002B14D1057883681E7901AC0C2257
:102460000021200004F0AEF82800FEF7FDFF2070E8
:1024700025716671002120000BF07EF904B070BD5B
:10248000E42203490348FF3205F0B6FBF6E7C046F5
:10249000F0F6001030D90010F0B5CE46474680B5B2
:1024A00089B080460F0016009946002936D10022D7
:1024B00006AC23781F218B4313432370D9B26023CA
:1024C0009943202319432170CAB27F2313402370FC
:1024D000012363706680A7800023E3806D46182285
:1024E0000021684604F06EF843462B7002944B4678
:1024F0000493109B05930D4BB600F1580C483B001C
:10250000424605F079FB6846FFF786FD041E07D0BA
:10251000200009B0C0BCB946B046F0BD0322C7E7F1
:1025200004490548722205F067FBF1E7F8F700104F
:1025300044E00010E0F7001030D9001070B582B010
:10254000C378002B1FD105786B1F82681679002E87
:1025500020D11A4C1B01E418E2891948290005F022
:102560004BFBA37BDA071DD49B0719D5154829001F
:1025700005F042FB144B002200920132310028008A
:10258000FFF78AFF0CE0802210491148FF3205F066
:1025900033FB05E0C2220D490D48520005F02CFB2B
:1025A00002B070BD0B48290005F026FB064B002247
:1025B000009231002800FFF76FFFF1E7AC2D0020FB
:1025C00074E00010C8E00010FD290010D8F60010DB
:1025D00030D90010A4E00010F0B5CE46474680B5D3
:1025E00089B080460F0016009946002936D1002296
:1025F00006AC23781F218B4313432370D9B2602389
:102600009943202319432170CAB27F2313402370BA
:10261000032363706680A7800023E3806D46182241
:102620000021684603F0CEFF43462B7002944B46D0
:102630000493109B05930D4BB600F1580C483B00DA
:10264000424605F0D9FA6846FFF7E6FC041E07D0BB
:10265000200009B0C0BCB946B046F0BD0322C7E7B0
:1026600004490548922205F0C7FAF1E7F8F700108F
:10267000E8E00010C8F7001030D9001000B583B0B2
:10268000C378002B10D10078421F0B4B99780B4B6D
:1026900012019B1899700A4B002200920832012106
:1026A000FFF79AFF03B000BD8F220649064852008B
:1026B00005F0A2FAF6E7C04610170020AC2D002066
:1026C000CD26001094F7001030D9001030B583B03B
:1026D000C378002B18D10478651F83681A7959795B
:1026E000090211431A4B2A019B189B78994212D078
:1026F000C9B20131C9B2174B002200920832200042
:10270000FFF76AFF03B030BD982213491348520007
:1027100005F072FAF6E70E4A2B01D218517804320E
:1027200000230193009301332000FFF777F800287E
:1027300006D0074B2D01E95C2000FFF7FBF8E1E72D
:102740003A2205490548FF3205F056FADAE7C04655
:10275000AC2D0020CD26001078F7001030D90010E5
:1027600070B586B0C378002B13D10478621F8368DC
:102770001E79154B12019B181B7ADB0710D5134BE2
:1027800000220092043231002000FFF725FF06B03E
:1027900070BDC6220E490F48FF3205F02DFAF6E74C
:1027A00003AD0C220021280003F00CFF2000FEF7EF
:1027B0005BFE287001236B702C716E710021280064
:1027C0000AF0DAFFE3E7C046AC2D00204D240010EC
:1027D00010F7001030D90010F0B5CE46474680B54E
:1027E00089B007000E1E9146984632D1002206ACF1
:1027F00023781F218B4313432370DDB260239D4355
:1028000020231D432570EAB280235B4213432370CB
:10281000002363706380A6800433E3806D46182232
:102820000021684603F0CEFE2F7002944B460393BE
:1028300043460493109B059307483200390005F086
:10284000DBF96846FFF7E8FB09B0C0BCB946B04603
:10285000F0BD0322CBE7C04614E1001010B50348D9
:102860001022002103F0AEFE012010BDAC2D00208F
:1028700001207047F8B50D0014005279092A34D1AF
:10288000A279002A34D1E279012A33D80F2B10D94A
:102890002778E7197B78052B04D1FA78023B13409F
:1028A000032B0DD014491548D32205F0A5F90026B5
:1028B0001CE011491148CE2205F09EF9002615E0D2
:1028C00039002800FFF714F8061E08D0053DA2784D
:1028D0000B4B2D01EA54BA785B195A7006E0064991
:1028E0000648D62205F088F900E000263000F8BD41
:1028F0000026FBE70026F9E7BCF7001030D90010EE
:10290000AC2D002010B50100042806D9441F240175
:10291000074BE4186378002B00D110BD054805F083
:102920006BF910220021200003F04CFEF5E7C046B1
:10293000AC2D002040E1001000B583B0431F064AD3
:102940001B01D21851780432002301930093013304
:10295000FEF764FF03B000BDAC2D002000B583B0CE
:102960000300C278002A18D10078421F9B681979A9
:102970001D4B12019B189B7ADA0715D49A071BD4BA
:102980005A0720D41A0725D4DB062AD5174B002274
:1029900000921432FFF780FD0CE0CB221449154859
:1029A000520005F029F905E0134B00220092103285
:1029B000FFF772FD03B000BD0C4B002200921132F4
:1029C000FFF76AFDF6E7094B002200921232FFF78B
:1029D00063FDEFE7054B002200921332FFF75CFD29
:1029E000E8E7FFF7A9FFE5E7AC2D0020FD2900107F
:1029F00058F7001030D900106127001010B5C378C7
:102A0000002B03D10078FFF797FF10BD7A2203490E
:102A10000348FF3205F0F0F8F7E7C04638F700103A
:102A200030D9001070B588B00400421F154B120158
:102A3000D35C8B4208D014491448FC2205F0DCF822
:102A40000024200008B070BD06AE114B320003CB4D
:102A500003C26D4618220021684603F0B3FD2C70B6
:102A600002960C4B03930C4B04936846FFF7D4FA81
:102A7000041EE6D1182204490448FF3205F0BCF8D0
:102A8000DFE7C046AC2D0020ACF7001030D90010B5
:102A900054F80010101700207D260010F0B583B008
:102AA0000600002A02D0002003B0F0BD441F244BD2
:102AB00022019B181D792348290005F09DF8002D5F
:102AC00015D001231F002F402B4214D101211C4B94
:102AD00022019B189B788B4230D301222B00CB40E4
:102AE00017001F401A4218D10131C9B2EFE7300078
:102AF000FFF722FFD8E722010832114BD218043227
:102B0000114B002100913000FFF766FE0028CBD169
:102B10003000FFF711FF3800C6E724010834084AE7
:102B2000A2180A4B002000903000FFF755FE002845
:102B3000BAD13000FFF700FF3800B5E70120B3E756
:102B4000AC2D002058E100103D2500105D2900103B
:102B500010B50400002001E00130C0B20B2817D8E6
:102B60000C4AC3001B1A5B009B5CA342F4D1130008
:102B7000C200121A52009B189B788B4209D0054B59
:102B8000C200121A52009B18DB788B42E4D100E09D
:102B9000FF2010BD6816002000230B2B0BD807491F
:102BA000DA00D21A5000425C002A02D00133DBB2B4
:102BB000F3E7401800E000207047C0466816002088
:102BC000F0B5CE46474680B589B0804689461600A6
:102BD0001F001848110005F00FF806AC23781F22DB
:102BE0009343012213432370DDB260239D432023CE
:102BF0001D432570EAB27F23134023700B236370BB
:102C000066804B46A3800023E3806D461822002196
:102C1000684603F0D7FC43462B7002940497109B40
:102C200005936846FFF7F8F909B0C0BCB946B0464D
:102C3000F0BDC0466CE20010F0B5CE46474680B508
:102C400089B00700884691461E00174804F0A4FF8B
:102C500006AC23781F229343012213432370DDB275
:102C600060239D4320231D432570EAB27F23134038
:102C700023700A2363704B4663804346A38000237E
:102C8000E3806D4618220021684603F09BFC2F70FC
:102C900002940496109B05936846FFF7BDF909B0AE
:102CA000C0BCB946B046F0BD84E2001070B5041E49
:102CB00018D00B2916D8C800451A6D000C4EAD1956
:102CC000401A4000805D84420BD1012028710948E0
:102CD000002802D0200000E000BF69782000FEF745
:102CE00029FE70BD044905484D2204F085FFF8E730
:102CF00068160020000000007CF8001030D9001099
:102D000010B50400002001E00130C0B20B280FD83C
:102D1000084AC3001B1A5B009B5CA342F4D113005A
:102D2000C200121A52009B185B788B42ECD100E073
:102D3000FF2010BD68160020F0B5CE46474680B58E
:102D400085B00400826853780A3BDBB2012B02D9BC
:102D5000C378002B29D16369984613799946267860
:102D600019003000FFF7CCFF0500002E23D00B2800
:102D700021D8C3001F1A7F00324ABF181B1A5B00FC
:102D80009B5C9E421CD14346022B3BD01DD8002B9E
:102D90002AD0012B14D12C4B2C4A1278797802209E
:102DA00000903000FFF70CFF0AE0294929482A4A21
:102DB00004F022FF04E0294926484D2204F01CFFBC
:102DC00005B0C0BCB946B046F0BD032BF8D1FEF744
:102DD000BBFC0200A3689979DB791B020B43290035
:102DE0003000FFF763FFEBE77B79002B08D001226F
:102DF000154B0092002249463000FFF71DFFDFE728
:102E00000222F5E7398980235B00994209D91448E9
:102E100004F0F2FE0023002229003000FFF746FFF5
:102E2000CEE7FC79FEF790FC03230393064B029355
:102E30003B89019300900023220049463000FFF7B0
:102E40008FFABDE768160020392D001034320020BB
:102E50005CF8001030D90010360200007CF8001039
:102E600094E2001010B505480E2104F0C5FE044898
:102E7000A822002103F0A6FB012010BDD0E2001023
:102E80006816002001207047F8B505001E00CF0924
:102E9000FFF75EFE0400002D18D00B2816D8174A45
:102EA000C3001B1A5B009B5CAB4214D1012F14D0F2
:102EB000134B002B20D0C2014032124BD218B3B2B8
:102EC0000100280000E000BF012005E00E490F4886
:102ED0004D2204F091FE0020F8BD0D48220029008B
:102EE00004F08AFEE201074BD218B3B22100280099
:102EF000FDF764FA0120EFE70120EDE768160020F6
:102F000000000000681000207CF8001030D900108C
:102F1000F0E2001070B50600002406E00E22002149
:102F2000280003F04FFB0134E4B20B2C14D8E3006B
:102F30001A1B520009495518535CB342F3D1084893
:102F40002200310004F058FE064B002BE6D0210091
:102F5000300000E000BFE1E770BDC0466816002009
:102F600014E3001000000000F0B5D6464F46464678
:102F7000C0B58A4615001C005379032B06D00026E5
:102F80003000E0BCBA46B146A846F0BD927843484E
:102F900004F032FE2A79D3009B1A9BB212339BB203
:102FA000A34212D82B789946A9444B465B78212B33
:102FB00013D1FFF7F1FD8046002816D0524602706B
:102FC0004B461C784C44002733E0F2223449354804
:102FD000520004F011FE0026D2E7F52230493148B4
:102FE000520004F009FE0026CAE7EE222C492D48C3
:102FF000FF3204F001FE0026C2E7F62228492948E4
:10300000FF3204F0F9FD0026BAE7FB2224492548E7
:10301000520004F0F1FDB3E74246937022796379E0
:103020001B0213435B055B0D424653812378E41872
:1030300001372B79BB4217DD6378052BDDD12100E9
:103040005046FEF755FC061EDFD0A378DA09012AA8
:10305000E2D04246D370227963791B0213435B05A9
:103060005B0D42469381E1E7AB78424653704B4695
:103070009B79D3714B46DA791B7A1B021343424684
:103080001381094B1B789371AB79012B01D0012679
:1030900076E7EB795371012672E7C04638E30010FA
:1030A00070F8001030D900103432002010B588B00C
:1030B00006ACA1806B4618700022DA70029405926B
:1030C0006846FFF739FE012008B010BDF8B50400CE
:1030D0000E684B681B7B002B28D1451EFEF734FB86
:1030E00007683FBA737B0137144A0233DB0034218F
:1030F00069435B18D3189F60737B406800BA023342
:10310000DB005B18D31858605218012353710C4B25
:10311000002B02D0200008F091FF084B34226A43B4
:10312000D15C2000FEF706FC0120F8BDEA2205492B
:103130000548FF3204F060FD0020F6E7DC170020B0
:103140003DC0001088F8001030D90010421E044B1A
:103150000231C9003420504308181B189868704782
:10316000DC170020421E044B0231C90034205043BA
:1031700008181B1858687047DC170020421E034BC4
:10318000342050431B185879C0B27047DC17002018
:10319000F0B585B00700029116000393451E1E4C42
:1031A00034236B43E4182379DCB2002B02D12000D6
:1031B00005B0F0BD184B34226A439B189978FEF78E
:1031C000C7FA041EF3D0154C6B005B191B01E41801
:1031D0001F220299200003F0FBF90F4B34226A43AF
:1031E0009B189E60039ADA600A9A1A6101229A710A
:1031F00099780023019300931F3322003800FEF7D3
:103200000DFB041ED3D1044B34226A439B189978DA
:103210003800FEF7D3FACAE7DC1700201C1700209D
:10322000F0B58DB005000F0003921E00421E134C36
:1032300034235343E4182379D8B2002B01D10DB0C5
:10324000F0BD04AC1F220021200003F0BBF90C4BA1
:1032500004930C4B05936773082306937833237309
:10326000763BA3731B33E373129B00933300039AE3
:1032700021002800FFF78CFFE1E7C046DC170020A3
:103280005553424342535554F0B58FB005000F00DB
:1032900002920393421E1A4C34235343E418637979
:1032A000D8B2002B01D10FB0F0BD06AC1F22002117
:1032B000200003F087F9134B0693134B07936773B2
:1032C00024260896802323737A3BA37304AF062237
:1032D0000021380003F076F912233B703E7106227C
:1032E00039001F2002AB9C46604403F071F9149929
:1032F0000091039B029A21002800FFF749FFD2E7C3
:10330000DC1700205553424342535554F0B58DB05D
:1033100007000D0003921E00421E104C342353433D
:10332000E4182379D8B2002B01D10DB0F0BD04AC64
:103330001F220021200003F045F9094B0493094B9B
:10334000059365730623A37325740096039B0022DF
:1033500021003800FFF71CFFE7E7C046DC1700201C
:10336000555342434253555470B50478651EC37893
:10337000002B17D0104B34226A439B180122DA70BD
:103380000D4B34226A439B18D9780C4804F034FC66
:103390000B4804F001FC0B4A002300212000FFF73A
:1033A000B5FF70BDFEF7D0F902780132024B34212F
:1033B00069435B18DA70E3E7DC17002058E300107C
:1033C0006CE300108534001010B50A684B681B7B55
:1033D000002B08D1517B0B4A0023FFF797FF041EF7
:1033E00009D0200010BDE22207490848FF3204F04E
:1033F00003FC0024F5E7F12203490448520004F0DD
:10340000FBFBEEE785340010A8F8001030D900105F
:10341000F0B5CE46474680B58DB081460D00170009
:10342000984604AC1F220021200003F0CBF8134B78
:103430000493134B0593657312260696802323731A
:103440007A3BA37302AD06220021280003F0BAF8EC
:1034500003232B702E71062229001F20684403F0DD
:10346000B7F8149B009343463A0021004846FFF703
:103470008FFE0DB0C0BCB946B046F0BD55534243B7
:1034800042535554F0B583B004000E684F68FEF700
:103490005BF905003B7B002B0ED1114804F07CFB4F
:1034A000717B104B002200922A002000FFF7B8FE2B
:1034B0000124200003B0F0BD0B4804F06DFB717BCC
:1034C0000A4B002200922A002000FFF7A1FF041EF1
:1034D000EFD1D82206490748FF3204F08DFBE8E718
:1034E00084E30010CD30001098E30010C9330010C1
:1034F000C8F8001030D90010F0B5C64600B590B03D
:1035000007000C000292039316AB19888846451EEB
:10351000294934236B43C9184B79D8B2002B03D106
:1035200010B080BCB846F0BD08AE1F2200213000AC
:1035300003F048F8214B0893214B099374731E4BF9
:103540000234E40034226A43A4181B195B68414624
:103550004B430A9380233373763BB37305AC0A2243
:103560000021200003F02EF828232370039B1DBAAE
:103570000E2302AA944663441A002B041B0C1380EA
:103580002D0C558043465BBA9AB213206044FF214C
:103590000B400370120A42700A2221002720604467
:1035A00003F016F8189B0093179B029A310038001D
:1035B000FFF7EEFDB4E7C046DC1700205553424349
:1035C00042535554F0B5C64600B590B007000C0004
:1035D0000292039316AB19888846451E2849342366
:1035E0006B43C9184B79D8B2002B03D110B080BC03
:1035F000B846F0BD08AE1F220021300002F0E2FF05
:10360000204B0893204B099374731D4B0234E40044
:1036100034226A43A4181B195B6841464B430A9342
:103620000A23B37305AC0A220021200002F0CAFF6E
:103630002A232370039B1DBA0E2302AA94466344D7
:103640001A002B041B0C13802D0C558043465BBACB
:103650009AB213206044FF210B400370120A42709B
:103660000A2221002720604402F0B2FF189B009339
:10367000179B029A31003800FFF78AFDB6E7C04673
:10368000DC170020555342434253555410B50748A8
:10369000342104F0B1FA0648302104F0ADFA0548AF
:1036A000D022002102F08EFF012010BDACE30010FB
:1036B000CCE30010DC1700200120704770B5040037
:1036C000042807D8461E342575430E4BED182B7978
:1036D000002B00D170BD0C48210004F08DFA094B7D
:1036E000342272439B185B79002B05D0074B002BCB
:1036F00002D0200008F0B8FC34220021280002F09B
:1037000061FFE7E7DC170020E8E3001069C0001064
:10371000F0B589B00392461E7400A7193F01444AD0
:10372000BF18A41924012034A218424C3425754333
:103730006419A479022C48D0032C5CD0012C71D1DF
:103740003C4C6419A4788C4204D10399002901D11E
:103750001F2B07D0A22238493848520004F04CFAF7
:10376000002460E0324B7100891909015B189B68E5
:10377000002B2AD02F493425754349198F68002F13
:1037800023D02C4A52190221917129497500AD1993
:103790002D0149190C228A56002A10DB9BB2002207
:1037A000019200923A002100FEF738F8041E3AD147
:1037B0004A2221492148FF3204F01EFA33E01D4A13
:1037C0003421714352185478E8E71A4B342171437D
:1037D0005B180321997159780023019300930D33ED
:1037E000FEF71CF8041E1ED1A922134913485200EB
:1037F00004F002FA17E00F4B342171435B180021EB
:103800009971DC68002C11D004A904974A60094B17
:10381000342272439B189A688A601B69CB60A04768
:10382000012400E00124200009B0F0BD0124FAE7E2
:103830001C170020DC17002004F9001030D90010FC
:10384000F0B5CE4600B582B0019114009279062AF7
:1038500054D1E279502A57D12179CA00521A92B232
:10386000093292B29A4206D8019B013B99462778C9
:10387000E71900251FE0BE2224492548520004F024
:10388000BBF900263BE0C12220492148520004F048
:10389000B3F9002633E084221C491D48FF3204F0AE
:1038A000ABF92CE01B4B3422484642439B1859701D
:1038B0003B78FF180135012D18D87B78052BE2D114
:1038C000FA78023B1340022BDDD139000198FEF754
:1038D0000FF8061EDFD0B978CB09012BE2D00D4BD3
:1038E0003422484642439B189970E1E7A178094B7E
:1038F000342248464243D154012600E000263000DD
:1039000002B080BCB946F0BD0026F8E7F8F8001018
:1039100030D90010DC170020F0B589B005000E008A
:10392000411E254B34224A43D35CB34209D0962230
:1039300022492348FF3204F05FF90024200009B037
:10394000F0BD1D4B34224A439B1801271F711D48AF
:1039500004F022F906AC23781F229343012213437B
:103960002370DBB260229343202213432370DAB228
:1039700080235B4213432370FE2363700023638024
:10398000A680E780FDF7E0FE07006E4618220021C2
:10399000684602F017FE3570029403970A4B0493B1
:1039A0006846FEF739FB041EC8D1B022034904481B
:1039B000FF3204F021F9C1E7DC170020E8F800101D
:1039C00030D9001004E400106933001070B506000F
:1039D0000D000B4804F010F9002403E004F0CEF8C9
:1039E0000134A4B2AC4207D2305D064B1B5C6822A6
:1039F0009343F3D12E20F1E7034804F0CDF870BDD6
:103A000018E40010AD0201101CE4001010B582B0E3
:103A100000290AD001281CD80B78002B19D0164A8F
:103A20001354022B1ED0012419E001A902230B70AC
:103A300000234B700020FDF751FC041E03D00E4BF9
:103A400002221A700BE00D490D48512204F0D4F8FF
:103A500005E00A490A485A2204F0CEF80024200062
:103A600002B010BDFDF73AFC041EF8D1034904482A
:103A7000652204F0C1F8F2E7AC18002028F9001024
:103A800030D9001070B504000D000378DB07D80FA3
:103A9000002B1DD123785B07DE0F002B19DB0121E2
:103AA0004942280009F058FE2378DB07DA0F002B83
:103AB00007D123785B0709D42378042213432370AA
:103AC0000126280009F030FE300002E01600F8E779
:103AD000002070BD70B506000C0001214942200095
:103AE00009F03AFE33785B07DD0F002B04DB200082
:103AF00009F01AFE280070BD3378DB0704D4337850
:103B0000042293433370F2E70025F0E770B5060016
:103B10000D000379447924021C436405640D817807
:103B20002548220004F068F8F3789B079B0F022BCE
:103B300014D0032B2CD0012B3BD1022D04D01F4BD2
:103B4000A34204D3012035E08023DB00F8E71C49C1
:103B50001C48D12204F050F800202BE0022D03D0A5
:103B6000402C0ED8012025E080239B009C4201D1EF
:103B700001201FE012491348D82204F03DF800202C
:103B800018E00F490F48DB2204F036F8002011E05E
:103B9000022D04D04023A34204D301200AE0802355
:103BA000DB00F8E706490748E12204F025F8002089
:103BB00000E0002070BDC04620E40010FF030000BC
:103BC00014F9001030D90010F0B5C64600B5804693
:103BD0000C001E008D1801E021786418AC420FD251
:103BE00061780529F8D1A77807483200390004F038
:103BF00003F87F21394049004144FB09CE54EBE7EB
:103C000080BCB846F0BDC04640E4001070B5060068
:103C1000030000200C000139C9B2002C16D0347802
:103C2000201880B21C781B1902E0201880B21B19E2
:103C30009042EFD21C78002CECD05D780B2D05D093
:103C4000042DF2D1DD78002DEFD1E3E770BD000047
:103C5000F0B5C64600B582B00600884617000028B9
:103C60000AD0002908D06B462A4A009200221A7115
:103C700032329A7000251FE0274803F08DFF44E0A0
:103C8000102130001038FFF7A1FE1BE0202003F0C8
:103C900075FF0134E4B2BC42F8D3290109091F4879
:103CA00003F0AAFF34780136202003F067FF2100DB
:103CB000684603F0A1FF0135454505D22B07F1D138
:103CC000002DDDD10024E6E70F2347461F40424682
:103CD000134213D0FBB29846002506E0202003F0E3
:103CE0004DFF0134012CF9DD01351023DB1BAB4204
:103CF00006D9202003F042FF0024F3E71023984662
:103D00004346F01A4146FFF761FE02B080BCB84658
:103D1000F0BDC0462530305864E400106CE400105B
:103D200003008A1890B2814202D85A00904203DB05
:103D30005B009BB2C01A80B2704770B505000800E6
:103D4000AC889A420BD3D11A89B200291ED08C427A
:103D500010D2944209D8121B93B26B810AE0D11A97
:103D600089B26600891989B2EFE7A21893B2F4E725
:103D70001B1B9BB29C42FBD92968EA885204520C57
:103D80005343C91802F024FC012070BD0020FCE759
:103D900003894089181A43425841C0B2704710B590
:103DA0008488028993B2418988B2914206D81B1A4D
:103DB0009BB20020A3424041C0B210BD1B1A9BB26F
:103DC00062009B189BB2F4E770B504000D00006917
:103DD000002803D00121494209F0BEFC228992B299
:103DE00063899BB229002000FFF7A7FF05006189C6
:103DF00089B2A0882A00FFF793FF6081206900281C
:103E000001D009F091FC280070BDF8B504000E0047
:103E1000C068002803D00121494209F09DFC258992
:103E2000ADB22000FFF7BBFF002802D0E779FF0901
:103E300016D0A2882B0001E09B1A9BB29A42FBD9B4
:103E40002068E2885204520C5343C018310002F03B
:103E5000BFFBA08801222900FFF762FF2081012714
:103E6000E068002801D009F05FFC3800F8BD10B50B
:103E70000400C068002803D00121494209F06CFC0D
:103E80002069002803D00121494209F065FC002384
:103E900063812381E068002801D009F045FC206996
:103EA000002801D009F040FC012010BD074B9B68A1
:103EB000103080001950BFF35F8FBFF35F8F044B4A
:103EC0000021196082F310887047C04600ED00E0C1
:103ED000240100D00048704700E400E010B5FFF76F
:103EE000F9FF002302E0034A04C00133072BFAD98B
:103EF00010BDC0468080808010B50388DA0A1C2A75
:103F000005D15B055B1502335B00C01810BD034B88
:103F1000034A8E210348490003F0A6FC38E500104F
:103F2000D8F9001050E5001010B5091A0B1F0A4A05
:103F300088180A4A904208D8C90706D45B105B0566
:103F40005B0D0748184380B210BD064B064A872117
:103F50000648490003F088FCFC070000FE0F000043
:103F600000E0FFFF94E50010CCF9001050E50010D0
:103F700010B5091A04394A08090B08D14905490D39
:103F8000064B0B430380064B1343438010BD054B88
:103F9000054A8B210548490003F066FC00F0FFFF4D
:103FA00000F8FFFFC4E50010A8F9001050E500106C
:103FB00001238340034A10681840431E9841C0B251
:103FC0007047C04600E100E0002A05D0044BC02243
:103FD0005200995019607047014A8023D150FAE786
:103FE00000E100E010B50A001F23034001219940C1
:103FF0004009FFF7E9FF10BD024B9B6810308000BD
:10400000C058704700ED00E010B5FFF7F5FF00283D
:1040100006D0044B984201D0012010BD0020FCE7DF
:104020000020FAE7C101001070B504000D00EFF3A5
:10403000108672B60C4B1B68002BFBD0BFF35F8F52
:104040002000FFF7D9FF094B984201D0A84205D1C3
:10405000320029002000FFF729FF70BD044B054AFC
:104060000548ED2103F000FC240100D0C10100103F
:10407000D4E5001000FA001050E50010F0B5DE465F
:1040800057464E464546E0B589B081460191150038
:10409000EFF3108B72B66F4B1B68002BFBD0BFF396
:1040A0005F8F6D4B00269E57002E40DB7400A419D5
:1040B000A4006A4824180622A256674B1A70684B5F
:1040C0009A684B4610339B00D35898461B1A2F2BE7
:1040D0003BD9644B984531D105AF634B3B80634975
:1040E00073009A46981980005C4B98464044023011
:1040F000FFF71AFF78805E4BBB80FF23BB71FD7119
:10410000019B0793330053449B00434407CF07C3ED
:1041100001231C43A0465A4641464846FFF7C6FEC7
:1041200009B0F0BCBB46B246A946A046F0BD514B13
:10413000514ABE215148490003F096FB504B4E4A6C
:1041400084214E48FF3103F08FFB012342469A43FE
:104150009246101A0C2101F025FB00290FD153467D
:104160000027DA79AA4212D90621595600290DDB17
:104170004A005218920039491F008B18F1E7414B51
:104180003D4ACA213D48490003F06EFB1F00002F45
:104190002ED005AB3C4A1A80813A5A800623FB5642
:1041A0000293002B17DA394805AB9A469880029A99
:1041B0009A71DD71019A0792381D2100FFF7B4FE54
:1041C000B880BE71254B7200921992009B1852461E
:1041D00013CA13C39FE7381DFFF78EFE010070005E
:1041E000801980001D4BC0180430FFF79DFEDBE7EF
:1041F00005AF1D4B3B801D49730002939B199B002B
:10420000164A90461A0042440392901CFFF78CFE17
:104210007880039A101D5146FFF786FEB8801C4B2C
:1042200052464146521A524153431B0DBB71FD7118
:10423000019A0792029B9B199B00434407CF07C337
:10424000114B52461380813B538001231C43A046EF
:1042500061E7C046240100D0373200200C05002061
:1042600000ED00E0C101001000A1FFFF3C050020AF
:1042700001BDFFFF0CE60010E8F9001050E500104A
:1042800034E600105CE600100148000001BD0000AB
:10429000AAAA0000F0B5CE46474680B583B0060016
:1042A0000D00EFF3108872B64F4B1B68002BFBD04C
:1042B000BFF35F8F4D4B9A6834001034A300D7587A
:1042C0004B4B9F4207D0AF4200D18AE00197494B48
:1042D000FB1A2F2B09D9424639003000FFF7E6FDC3
:1042E00003B0C0BCB946B046F0BD3000FFF760FE79
:1042F000814600213000FFF775FEBFF35F8FEFF3BB
:104300000581002901D08C4211D10123019C9C43DD
:104310000020A3689D4211D00622A256002A0CDB81
:1043200053009B189B00334A2000D418F1E7324B0E
:10433000324A3348334903F097FA20009D4249D16D
:1043400006256557002D2BDB2A4B6A005219920077
:104350009B189A68A260DA79E2719B795BB2A371CB
:10436000002B0FDA2848A080224B6A0052199200D5
:104370009B18264A11789971157049463000FFF74D
:1043800031FEA8E76800401980001A4BC0180430BD
:10439000FFF7B2FD0100231D1800FFF7C5FDE2E79E
:1043A000002912D100280ED0FF238371184B83807F
:1043B00016490B78A3710F4A164BA41A6441634344
:1043C0001B0D0B70D9E70A4FF2E71349201DFFF7C9
:1043D000CFFDD2E7114B094A91210948890003F02A
:1043E00043FA034F77E7C046240100D000ED00E018
:1043F000C10100100C050020E0E60010B8F9001023
:1044000050E500100202000001BD0000373200201C
:1044100001BDFFFFAAAA00004605002014E7001016
:10442000F8B5012202432C4BD31A2F2B28D8EFF3D7
:104430000583002B2AD0EFF3108472B62749096850
:104440000029FBD0BFF35F8F234D25490600761B63
:1044500076417143090D4DB2224989689B00C958C4
:10446000914219D00021032930D81B4B4A00521821
:1044700092009B189B795BB2AB421DD00131F2E7F1
:10448000194B1A4A1A481B4903F0EEF91A4B174AFE
:1044900017481A4903F0E8F9124A92681849D150AE
:1044A000184B1A7882711D70BFF35F8F0B4B00227F
:1044B0001A6084F31088F8BD074B4A005618B600FE
:1044C0009E19FF27B771104AB280E9E70F4B074AE0
:1044D00007480F4903F0C8F90C050020240100D05B
:1044E000AAAA000000ED00E01CE700108CF9001003
:1044F00050E500107F02000044E700108202000037
:10450000C10100103732002001BDFFFF50E700104D
:10451000930200000FB400B583B0084803F03CFBE1
:10452000049B002B07D005A90191180003F044FB60
:10453000034803F031FB012003F048F958E700106D
:1045400094DB0010EFF3108072B6034B1B68002B56
:10455000FBD0BFF35F8F70472C0100D0BFF35F8F9C
:10456000024B00221A6080F3108870472C0100D0A3
:10457000F8B506000C001500FFF7E4FFE308F71894
:10458000F15C07222240012393400B4205D1DBB2AC
:104590000B433B70FFF7E2FFF8BD21002800FFF757
:1045A000B9FFF0B583B00600019114001F00FFF7BA
:1045B000C9FF00E00134BC420CD8E308F518F35CF5
:1045C0000721214001228A401A42F3D1D2B21A4374
:1045D0002A7001E001246442FFF7C0FF002C02DBD7
:1045E000200003B0F0BD019B002BF9D00898FFF725
:1045F00091FF0000054A1078431CDBB21370172BA3
:1046000002D9130010221A707047C04654050020CA
:1046100010B582B00100054C054B00931F231822F2
:104620002000FFF7BEFF02B010BDC046401D0020B5
:1046300068E70010002307E0054A9A189200BFF3CC
:104640005F8F0021116001331F2BF5D97047C046E1
:1046500040000034024B9C46614489000160704771
:104660004000003410B50400FFF7C4FF0100200033
:10467000FFF7F0FFFF232371BFF35F8F10BD10B56D
:104680000400FFF7B7FF01002000FFF7E3FFFF235F
:10469000237100236371BFF35F8F10BD10B50D4C04
:1046A00009E00D4B0D4A0E481A2103F0DDF82000F9
:1046B000FFF7D8FF08340B4B9C4209D22368002B2C
:1046C000F5D0012BEDD12000FFF7D9FF0834F2E738
:1046D00010BDC046340B002084E7001040FA0010E3
:1046E000A4E700103C0B0020034B9C46614489006A
:1046F0000160BFF35F8F70474000003410B50400C5
:104700000120FFF785FF01002000FFF7EDFF10BD3E
:1047100030B5846A151B0B1D9B001B581B1B9D424B
:1047200004D3046A01238B40234202D1043189005F
:104730000A5030BD00040843704700000A4B196856
:10474000EFF3108372B60A68002AFCD0BFF35F8FC4
:10475000054A1268BFF35F8F0021116083F3108850
:1047600040BF00200021704728320020F0B5DE460F
:1047700057464E464546E0B587B0EFF30583032222
:104780001A409246AE4B9200D7583B78534507D11A
:104790000123524693409946AA4B4A461A6025E1A6
:1047A000A94BAA4AAA48922103F05EF87A697300DD
:1047B0009B19DB009046984443469C68DD68A548F9
:1047C00000F0ACFB001BA941002900DA16E1002D26
:1047D00074DB43461B699B469F4B9B454FD0082388
:1047E000F85E4346598889B2FFF7A4FF43465969EA
:1047F000D847029003910299039A0B0010001343CB
:104800005CD013000A00002847DAA41A9D410094E6
:1048100001954346009C019D9C60DD600021595E2E
:10482000002900DAEAE078694B005B18DB00C31866
:104830009A68DB68A41A9D41002D00DADEE0398118
:104840003D000835844604912A000597B346009E32
:10485000019F049B002B2ADB0023D45E63001B19FD
:10486000DB0063449C68DD6830003900001BA9410F
:1048700000291CDB1A000021595E0491E9E7434638
:104880005B699B461B6958469847002816D05B46D3
:104890001A685B6802920393ADE76E4800F03EFB36
:1048A000029B039C1B184C4100930194B1E70499AF
:1048B000059F5E464346198016809FE043460022CE
:1048C0009B5E3B813A69EFF3108372B61168002951
:1048D000FCD0BFF35F8F02217A5E41460A807E8062
:1048E0003A69BFF35F8F0021116083F3108885E080
:1048F0003969EFF3108372B60A68002AFCD0BFF35F
:104900005F8FB88800B201225242BA803A69BFF381
:104910005F8F0021116083F310880500BC461CE006
:10492000049300229A5E002A0EDB049B0021595E4C
:104930004B005B18DB0063449868D96834003D0085
:10494000241A8D41002DEBDA04995D46009B9C46AC
:1049500044460D800023E55E2280002D12DB634675
:1049600058696C006419E4000419A668E768614698
:10497000083108229A5EAB46049163460093A04634
:104980008446D0E767463EE00023BB71390008311A
:104990000823F85E0EE001246442E5179460D560B8
:1049A00008243B5F834204D00E8008243B5F1380C1
:1049B00038813000431C29D07C6943001B18DB0080
:1049C000E218E65E53881BB2002BE4DB1100F0E72F
:1049D00022002B0051461F48FFF79AFE1D4800F0A9
:1049E0009DFA241A8D41002D22DC1FD0194B4A4616
:1049F0005A630823FE5E002E00DBD7E6BB881BB29D
:104A0000002B00DB74E7BB79002BBDD10823FA5ED5
:104A1000002A0DDB796953009B18DB00CB189C68DA
:104A2000DD68631CD4D16B1CD8D0D1E7002CDDD05D
:104A300040BF07B0F0BCBB46B246A946A046F0BD99
:104A4000E02F00203C70054038E800106CFA0010A0
:104A500064E80010004005406D47001070B5040088
:104A60000D0011000126AE4006622800FFF7DCFAB7
:104A700001212800FFF7B6FA024B9C4664442660E9
:104A800070BDC04638200000F8B5CE46474680B518
:104A90000600894690461F00C160FFF7ABFD154B2D
:104AA0009C4660448000306143463370BBB27381E2
:104AB000D022120612787270012252423281B280E4
:104AC0009B187380002406E0621E736965002D192F
:104AD000ED005A530134BC42F6D3074B42469200D4
:104AE000D650064A41464846FFF7B8FFC0BCB94613
:104AF000B046F8BD40000034E02F00206D470010A4
:104B000010B5064B1B69002B01D0044810BD044BA7
:104B1000044A0548652102F0A7FEC046580500205A
:104B2000A4E8001054FA001064E80010F8B504007E
:104B30000569EFF3108072B629680029FCD0BFF335
:104B40005F8F0221665E656971008919C9006D1861
:104B5000002E02DB0027E95F61802169BFF35F8FD0
:104B600000270F6080F31088002E2CDB0699296146
:104B700007996961AA60EB606B8801335B04590C8B
:104B8000002B00D1012169803000FFF7D3FD21699E
:104B9000EFF3108372B60A68002AFCD0BFF35F8F70
:104BA000A2882A80A6802269BFF35F8F002111604E
:104BB00083F31088E368217801228A4003498C46F8
:104BC00063441A60F8BD01204042FBE73C2000002E
:104BD00070B582B0060014001D0008AB1B78002BD6
:104BE00007D100F0CDF922002B00121A8B41002BC7
:104BF0000ADB079B0193069B009322002B003000E9
:104C0000FFF794FF02B070BD0020FBE7F0B5C64689
:104C100000B584B00500884616001F000AAB1C785A
:104C2000FFF76EFF0294019700962A004346FFF7B4
:104C3000CFFF04B080BCB846F0BD000030B5040022
:104C40000A1443899A422EDA406953009B18DB000C
:104C5000C3182569EFF3108272B628680028FCD0CB
:104C6000BFF35F8F588885B20904090C884212D0BF
:104C700000202369BFF35F8F0021196082F3108841
:104C8000002811D0E368217801228A4007498C4628
:104C900063441A6008E00649294389B25980012318
:104CA000A3710120E5E7002030BDC0463C20000094
:104CB0000080FFFF10B50400FFF722FF2100FFF77F
:104CC000BDFF10BDF0B583B006000F00EFF3058304
:104CD000002B1AD106246442E517A4197D418D42A8
:104CE00002D803D1844201D90024002500F048F9FC
:104CF00022002B00121A8B41002B0BDC08D0300055
:104D0000390000F04FF903B0F0BD1648FFF702FC80
:104D1000002AF4D0144A0023009320002900FFF752
:104D200075FF002813DAEAE7104B1968EFF31083D8
:104D300072B60A68002AFCD0BFF35F8F0B4A126874
:104D4000BFF35F8F0021116083F3108820BF084BF1
:104D50005B6A9D42E8D80649896AA142CFD29D424A
:104D6000CDD1E1E7C8E800103D470010283200200F
:104D70000040054070B504000D0000F001F9001975
:104D80006941002902DBFFF79DFF70BD0120404211
:104D90000049F8E7FFFFFF7F10B5FA2292000023D9
:104DA000002101F03BFBFFF7E5FF10BDF0B5CE465B
:104DB000474680B583B005000C00EFF30583002B58
:104DC00015D03F4B5B6A8B4209D33D4A926A8242BF
:104DD0000BD28B4201D0012002E0002000E0002035
:104DE00003B0C0BCB946B046F0BD0120F8E7FFF7FC
:104DF00087FEC3689946037898462E0027004846E8
:104E000000F08CF802000B00B61A9F4143460433B1
:104E10009B004A469B581B1A0022BA420FDC0CD05A
:104E200020BF274B5B6A9C422DD8254A926AAA4232
:104E30002BD29C4225D00120D2E7B342F0D9214A9F
:104E40000023009328002100FFF7E0FE00281EDD6C
:104E50001B4B5B6A9C4205D8194A926AAA4202D24D
:104E60009C4200D120BFFFF725FF154B5B6A9C4297
:104E700021D8134A926AAA421FD29C4219D001201B
:104E8000AEE70020ACE70020AAE70120A8E70C4B22
:104E90005B6A9C4209D80A4A926AAA4207D29C429B
:104EA00001D001209CE700209AE7002098E701202C
:104EB00096E7002094E7002092E7012090E7C046A3
:104EC000004005403D470010004870470040054045
:104ED00010B50B4B1B69002B04D00A480A21FFF7C1
:104EE000B9FB10BDFFF7F0FF0400032100F00CF840
:104EF0000348102303222100FFF7C6FDEDE7C0465B
:104F0000580500202832002010B5024A0248FFF759
:104F10002FFB10BD18E90010441D00200200436A59
:104F2000906A1900536A9942FAD17047416A00E0C9
:104F3000416A9942FCD300E0416A994202D1816AF8
:104F40009142F9D37047F0B5C64600B580461400CB
:104F50001D00FFF7E3FF06000F0022002B0092194F
:104F60007B41994202D804D1904202D90122524297
:104F7000D3174046FFF7DAFF80BCB846F0BD00000B
:104F800010B50248FFF7CAFF10BDC04600400540FB
:104F900010B502000B000248FFF7D5FF10BDC04658
:104FA0000040054010B502000B000248FFF7BEFFAD
:104FB00010BDC0460040054010B5192000F010FAA1
:104FC000D0231B06802292045A6210BD002805D00F
:104FD000D0231B06802292045A617047D0231B06FF
:104FE000802292049A61F8E710B5002002F09CFD3F
:104FF00010BD000010B5024800F004F810BDC04616
:10500000F82F002070B588B0040004AD0D220021F7
:10501000280001F0D7FA0D220021684601F0D2FAEB
:105020004B232B700D226946280008F075FB0023E6
:1050300004E05A1D69468A5CE2540133072BF8DD0F
:1050400008B070BD10B5010018231B881422108809
:10505000984710BD10B5010018231B881622108830
:10506000984710BDF0B5C64600B507000E000025F4
:105070000123984600E00135B5420AD2AC003C1944
:105080002068FFF7DFFF20600028F4D10023984656
:10509000F1E7404680BCB846F0BD0000F8B5D64602
:1050A000474680B506000D001700984644002418B6
:1050B000A400294B9C4664446368089A934200D23A
:1050C0006260331FDBB29A46012B2ED98022120177
:1050D000C0239B01E3181A60204BB200D15800296D
:1050E00007D0586900F05EFB013043001B18033BFA
:1050F000FDD27F0123685F40E0233B4080225201C4
:10510000A21813605346012B1AD980239B01E31880
:10511000802212011A60089B6360104BB600424661
:10512000F250C0BCBA46B046F8BD012DCED1032224
:10513000C0239B01E3181A60A368DB07FCD5D8E7FE
:105140002168694003230B401360A3680122AA4031
:105150001A42FAD0D9E7C04600800040481F00201C
:10516000F0B583B005000E0017001800089900F094
:1051700019FB0300089A140200943A003100280039
:10518000FFF78CFF03B0F0BD10B582B0802464003F
:105190000094FFF783FF02B010BD0000014B8000B8
:1051A000C0587047481F0020F8B5CE46474680B526
:1051B000D0231B061F68214BBA00D3589846002FF6
:1051C00003D01F4B994600262AE01E4B9946FAE76A
:1051D000EB4012E024090135002C20D033000833C5
:1051E000AB421CD90F23190021402342F2D0164BA9
:1051F000BA00D358202DEBD40023DB07EAD40722D2
:105200002A409200EB08080090403C339B000F4A74
:1052100098504346002BDDD02800C047DAE7083617
:105220001D2E06D8F30808339B004A469C583500CB
:10523000D2E7C0BCB946B046F8BDC046381D002014
:105240003041014000410140F02F0020004001406A
:1052500030B507240440A400C008A14004003C3439
:10526000A400094D615180001B18002A05D080223E
:10527000920194466344196030BDC0229201944665
:1052800063441960F8E7C0460040014010B5830050
:10529000084A9A1814684022544080322240064C32
:1052A000A44663441A60C000044B9C4660444160BD
:1052B00010BDC04604C0014004D001400040014080
:1052C00080000C4B9C46604400290ED00823002A25
:1052D0000DD004221343026853400C221340802255
:1052E000520194466044036070470023EFE70022B8
:1052F000F0E7C04604C0014070B506000D00141E62
:105300000BD1D0231B061B68002B11D0094B2200A8
:1053100029003000FFF79CFF70BD0D20FEF774FEE2
:105320000028EED1044B054A0548BD2102F09CFA45
:10533000044BECE73041014040EB0010ACFA0010A8
:105340006CEB00100041014070B50400D0231B0637
:105350001D680D4BAA00D358002B0AD0002803D09B
:10536000094BAD00EC5070BD08490D20FEF792FFCF
:10537000F6E70028F7D0044BAD00E85003490022BF
:105380000D20FEF77BFEEEE7381D0020A95100102E
:1053900070B505000E0014001800FFF7D5FF2200BD
:1053A00031002800FFF7A8FF002C00D170BD0121BB
:1053B0000D20FEF717FEF9E7002906D08000064B06
:1053C0009C4660444023036070478000034B9C462A
:1053D000604440230360F7E704E0014004F001402B
:1053E00010B501238340D0221206936293610521F8
:1053F000FFF74CFF10BD0000F0B5C64600B5040035
:105400000E0017001D00374800F0CCF98046364BDF
:10541000FA18364B9A4239D80100380000F0C2F928
:105420000200103A98235B009A4235D86B1E062B77
:1054300038D8069B013B062B34D83F09474537D364
:105440002D04069B1B031D432368002B36DB284BD2
:105450009C4244D00C2201239340264A1360264AE2
:105460001360264A1268190091430A1EF9D126607A
:10547000A060234BE31821321A602268002AFCDA6C
:10548000E56008221A6080BCB846F0BD1D4B1E4A7C
:105490001E48112102F0E8F91D4B1B4A1B48192137
:1054A00002F0E2F91B4B184A18481C2102F0DCF903
:1054B000194B154A1548232102F0D6F922683F23DB
:1054C0001340B342C3D1A3681B051B0D8342BED159
:1054D000E368EE22D2021340AB42B8D1D3E70D22EB
:1054E000B9E7C046001BB70080E84BD380F8A9326B
:1054F00000C0024000E0004000F0004008C0004052
:1055000004300000B4EB0010C4FA001004EC0010EA
:1055100048EC001064EC0010B0EC001080239B00FD
:105520000B43014AD362704700800540074BAA2213
:1055300012011A608D225200DA60054B054A1A608A
:10554000024B5B68002BFBDA7047C046004002400C
:105550000060024000B0FA0010B5040001E008CC81
:105560009847024B9C42FAD310BDC046C4D70010E6
:105570007047000010B50248FFF7EEFF10BDC046AF
:1055800088D70010054B064A1A60064B064A1A6077
:10559000064B1A68044B9343FAD1704700E0004071
:1055A000BFCDFBFE00F00040FE7F3C0008C0004085
:1055B000044BDB6C002B03D1034B8022D2021A6018
:1055C0007047C046000011504C201150044B054A52
:1055D0001A60054B1B68DB43DB01FAD17047C046FC
:1055E00000F00040FFFFFF0108C00040034B4022D5
:1055F0009A675A671A67DA667047C04600F001403A
:1056000010B5FFF717F810BD10B50C4A0C4BD21AA5
:1056100092101400302A00D930229200094808491B
:1056200000F0D6FF04E0084A064BA100CA5001343E
:105630002F2CF8D9034B054A936010BDC001001010
:105640000001001000000020C101001000ED00E08A
:1056500070B50420FFF7A2FD064900F0A3F805008D
:105660000024002C00DD70BDE0B22900FFF756FFDA
:105670000134F6E740420F0030B583B0274B0022DB
:105680009A67FFF753FF264B01221A60234B5B6C8E
:10569000012BFBD1234B03221A60204B9B6B012B68
:1056A000FBD10133009304331F4A01211F48FFF748
:1056B000A3FE052300931E4A01211E48FFF79CFE0E
:1056C0001D4B002202210420FFF75EFD1B4D2B0025
:1056D000002201210520FFF757FD194C230000226D
:1056E00000210720FFF750FD2300002200210820A1
:1056F000FFF74AFD8023DB000093230000220021F6
:105700000920FFF72DFD2B00002200210620FFF7C6
:105710003BFDFFF79DFF03B030BDC0460080004059
:105720003CB0004030B00040002F6859008002407B
:10573000008C864700C00240001BB7004059730729
:10574000006CDC0201480421014B18477005002061
:1057500065500010124A936F9B0815D29066D1666F
:10576000002905D0FFE7FFE7FFE7516F106F704793
:1057700004B580210906C2175140002800D0C84353
:1057800007F0E2FF002104BDF0B5146E556E576FAF
:10579000166FFFF7E3FF1466556657671667F0BD8F
:1057A000000000D0114A936F9B0813D21066516617
:1057B000002905D0FFE7FFE7FFE7516F106F704743
:1057C00004B5002801D00020C04307F0BDFF002130
:1057D00004BDC046F0B5146E556E576F166FFFF7D7
:1057E000E5FF1466556657671667F0BD000000D0E8
:1057F00094464A4A926F9208624601D228E0C04617
:10580000F0B5464E346E756E776F366F00F020F847
:105810009446424A14665566576716676246F0BD5D
:1058200094463E4A926F9208624601D254E0C046C6
:10583000F0B53A4E346E756E776F366F00F04CF8F7
:105840009446364A14665566576716676246F0BD39
:10585000002B24DB11D000293EDA00B5C9434042B9
:1058600000D1013100F038F8C943404200D1013184
:10587000DB43524200D1013300BD002AEBD10028A6
:1058800001D1002905D00020C90FC90701D1C043AB
:10589000410800B507F050FF0022002300BD00B50D
:1058A00000290ADBDB43524200D1013300F014F837
:1058B000C943404200D1013100BDC943404200D13B
:1058C0000131DB43524200D1013300F005F8DB43E4
:1058D000524200D1013300BD002923D1002B18D141
:1058E000002A0CD0BC460D4F38667A660021002392
:1058F000FFE7FFE7FFE77A6F386F674670470028DA
:1059000001D00748010000B507F016FF0022002370
:1059100000BD02000B00002000217047000000D0F5
:10592000FFFFFFFF002B00D0BFE0130C28D1002A9F
:10593000E7D080B4114F39667A66FFE7FFE730B4ED
:10594000040C7B6F396F1B0423433B667A66FFE7C9
:10595000FFE7FFE7C04684B27B6F3D6F1B04234324
:105960003B667A66FFE7FFE7C04600232C042D0C58
:105970007A6F386F00196941B0BC7047000000D0E1
:10598000F0B594460025140E01D112020835140F0B
:1059900001D112010435940F01D192000235D40FC8
:1059A00001D152000135D40B0134254F7C66254CC2
:1059B0003C660E0C93B2FFE7FFE7FFE73C6F6643E0
:1059C000360C7703BE467343DF0B5B04C01AB94144
:1059D000130C7343DB18C91ACE086643360CB64461
:1059E00093B273431F0F1B01C01AB941130C7343C9
:1059F0001F0B1B05C01AB941860D8F023E4366433B
:105A0000360C092D24DB520A7243801A7703460AAA
:105A10006643360C16235B1BDE40DF40BF1964462D
:105A20006643821B7046043506330100D940A84006
:105A3000C01900D30131A24206D20023F0BD0000FC
:105A4000000000D0FFFFFFFF121B0130F3D3F1E78E
:105A500009277F1BFE406446A2B27243801A00D21F
:105A60000139220C7243130C1204821A99410B0063
:105A70007046043513370100F940A840801900D35F
:105A80000131002B02D1A2420AD2F0BD013000D375
:105A90000131121BFAD2013BF8D1A24200D2F0BD73
:105AA000013000D30131121BF7E7F0B51C0C00D018
:105AB00080E00CB400251C0A04D11B02160E3343EF
:105AC000120208351C0B04D11B01160F33431201BF
:105AD00004359C0B04D19B00960F33439200023592
