:020000041000EA
:1000000000B5324B212058609868022188439860DF
:10001000D860186158612E4B002199600221596106
:100020000121F02299502B49196001219960352056
:1000300000F044F80222904214D00621196600F024
:1000400034F8196E01211966002018661A6600F04E
:100050002CF8196E196E196E052000F02FF8012189
:100060000842F9D1002199601B49196000215960AB
:100070001A491B48016001219960EB211966A021F2
:10008000196600F012F800219960164914480160C1
:100090000121996001BC002800D000471248134993
:1000A000086003C880F30888084703B5996A0420EC
:1000B0000142FBD001200142F8D103BD02B5186610
:1000C0001866FFF7F2FF186E186E02BD00000240BE
:1000D000000000180000070000035F00212200005C
:1000E000F4000018222000A00001001008ED00E03C
:1000F00000000000000000000000000074B24E7A12
:1001000000200420F7010010CB010010CD010010E9
:10011000C9010010C9010010C9010010C901001077
:10012000C9010010C9010010C9010010CF01001061
:10013000C9010010C9010010D1010010D301001045
:10014000C1010010C1010010C1010010C101001067
:10015000C1010010C1010010C1010010C101001057
:10016000C1010010C1010010C1010010C101001047
:10017000C1010010C1010010C1010010C101001037
:10018000C1010010C1010010C1010010C101001027
:10019000C1010010C1010010C1010010C101001017
:1001A000C1010010C1010010C1010010C101001007
:1001B000C1010010C1010010C1010010C1010010F7
:1001C000EFF30580103800BE00BE00BE00BE00BECA
:1001D00000BE00BEF2EB887158F3001078F30010F7
:1001E0003802001090A31AE71E481F49086006C88D
:1001F00081F3088810471D480068002801D019487D
:10020000F3E70DA40ECC002902D000F012F8F9E7B4
:100210001749184A002000E001C19142FCD116495B
:100220008847164988471649884700BEFDE701C937
:1002300001C29A42FBD3704778F30010C00000203F
:10024000640B00201CFE00100000042000000420AD
:100250001CFE00100010042000100420000000000C
:10026000704700000000000008ED00E0000000D032
:10027000640B00207032002011750010350300104F
:10028000D1740010F8B5C04606480749091A8B100A
:10029000C90FC91810B5491003D0044B002B00D06A
:1002A000984710BD640B0020640B00200000000084
:1002B000054B10B5002B03D00449054800E000BFF2
:1002C000FFF7E2FF10BDC046000000000030002034
:1002D000ECD3001010B504F071FD002905D0FA220E
:1002E0009200002305F0D4F810BDFA21890005F032
:1002F00091F8F9E77047704710B5FFF7EBFF0B4B2C
:100300001B68C01AFA229200904200D210BD074A20
:10031000FA2189008C4663441360054C207804F070
:1003200073FD2378012253402370EFE75C320020F5
:100330006C32002080B51B4FBD4407F02BFA1A4BDE
:100340000022DA6204F056FD07F0AAFB07F0EAFB90
:1003500002A942A807F094FB144B1A8801AB1A803B
:100360001900002003F06AFB114B002B01D004F0B0
:100370005EFD0BF0EFFD01200021404201F08EFEFA
:100380000BF052FCFFF7B8FF07F066FC0028F2D133
:1003900007F006FC07F016FC0028ECD107F01AFB6A
:1003A000E9E7C046F8FDFFFF00400540F0D300102C
:1003B0002F4E001010B504F00DFC10BD704700006A
:1003C000054A1078431CDBB21370172B02D91300B7
:1003D00010221A707047C046E804002010B582B0A1
:1003E0000100054C054B00931F231822200000F04C
:1003F0004EF802B010BDC046701D0020F4D30010AE
:100400000FB400B583B0084807F0FEF9049B002B39
:1004100007D005A90191180007F006FA034807F074
:10042000F3F9012007F00AF810D4001004E20010DC
:10043000EFF3108072B6034B1B68002BFBD0BFF3A9
:100440005F8F70472C0100D0BFF35F8F024B0022FB
:100450001A6080F3108870472C0100D0F8B50600B0
:100460000C001500FFF7E4FFE308F718F15C072222
:100470002240012393400B4205D1DBB20B433B707A
:10048000FFF7E2FFF8BD21002800FFF7B9FFF0B544
:1004900083B00600019114001F00FFF7C9FF00E0C0
:1004A0000134BC420CD8E308F518F35C0721214065
:1004B00001228A401A42F3D1D2B21A432A7001E0D3
:1004C00001246442FFF7C0FF002C02DB200003B0D0
:1004D000F0BD019B002BF9D00898FFF791FF0000B9
:1004E000002307E0054A9A189200BFF35F8F0021AE
:1004F000116001331F2BF5D97047C046400000340E
:1005000030B505004B0613D0012200E001320F2A5E
:100510000CD85301074C18191B5D002BF6D0437FF4
:10052000AB42F3D183788B42F0D100E0002030BDA4
:100530000048FCE7B41F0020012200200F2A09D840
:100540005301054958185B5C002B01D00132F5E7D7
:10055000511E81777047C046B41F0020F0B5C646D3
:1005600000B584B00D00437F98468778C68A00F0B6
:1005700079FC01AC0C220021200005F05BFE022377
:1005800063704346A37027716571039601212000B3
:100590000CF002FF04B080BCB846F0BD10B50A4BA9
:1005A000DB6C9B0709D5094B9B7E002B06D00748C7
:1005B0000823C3820021FFF7D1FF10BD044B054A79
:1005C0000548AD2106F088FF00001150B41F00203F
:1005D00020D40010F8E500102CD4001010B500282D
:1005E00007D11148114B8360114B4360114BC3601D
:1005F00010BDFFF7A1FF00280FD0837FDA000E495E
:10060000511881600D498C466244426002339B015F
:10061000084A94466344C360EAE7094B094A20212B
:100620000948FF3106F058FFB41F00208000105029
:100630000001105080011050880010500800105028
:1006400064D4001078E500102CD4001010B50C0014
:100650000A4B98658B7E002B05D0080000F088FCC3
:10066000002806D110BD064B064A0748692106F04E
:1006700033FF00212000FFF771FFF3E70030115036
:1006800020D400100CE600102CD4001070B5164BCE
:100690009E6DF30701D4012519E001239E43134900
:1006A0004B681B680120FFF7D1FFF4E7864369011F
:1006B0000E4BC918FFF7CAFF0134012C06D86B0096
:1006C0001B19012098403042F6D0EFE701350F2D7D
:1006D00003D8002E01D00024EFE7002E00D170BD1A
:1006E00003483100FFF78CFE00001150B41F0020BA
:1006F00068D4001030B585B02F4A9823D458973B62
:100700001D002540234211D0136D1B0A9B0721D0E9
:1007100001A80023037043700371437101210CF0A1
:100720003BFE264BC02292001A65012563051CD4AE
:10073000E30626D4230729D4630605D540231D43A9
:100740001E4B802212051A65A30628D4A5422DD17E
:1007500005B030BD01A8002303700122427003716F
:10076000437101210CF018FEDBE78023DB001D4301
:10077000124B802292051A6511480221FFF7EEFE06
:10078000D6E710231D43FFF781FFD3E708231D435E
:100790000A4B8022D2021A65FFF700FFCCE7074B15
:1007A000802212061A650748FFF72AFE29006140D9
:1007B0000548FFF725FEC0460000115000301150DB
:1007C000B41F002080D4001094D4001070B500280D
:1007D0001DD100F025FB114C0C23A367104D2900FF
:1007E000052003F001FDFF222900052003F0F0FBA6
:1007F0000C4880229200002105F01CFD0323236495
:10080000094BE3649023094AE250012070BD084B74
:10081000084ABF210848490006F05EFE000011505A
:10082000F5060010B41F0020008600207B040000A5
:10083000A8D40010ECE500102CD4001010B500284E
:1008400000D110BD034B044AD5210448490006F0ED
:1008500043FEC046A8D40010DCE500102CD40010E4
:100860007047000070B500280DD10A4D296DC024D5
:10087000A4002140084806F0F7FF286D2040431EE1
:100880009841C0B270BD054B054AB8210548FF31FB
:1008900006F022FE00001150B4D40010A8D40010BD
:1008A000C4E500102CD4001010B5031E0AD10A4A6A
:1008B000126D120A03201040012802D0022808D12C
:1008C000180010BD054B064AC0210648FF3106F04E
:1008D00003FE0548FFF794FD00001150A8D4001056
:1008E000B0E500102CD40010B8D40010F8B5CE46F6
:1008F000474680B504000E00994608A90D7809A95D
:100900000B789C4643689846002B4DD08368002B9B
:1009100051D0C168002955D07F2318001040D70955
:10092000A27066776770134253D17E3BE3704B46EB
:100930002383E5762B4B4B4089064CD1AD061D43F6
:10094000A0231B062B436246002A02D0013A120460
:1009500013434246136001232370234B9C421FD054
:10096000030433431D00002F02D18025AD041D4335
:100970000020FFF799FF0700300000F071FE87426A
:1009800002D08023DB041D43A37F9B00174A9446BB
:1009900063445D60A27F013201239340144A536592
:1009A000C0BCB946B046F8BD124B134A9B21134850
:1009B000490006F091FD124B0F4A38210F48FF31D4
:1009C00006F08AFD0F4B0C4A9C310C48490006F09A
:1009D00083FD0023AAE70C4B074AA62107484900DC
:1009E00006F07AFD00001050B41F002000001150E6
:1009F00000201150C8D4001064E500102CD4001061
:100A0000E0D40010F4D4001004D50010F8B50D00A7
:100A10001F4B1B78002B07D01D4B9B7E002B03D058
:100A20001B4B5B7F8B4202D0002D2FD1F8BD1848A5
:100A300000230370426813608268136000F012FAAA
:100A4000F2E701340F2CF1D86001114BC018437F3D
:100A5000AB42F6D10E4B6201D35C002BF1D00C4EB1
:100A60001700827F0132012393400A4A5365837F36
:100A70009B00094A9446634400225A60BA55436871
:100A80001A6083681A6000F0EDF9DAE70124D9E70B
:100A9000B41F0020003011500000115010B5002884
:100AA00004D10121052003F057FA10BD034B044A7D
:100AB000F8210448FF3106F00FFDC046A8D400100D
:100AC000A0E500102CD4001030B583B00D00140048
:100AD000D0788007800FFFF781FD002812D0A27820
:100AE000217963791B020B435B055B0DE178890774
:100AF000890FA479019400912900FFF7F7FE0120E6
:100B000003B030BD03490448044A06F0ADFE00209E
:100B1000F6E7C04690E5001020D500100E02000058
:100B2000F0B5D6464F464646C0B582B00E00150019
:100B30009A460AAB1B8899467F271740D3099846E7
:100B400011003000FFF7DCFC041E1FD0837E002B59
:100B500023D18378AB420AD0002F24D1038B00220B
:100B60000192C27E00922A003100FFF7BFFE244BA3
:100B70009C421ED04A465146200000F0DDF901207B
:100B800002B0E0BCBA46B146A846F0BD1D491E48B9
:100B90001E4A06F069FE0020F2E71D4B194A1D4867
:100BA0001D4906F099FC1D4B164A1A481C4906F0CF
:100BB00093FC4A465146200000F0BEF93B04334303
:100BC000184A13604346002B16D0174C0020FFF73D
:100BD0006BFE0500300000F043FD85420ED040233F
:100BE00023430122190091430E4AD1640C21033999
:100BF000FDD2D3640120C3E70C4CE7E70023EFE705
:100C0000B41F002054E5001020D500102B02000076
:100C100038D500102CD400102E02000044D500104E
:100C200033020000000011500986002005860020D4
:100C30000020704770B582B00D00002304E0D45C42
:100C40002448C4540133DBB2072BF8D90020FFF746
:100C5000C5FC041E28D0837E002B2DD1038B0022DF
:100C6000019200922900FFF741FE2678002E29D03C
:100C70000823A382073BA376174B1D600020FFF7D4
:100C800013FE0400280000F0EBFC844220D0134A3D
:100C9000012311009943104BD9640C210339FDD273
:100CA000DA64300002B070BD9A220D490D489200FE
:100CB00006F0DAFD0026F4E70B4B094A0B480C4915
:100CC00006F00AFC0B4B064A08480B4906F004FCE8
:100CD0000A4ADDE700001050000011504386002052
:100CE00044E5001020D5001038D500102CD4001099
:100CF0006B02000050D500106F0200000386002038
:100D000004E00A780270013101301A00531E002AF3
:100D1000F7D17047F8B504000F00838A028B1E1CC0
:100D2000934200D9161CB6B29B1BA3828022D2002C
:100D30003243E378002B13D08025AD011543012207
:100D40005340E3706378002B0CD0A38A002B02D1B0
:100D50008023DB011D43002F00D02D042800F8BDA7
:100D60000025EBE7E068BB01C01821693200FFF7FE
:100D7000C7FF23699B19236180231B021D43E4E7FE
:100D800070B5040083681B68002900D01B0C9D050A
:100D9000AD0D6278002A11D11B0409D4E38A5B19D6
:100DA000E382238BAB4201D90023A382280070BDCC
:100DB0000D4B0E4A0E48E82106F08EFB1B040DD5A4
:100DC0002069E368890159182A00FFF799FFE38A2F
:100DD0005B19E38223695B192361E2E7054B034A50
:100DE0000348EE2106F078FB60D5001024E60010E1
:100DF00080D50010B8D5001010B5040083681B68BA
:100E00000021FFF7BDFF63681B685B0002D5238BE1
:100E1000834200D010BD01212000FFF7B1FFF9E7A8
:100E200010B580235B040A4A13600A4A13600A4B18
:100E30001A6880235B049343F9D180225201002178
:100E4000064805F0F7F9064B09225A6710BDC0465F
:100E500000E0004000F0004008C0004000001050DA
:100E600000001150002383768382C38203617047A0
:100E700010B5002902D083681B681940002A10D0E1
:100E8000114352050DD5826813685B050CD4084BDD
:100E90000B401360074B1B6C9B0702D40C23033BD6
:100EA000FDD28368196010BD81780348FFF7A8FA66
:100EB000FFFBFFFF00001150D8D5001070B50400F3
:100EC00043681E680021FFF725FF80256D0105435B
:100ED000164B1B6C9B0715D5A3785B0617D1002317
:100EE000A28A002A01D0002B15D0114B1E4080236E
:100EF0009B053343626813602A0000212000FFF73E
:100F0000B7FF70BDA378DB0903D10133E8E7012304
:100F1000E6E70023E4E701212000FFF7FBFE05439D
:100F2000044A3240A023DB051343E3E700001150DD
:100F3000FFFFFFAFFFFFFFDF70B504000D001600DD
:100F4000837E002B09D1A6820023E3820133A3769E
:100F500025612000FFF7B2FF70BD8178034806F0DD
:100F600083FC2000FFF77EFFEDE7C046F8D50010B8
:100F700070B50400857E002D06D0FFF73DFFA38AE3
:100F8000002B05D1280070BD81780448FFF738FA9E
:100F90002000FFF793FF0025F4E7C04630D600108D
:100FA0000B4B1B78834206D90A4B1B68C200121AEE
:100FB0009200981870479A1C824206DBC01AC30040
:100FC000181A8000044BC018F4E70020F2E7C0466E
:100FD000673200207010002070E700104369C2786B
:100FE0001A707047002802D00521042004E0042173
:100FF000002001E00130C0B281420AD9064B5E22D6
:1010000042439B1810331B79DB07F3D40130C0B285
:1010100000E000207047C046B818002010B504005A
:101020005E22002105F006F9200015300822FF217C
:1010300005F000F920001D302022FF2105F0FAF80C
:1010400010BD0000F0B5D6464F464646C0B582B04A
:1010500005008A4690464A4B1A7801AB1A7049E05F
:10106000043901AB01225A5470E00136F6B2454B07
:101070001B780233B34208DB3000FFF791FF0028F2
:10108000F3D0836920009847EFE721002800FFF79D
:10109000BDFC3D4B5B7D9C4207D03B4B5B789C424B
:1010A00016D03800FFF7BAFF25E0374B1B7D002B29
:1010B000F3D0364B99461868012149420CF05CF98F
:1010C000314B00221A754B4618680CF03DF9E4E7E5
:1010D0002D4BFF225A70E4E70023002B05D101AA13
:1010E000D45C002C34D10133F7E70123002B40D12D
:1010F000002B2FD00024042CEED821005E231F00EB
:101100006743234ABF180134E4B24B439B5CAB42B4
:10111000F1D13B0010331B79DB07ECD55346002B94
:1011200002D07B785345E6D14346002B06D0184BBE
:101130005E224A439B189B784345DCD1042C8FD810
:10114000144B002B02D02000FFF7D5F800268EE7C5
:101150000023CBE701AAD25C002A02D10133DBB223
:10116000C6E701AA0021D1545E1DF2B2924698460C
:10117000C0E702B0E0BCBA46B146A846F0BDC046E2
:10118000B4E1001067320020EC040020981B00201E
:10119000B8180020F7020010F0B589B007000E0063
:1011A00006AD164B2A0003CB03C26C461822002161
:1011B000684605F03FF82770E670114BDA8A019215
:1011C00002959A680392DA6804921A6905921B7D67
:1011D000002B06D1049B002B01D06846984709B02C
:1011E000F0BD084C2068012149420CF0C5F8044BC1
:1011F00000221A7520680CF0A7F8EBE7901A00207F
:10120000EC040020981B002010B5054BFF225A70FB
:101210001879002800D110BD01F0ACFBFBE7C046F7
:10122000EC040020F8B5DE4657464E464546E0B58C
:1012300080460300013BDBB2042B0ED80300013BC8
:101240005E265E43394BF6188A78CB781B0213432F
:101250009A468A440D784D1927E00026F4E7EA788B
:101260009146ED182BE032493248334A06F0FCFA39
:1012700000200CE02E492F48304A06F0F5FA0020F5
:1012800005E02B492B482E4A06F0EEFA0020F0BC70
:10129000BB46B246A946A046F8BD23003A00290045
:1012A00030001D3002F0C2FCED1955453AD22B78C2
:1012B000002B39D06A780B2AD1D0012399466B785C
:1012C000042BD0D153465A1B92B24946280002F053
:1012D000C0FC07000828CDD9002401E00134E4B2A5
:1012E000184B1B780233A342DEDB2000FFF758FEC9
:1012F0000028F3D0C3689B4630783B002A00414663
:10130000D8470028EAD000229145C6D9AB789B186F
:10131000DBB2F118497DFF29B3D1F3185C750132B6
:10132000D2B2F1E70120B2E70120B0E7B8180020FF
:101330000CE7001020D50010230700003C07000038
:101340004A0700006732002070470120704770474D
:10135000002805D10B4B587843425841C0B2704722
:10136000431EDBB2042B09D801385E234343064AEF
:101370009B181B7DDB0703D40020F0E70020EEE77D
:101380000120ECE7EC040020B8180020034B1B7888
:10139000181A42425041C0B27047C046EC040020C7
:1013A000034B1878FF38431E9841C0B27047C046BF
:1013B000EC04002070B506000D00FFF7E7FF041EE7
:1013C0000ED1FFF7EDFF00280CD02D4B1E70290029
:1013D0003000FFF7FBF9041E4BD03000FFF75EFB37
:1013E000200070BD274803F0A7F8274C200003F029
:1013F000A3F8143C200002F0F4FC244B1C60244CA5
:10140000200003F04DF8234B1C60234B002B04D02D
:10141000224800E000BF224B18602248EB22520015
:10142000002104F007FF164C1C220021200004F0CC
:1014300001FFFF2323706370002407E05E206043F8
:10144000184BC018FFF7EAFD0134E4B2042CF5D9BB
:10145000002401E00134E4B2104B1B780233A342B4
:10146000B3DB2000FFF79CFD0028F3D043689847CA
:10147000F0E70D490D480E4A06F0F6F9B0E7C04610
:10148000EC040020681C00201C050020A41B002088
:101490009C1B0020981B00200000000067320020E9
:1014A00070100020B818002060E7001020D5001050
:1014B0000102000010B5FFF773FF002800D110BD36
:1014C000034B186802F01EFC01235840C0B2F6E737
:1014D000A41B002000487047981A002010B5431E36
:1014E000DBB2042B07D8431E5E2058430C4BC018B8
:1014F000037DDB0706D40B490B480C4A06F0B4F910
:10150000002010BD7F220A40CB090949096852001A
:10151000D3183833C018053002F0CCFAF1E7C046D2
:10152000B8180020C4E6001020D50010C903000040
:10153000981B002010B5431EDBB2042B17D80138CE
:101540005E2343430B4A9B181A7DD207D00F002A13
:1015500000D110BD7F220A40C8090749096852001E
:10156000121838329818053002F0CCFAF1E7002052
:10157000EFE7C046B8180020981B0020F0B5C6461B
:1015800000B584B002920393441EE4B2042C41D807
:10159000451E5E246C43204D64197F260E40CF0902
:1015A00075006519ED1938356D79ED071BD4750097
:1015B0006519ED1938356B799C46012398466346C9
:1015C000424613436B712578039B0093029B0A00EC
:1015D00001002800FFF7A4FA051E0BD0280004B074
:1015E00080BCB846F0BD0D490D480E4A06F03CF9E6
:1015F0000025F3E77600A419E41938346379012251
:10160000934363716379033293436371064806F031
:10161000FBF8E3E70025E1E7B8180020A4E6001096
:1016200020D50010F303000058D6001010B50300B9
:1016300008005A1ED2B2042A09D8013B5E214B434E
:1016400005495918042204F0FBFD012010BD03498F
:10165000042204F0F5FDF8E7B8180020EF0400209C
:1016600010B582B001AC2100FFF7E0FFE07802B0D6
:1016700010BD10B582B001AC2100FFF7D7FF207874
:1016800002B010BD70B582B005000E006C46072296
:101690000021684604F0CEFD07232370023B6370EF
:1016A000A6802800FFF7E5FF6A462900FFF70CFA3D
:1016B00002B070BDF8B5CE46474680B505000C00B7
:1016C0007F231F000F40CA0990460B4217D0431ECC
:1016D000DBB2042B53D8431E5E265E43294BF6181B
:1016E0007B00F318434438335B79DB07DA0F91460C
:1016F000002B2BD14846C0BCB946B046F8BDFFF719
:10170000B8FF214B5B7DAB4236D11F4B1B7D002BBD
:1017100002D100239946EDE722002900FFF788FA5D
:10172000194B1B7D002B02D101239946E2E7174C90
:101730002068012149420BF01FFE134B00221A754D
:1017400020680BF001FE01239946D3E730780A00A8
:101750002900FFF76DFA7F00F319434438335A79B3
:1017600001218A435A71094B196847443837F019E7
:10177000053002F0C7F9BDE700239946BAE7002318
:101780009946B7E7B8180020EC040020981B002009
:10179000F0B585B0050014001E00FFF76AFF0700D2
:1017A000012C0DD0022C03D0002C4AD0002404E0E0
:1017B00021002800FFF7F0FC0124200005B0F0BD57
:1017C0002800FFF7C5FD002803D0644B1B7E022BC9
:1017D00005D921002800FFF7DFFC0124EDE7604C6C
:1017E0002068012149420BF0C7FD5C4B01221A75AC
:1017F0001A7E01321A760022DA8220680BF0A4FDEC
:101800002800FFF736FF574A2900FFF713FA041E96
:10181000D3D1524B1B7D002B06D1CC2252495348C9
:10182000920006F021F8C8E74D4D28680121494291
:101830000BF0A2FD494B00221A7528680BF084FDBD
:10184000EBE7464B1B7DDAB2022B34D0032A5DD086
:10185000012A00D080E0434BDB88002B2BD03F4B8C
:101860001B7D022B18D13F4B1B78DB0921D0802236
:1018700052423C4BD988394B9B68D2B20091290027
:101880003800FFF74DF9041E00D096E73649374877
:10189000374A05F0E9FF90E7314C206801214942C1
:1018A0000BF06AFD2D4B02221A7520680BF04CFDDF
:1018B000D9E70022DDE7B6B2284BDE821B7D032B81
:1018C00015D1284B1B78DB091ED180225242D2B29F
:1018D0000023009329003800FFF722F9041E00D0EE
:1018E0006BE721492148234A05F0BEFF65E71C4C00
:1018F0002068012149420BF03FFD184B03221A7565
:1019000020680BF021FDDCE70022E0E7154B5B7857
:10191000092B05D021002800FFF73EFC01244CE7ED
:10192000104B1B780393002BF4D1012710E000210A
:101930003943C9B22800FFF7BDFE0136F6B2012EC9
:1019400004D8002EF3D080214942F1E70137FFB2DD
:101950000F2FDFD8039EF2E700242EE7EC040020CF
:10196000981B0020901A0020E8E6001020D50010F7
:101970003F0300004E03000070B505000E00FFF7A6
:101980006FFE01000122300002F0D8F8041E09D0D9
:101990002800FFF76EFE32002900FFF795F80400DB
:1019A000200070BD02490348034A05F05DFFF7E7D8
:1019B00094E6001020D500101A04000070B5050050
:1019C0000C00431EDBB2042B07D8431E5E265E4389
:1019D000114BF6180134E4B203E00026FAE70134B3
:1019E000E4B2072C09D83319587DFFF7D9FA00283B
:1019F000F5D00369210028009847082C00D070BD5D
:101A0000FFF702FC042DFAD8044B002BF7D0280076
:101A1000FEF770FCF3E7C046B8180020F50200108E
:101A200070B586B00400C378012B16D0C64B0022D7
:101A30001A7006784069731EDBB2042B25D8731E1A
:101A40005E255D43C14BED18002D22D0132800D92F
:101A5000A5E28300BE4AD3589F46BB4A13780133A0
:101A6000DBB21370BB4A5278FF2A01D0022B03D994
:101A7000FFF7CAFB06B070BD6420FEF79BFC200098
:101A800000F01AFC0028F5D1F2E7002E07D000255F
:101A9000DAE7B149B148B24A05F0E6FEEAE70025C7
:101AA000D4E705ACAB4B59791879220000F0ECFE75
:101AB0002378DB0710D5A74B18795979A94B022257
:101AC0000092023200F026FE0028D3D1A249A3489A
:101AD000A54A05F0C9FECDE7FFF796FBCAE714203B
:101AE000FEF768FC9F4B9B4A5179107903220092C4
:101AF000002200F077FE0028BCD1974997489B4A06
:101B000005F0B2FEB6E705AC924B59791879220080
:101B100000F0BAFEA378DB06ACD58E4B1879597964
:101B2000904B04220092103200F0B8FD0028A1D1A1
:101B300089498A488E4A05F097FE9BE705AC854B9C
:101B400059791879220000F09FFE2378DB0722D50F
:101B500005AB5B785A0721D45B08012213407D4A0C
:101B600093710A20FEF726FC08210020FFF78AFD6A
:101B7000002815D07B4B7F490622009202320020BC
:101B800000F086FC002800D074E7734973487A4A55
:101B900005F06AFE6EE7FFF737FB6BE70223DEE72F
:101BA0006D496E48754A05F05FFE63E7694B5A79E7
:101BB0001979D878FFF746FA714B187B09384342F8
:101BC0005841C0B2FFF70EFA051E23D0431EDBB208
:101BD000042B25D8431E5E245C435C4BE418694902
:101BE0000422200004F02CFB237D012213432375E3
:101BF000634BDB7B63725B4A07232900002000F004
:101C0000C7FC002800D035E7534954485E4A05F028
:101C10002BFE2FE7504951485C4A05F025FE29E785
:101C20000024DCE70220FEF7C5FBA3689D786B1E4D
:101C3000DBB2042B2CD86A1E5E235343434E9E19FD
:101C4000337D022213433375424C6570E0780021E6
:101C5000FEF7DCFE637D002B20D03E4B5B78002B33
:101C60002DD0717A2800FFF70DFD00282BD03D4BB9
:101C70004049082200920A32280000F009FC00289E
:101C800000D0F7E634493548414A05F0EDFDF1E66C
:101C9000314932483F4A05F0E7FDEBE62D4B1B7D0D
:101CA000002BDAD03C4C2068012149420BF064FB48
:101CB000284B00221A7520680BF046FBCDE7254B18
:101CC000FF225A70CDE7C82223492448D20005F0EC
:101CD000CBFDCFE62A4C6289AA80227BAA71627B67
:101CE000EA71A27B2A72E27B6A72228A6A81628A24
:101CF000AA81A28AEA81A27D2A74E27D6A74227E88
:101D0000AA74627EEA74083421003000FFF71CFBDD
:101D100009230293134B0193022300932300002213
:101D20000021300000F0D4FBA4E6E3681A78114BE0
:101D30000A2102910B4901910092002200213000FA
:101D400000F0C6FB96E6C0466A320020B8180020B4
:101D500034E60010EC0400202CE7001020D5001021
:101D6000D9050000211A0010E9050000F105000066
:101D7000FB050000981A00201E0600001A0600004D
:101D8000901A0020EF040020310600002A0600000F
:101D9000430600003A060000981B0020814B1B7A86
:101DA000032B0FD97F4B5A89297C00290DD07E4BFC
:101DB0000B2002907D48019002200090300000F03E
:101DC00087FB57E67A4AEFE7794A297C00290FD149
:101DD000697C002926D00C281DD0734B0D20029061
:101DE0007248019002200090300000F071FB41E643
:101DF000A36818795A7912020243E36818786A4B8B
:101E00000C240294694C01940090300000F060FBB7
:101E100030E6674ADCE7A36818795A791202024370
:101E2000DBE7634A697C00290FD1A97C002925D012
:101E30000E281DD05C4B0F2002905C4801900220C0
:101E40000090300000F044FB14E6A36818795A793A
:101E500012020243E3681878534B0E240294534C49
:101E600001940090300000F033FB03E6504ADCE7B9
:101E7000A36818795A7912020243DBE7A97C00298A
:101E800012D1494A11230193484B009309230021A1
:101E9000300000F00FFB002800D0EBE54549464834
:101EA000464A05F0E1FCE5E5A36818795A79120283
:101EB0000243E36818783C4B102402943B4C019495
:101EC0000090300000F004FBD4E5364B5B898022A3
:101ED0005200934212D8A2681179334A122001901D
:101EE00032480090300000F0E5FA002800D0C1E54B
:101EF00030493148324A05F0B7FCBBE52D492E4840
:101F0000304A05F0B1FCB5E5A3681C79264A2100EA
:101F10003000FFF71AFA002816D10134E1B2EB7C49
:101F20008B4221D9204A11230193204B009309238E
:101F3000300000F0BFFA002800D09BE51D491E4884
:101F4000214A05F091FC95E5184A0134E1B21323CA
:101F5000300000F059FB002800D08BE515491648E9
:101F60001A4A05F081FC85E512491348184A05F024
:101F70007BFC7FE52B7D042213432B750A4930003F
:101F8000FFF750F9002804D0FF213000FFF716FDBD
:101F900070E5084908480F4A05F066FC6AE5FFF756
:101FA00033F967E5901A0020981A0020211A0010D2
:101FB000090400002CE7001020D50010B506000031
:101FC000C6060000C1060000D3060000CE060000D1
:101FD000D1060000DF06000030B589B003782A4C36
:101FE000E37003792371437963719620FEF7E2F978
:101FF0002079002806D1244B9A78DC780121A14071
:102000008A439A70002807D01F4B597900292DD197
:102010000024200009B030BD1B4BD878FEF722FC0D
:1020200000281CD0184CE078FEF708FC3220FEF7A0
:10203000C1F9E078FEF714FCE078FEF713FC041E0B
:1020400011D0114DE878FEF72FFCA87102A80023EB
:102050000370C37005334361FFF7E2FCD9E7FFF774
:10206000D3F80124D5E7FFF7CFF8FAE7074B0122B1
:102070000092002200F0B6FB041ECAD104490548B4
:10208000054A05F0F1FBC4E7EC040020211A00101A
:1020900040E7001020D50010B2050000F0B5C6469C
:1020A00000B584B08846FFF77BF900285BD104B007
:1020B00080BCB846F0BD032B55D1029B002B52D0FB
:1020C000039898474FE0734B5B78FF2B06D1714B19
:1020D00000225A7001A8FFF77FFF44E06E4C206891
:1020E00001F010FE060024686269EFF3108172B6F9
:1020F0001368002BFCD0BFF35F8FA16101A9200002
:1021000001F03DFE6269A369BFF35F8F002111609A
:1021100083F31088002808D001AB1878597842461C
:10212000FFF715F9002E1ED0C1E79D225B495C48E0
:10213000520005F099FBF5E7564B1B7D002B4FD065
:10214000584C2068012149420BF016F9514B0022EE
:102150001A7520680BF0F8F842E001AB5A7919794A
:102160001878FEF76FFF4C4B1C686069EFF3108224
:1021700072B60368002BFCD0BFF35F8FA26101A988
:10218000200001F0DBFD6269A369BFF35F8F0021CE
:10219000116083F31088002800D188E701AB5B78D9
:1021A000022B25D000D986E7002B00D18BE7012B2D
:1021B000D9D1384B5B78002BCFD101AB1B78354A96
:1021C000D0788342C9D1130001AA92889B889A4291
:1021D000C3D10021FEF71AFC2E4B5B7D002BABD048
:1021E0002C4B5B78002BBED12A4BFF225A70BAE7EA
:1021F00001AA14797F232340E0099678002E0FD19D
:10220000002B07D101AB5A79039B21003000FFF767
:10221000BFFAA8E724492248244A05F025FB46E7EF
:10222000721ED2B2042A00D941E7721E5E215143C8
:102230001F4A89180A7DD20700D438E75A008A1845
:102240001218383257790125AF4357715779033542
:10225000AF435771002B0FD05B00C9180918487F96
:10226000FEF79EFE00280FD0476901AB5A79039B09
:1022700021003000B84776E701AB5A79039B210073
:102280003000FFF785FA6EE707490548094A05F06F
:10229000EBFA0CE7EC040020A41B002000E7001080
:1022A00020D50010981B002050E700107B02000092
:1022B000B8180020A302000070B582B00400437873
:1022C000002B00D0A0E08368002B00D1A0E00678AE
:1022D0003000FFF73DF8051E00D196E04E4B1B7D08
:1022E000002B01D0002590E04C4B18680121494299
:1022F0000BF042F8484B1B7DDDB2002B11D1464B51
:1023000001221A755E750022DA821A76E2689A60F6
:102310002269DA6062691A61A1684148082203F003
:102320008FFF3E4B18680BF00FF8002D00D071E0C6
:102330002369002B1FD03000FFF79BF9384A31008A
:10234000FEF778FC051E60D1334B1B7D002B05D1B9
:1023500034493548354A05F087FA56E02F4C206855
:10236000012149420BF008F82B4B00221A75206816
:102370000AF0EAFFECE76B46DA1D04231370264BE4
:102380001A612B4ADA603000FFF773F9244A3100F2
:10239000FEF750FC051E03D11F4B1B7D002B10D1F7
:1023A000002D1BD06B4607331B78042B1DD1FFF784
:1023B00081F80028F6D0012000214042FFF76EFE90
:1023C000F0E7164E3068012149420AF0D5FF124B62
:1023D00000221A7530680AF0B7FFE1E7BB22114905
:1023E0001148920005F040FA0FE06369002B03D01A
:1023F0006A46073212781A706B4607331B78E3700F
:10240000054BDB8A636000E00025280002B070BD48
:102410000025FAE70025F8E7EC040020981B0020CF
:10242000901A0020D4E6001020D50010E20200002F
:10243000DD0F0010F0B589B007001E000EAB188844
:102440006C4623781F25AB432370DBB24135AB4389
:102450002370DDB280235B422B432370062363701D
:102460000902114361800023A380E08002AD18229D
:102470000021280003F0DEFE2F70049405960F9BC8
:102480000693109B07932800FFF716FF09B0F0BDD5
:1024900010B584B0141C122A00D91224A4B2069AD2
:1024A0000292019300940B0000220121FFF7C2FF6A
:1024B00004B010BD10B584B0079C0294069C019432
:1024C000009313000A000221FFF7B4FF04B010BD0F
:1024D000F0B589B007001E000EAB18886C46237853
:1024E0001F25AB432370DBB24135AB432370DDB214
:1024F00080235B422B43237006236370C0239B0021
:102500000B436380A280E08002AD182200212800E6
:1025100003F090FE2F70049405960F9B0693109B7A
:1025200007932800FFF7C8FE09B0F0BDF0B589B0E9
:1025300006009C460EAB80CB1B8806AC25781F207E
:102540008543012005432570E8B26025A84320702B
:10255000C5B28020404228432070062060701202DD
:10256000604602436280A180E3806D46182200210C
:10257000684603F05FFE2E7002940397109B04934D
:10258000119B05936846FFF797FE09B0F0BD000068
:10259000F0B5C64600B588B0804617001E0006ACF0
:1025A00023781F2293432370DBB24132934323707D
:1025B000DAB27F2313402370052363706180002308
:1025C000A380E3806D4618220021684603F032FEA6
:1025D00043462B700294049705966846FFF76CFEFD
:1025E000041E04D0200008B080BCB846F0BD0349EA
:1025F0000348044A05F038F9F4E7C04684E60010C1
:1026000020D50010D5040000F0B5C64600B588B04E
:10261000804617001E0006AC23781F2293432370C8
:10262000DBB2413293432370DAB27F23134023702D
:102630000923637061800023A380E3806D46182224
:102640000021684603F0F6FD43462B700294049780
:1026500005966846FFF730FE08B080BCB846F0BD6E
:1026600010B50400C378002B09D10278053AC1687F
:10267000084BD20098180430042203F0E1FD064A0A
:102680001368236100211160002B01D020009847BE
:1026900010BDC046EC2D002060320020F0B589B09E
:1026A00007001E00002929D1002306AC25781F2031
:1026B00085431D432570EDB260239D4320231D43B8
:1026C0002570E8B27F23034023700123637062808A
:1026D000A1800023E3806D4618220021684603F0A4
:1026E000A9FD2F70029404960E9B05936846FFF790
:1026F000E3FD041E04D0200009B0F0BD0323D4E79D
:1027000002490348772205F0AFF8F4E74CE80010DF
:1027100020D50010F0B589B007001E00002929D18E
:10272000002306AC25781F2085431D432570EDB29C
:1027300060239D4320231D432570E8B27F2303407F
:102740002370032363706280A1800023E3806D46C1
:1027500018220021684603F06DFD2F700294049644
:102760000E9B05936846FFF7A7FD041E04D02000CA
:1027700009B0F0BD0323D4E702490348932205F0D2
:1027800073F8F4E734E8001020D5001010B582B0DB
:10279000C378002B14D10078411F0A010C4BD218CA
:1027A00094790C4BC9005B189C70527ADA700A4B12
:1027B0000022009208320121FFF7ACFF02B010BDE9
:1027C000322206490648FF3205F04EF8F6E7C046C9
:1027D000DC2D0020EC2D0020CD29001000E8001099
:1027E00020D50010F0B5CE46474680B589B005002B
:1027F0000F1E914698463AD1002206AC23781F213D
:102800008B4313432370DBB2602293432022134394
:102810002370DAB280235B4213432370002363707A
:102820006380A7800433E3806E4618220021684647
:1028300003F000FD357002944B4603934346049326
:10284000109B0593002F14D0053D0C4A04922D01D6
:102850000B4AAD18043503950A4B42461A60684688
:10286000FFF72AFD09B0C0BCB946B046F0BD03224F
:10287000C3E7044B00221A60F1E7C046612600104E
:10288000DC2D00206032002010B501001000053959
:10289000044BC90059180431042203F0D1FC012073
:1028A00010BDC046EC2D002010B5034808220021C1
:1028B00003F0C0FC012010BDEC2D0020012070476A
:1028C000F8B50D0014005279092A34D1A279002AF2
:1028D00034D1E279012A33D80F2B10D92778E719A0
:1028E0007B78052B04D1FA78023B1340032B0DD0E3
:1028F00014491548E92204F0B7FF00261CE01149ED
:102900001148E52204F0B0FF002615E03900280048
:10291000FFF732F8061E08D0053DA2780B4BED00FC
:10292000EA54BA785B195A7006E006490648EB2269
:1029300004F09AFF00E000263000F8BD0026FBE717
:102940000026F9E728E8001020D50010EC2D002023
:1029500010B5042806D90538C000054BC0184378C7
:10296000002B00D110BD0822002103F063FCF9E721
:10297000EC2D002070B582B00500461F114BF2000F
:102980009B185978FEF7AAFD041E02D1200002B060
:1029900070BD0C4BF2009B18597832010A4BD218CB
:1029A00000230193009301332800FEF7E7FD041E86
:1029B000ECD1044BF6009B1959782800FEF7BAFDBC
:1029C000E4E7C046EC2D0020DC2D002030B583B0BC
:1029D000C378002B18D10478651F83681A79597958
:1029E00009021143154BEA009B189B78994212D0BB
:1029F000C9B20131C9B2124B002200920832200044
:102A0000FFF788FE03B030BDA2220E490E485200E7
:102A100004F02AFFF6E72000FFF7ACFF002806D0FD
:102A2000064BED00E95C2000FEF7C8FFEAE74E2206
:102A300004490548FF3204F017FFF1E7EC2D0020B0
:102A4000CD290010E4E7001020D50010F0B587B0C4
:102A50000478C378002B1ED183681F79651F4369F2
:102A6000022B2DD0032B66D0012B00D080E0C16853
:102A700003AD0422280003F0E3FBAB78DA0716D499
:102A80009B0775D5414B04220092033A0021200098
:102A9000FFF704FE6AE02000FFF76CFF00286CD10E
:102AA00092223B493B48FF3204F0DEFE65E0374BA3
:102AB00004220092002200212000FFF7EFFD55E0E4
:102AC000354BED005B199B79DA0710D49A0717D4C0
:102AD0005A071ED41A0725D4DB0649D52B4B0422EE
:102AE0000092103239002000FFF7D8FD3EE0274B5E
:102AF000032200920D3239002000FFF7CFFD35E0B0
:102B0000224B042200920D3239002000FFF7C6FD4F
:102B10002CE01E4B042200920E3239002000FFF7F9
:102B2000BDFD23E0194B042200920F323900200032
:102B3000FFF7B4FD1AE003AE0C220021300003F0D1
:102B400079FB2000FEF795FD3070134BED005B190B
:102B50001A79012393437370347177710021300027
:102B60000AF01AFC707843425841C0B2002804D1E0
:102B70002000FFF7FFFE002801D007B0F0BDED22D6
:102B800003490448520004F06FFEF6E74D2A001096
:102B9000C4E7001020D50010EC2D0020F0B589B05E
:102BA0000500441F174BE200D35C8B4209D014226E
:102BB00015491648FF3204F057FE0024200009B0E2
:102BC000F0BD06AF124B3A0003CB03C26E4618228B
:102BD0000021684603F02EFB3570029724010D4B4F
:102BE000E418043403940C4B04936846FFF764FB29
:102BF000041EE3D1962204490448520004F034FE36
:102C0000DCE7C046EC2D002018E8001020D50010AD
:102C100064E80010DC2D00208D27001070B582B014
:102C20000500002A24D1421F1D4B1101CE5C002E4D
:102C30001ED001231C00344033420DD10121194B19
:102C4000D0001B189B788B4210D33300CB40DB079E
:102C500016D40131C9B2F2E7114BCA180432124B33
:102C6000012100910021FFF7BDFD0400002C04D1DB
:102C70002800FFF77FFE041E0BD0200002B070BDBD
:102C8000094B0222009200222800FFF7ABFD04004E
:102C9000ECE7882205490648FF3204F0E5FDECE741
:102CA000DC2D0020EC2D00204D2A0010D8E700106C
:102CB00020D5001010B50400002001E00130C0B2A2
:102CC0000B2817D80C4AC3001B1A5B009B5CA3425D
:102CD000F4D11300C200121A52009B189B788B4249
:102CE00009D0054BC200121A52009B18DB788B42A8
:102CF000E4D100E0FF2010BD7C16002000230B2B48
:102D00000BD80749DA00D21A5000425C002A02D0E0
:102D10000133DBB2F3E7401800E000207047C04603
:102D20007C160020F0B589B007001E0006AC25789F
:102D30001F239D4301231D432570EDB260239D4356
:102D400020231D432570E8B27F23034023700B230B
:102D500063706280A1800023E3806D461822002109
:102D6000684603F067FA2F70029404960E9B059351
:102D70006846FFF7A1FA09B0F0BDF0B589B00700C9
:102D80001E0006AC25781F239D4301231D4325709B
:102D9000EDB260239D4320231D432570E8B27F23BD
:102DA000034023700A2363706280A1800023E380C4
:102DB0006D4618220021684603F03CFA2F700294F9
:102DC00004960E9B05936846FFF776FA09B0F0BDAE
:102DD00070B5041E18D00B2916D8C800451A6D000E
:102DE0000C4EAD19401A4000805D84420BD1012089
:102DF00028710948002802D0200000E000BF69784F
:102E00002000FEF7DBFD70BD044905484D2204F0AB
:102E10002BFDF8E77C160020000000008CE8001075
:102E200020D5001010B50400002001E00130C0B230
:102E30000B280FD8084AC3001B1A5B009B5CA342F7
:102E4000F4D11300C200121A52009B185B788B4217
:102E5000ECD100E0FF2010BD7C160020F0B5CE467E
:102E6000474680B585B00400826853780A3BDBB2E0
:102E7000012B02D9C378002B29D1636998461379B5
:102E80009946267819003000FFF7CCFF0500002E88
:102E900024D00B2822D8C3001F1A7F00314ABF1844
:102EA0001B1A5B009B5C9E421DD14346022B3CD00B
:102EB0001ED8002B2BD0012B15D12B4B2B4A12786F
:102EC0007978022000903000FFF72CFF0BE08E2273
:102ED00027492848920004F0C7FC04E02649254809
:102EE0004D2204F0C1FC05B0C0BCB946B046F0BDEF
:102EF000032BF8D1FEF7EEFA0200A3689979DB798B
:102F00001B020B4329003000FFF762FFEBE77B79E0
:102F1000002B08D00122144B0092002249463000B9
:102F2000FFF72BFFDFE70222F5E73A8980235B00FA
:102F30009A4206D90023002201003000FFF748FF23
:102F4000D1E7FC79FEF7C6FA03230393064B0293FD
:102F50003B89019300900023220049463000FFF78F
:102F6000E5FAC0E77C1600205D2E001068320020D4
:102F70006CE8001020D500108CE8001010B5034854
:102F8000A822002103F056F9012010BD7C16002074
:102F90000120704770B504001D00CE09FFF78AFEBE
:102FA0000100002C17D00B2815D8144AC3001B1A97
:102FB0005B009B5CA34213D1012E13D0104B002B5E
:102FC00019D0C20140320F4BD218ABB2200000E042
:102FD00000BF012005E00C490C484D2204F044FCE0
:102FE000002070BDC201074BD218ABB22000FDF724
:102FF000E5F90120F5E70120F3E7C0467C16002043
:10300000000000007C1000208CE8001020D500108B
:1030100070B50600002406E00E220021280003F00F
:1030200009F90134E4B20B2C0FD8E3001A1B52004B
:1030300006495518535CB342F3D1054B002BEBD036
:103040002100300000E000BFE6E770BD7C160020E4
:1030500000000000F0B5D6464F464646C0B588464B
:1030600015005279032A00D082E02979CA00521A49
:1030700092B2123292B29A4211D82B789946A94450
:103080004B465B78212B13D1FFF738FE071E18D073
:10309000434603704B461C784C44002635E0F3222F
:1030A00037493848520004F0DFFB00239A4661E0BC
:1030B000F62233493348520004F0D6FB00239A46E7
:1030C00058E0F0222E492F48FF3204F0CDFB0023B8
:1030D0009A464FE0F8222A492A48FF3204F0C4FBFE
:1030E00000239A4646E0FC2225492648520004F077
:1030F000BBFB3FE0BB70227963791B0213435B0586
:103100005B0D7B812378E41801362B79B34216DD01
:103110006378052BDED121004046FEF72DFC824668
:103120000028E0D0A378DA09012AE3D0FB702279E5
:1031300063791B0213435B055B0DBB81E2E7AB7850
:103140007B704B469B79FB714B46DA791B7A1B02ED
:1031500013433B810C4B1B78BB71AB79012B02D025
:1031600001239A4606E0EB797B7101239A4601E040
:1031700000239A465046E0BCBA46B146A846F0BD88
:1031800080E8001020D500106832002010B588B00B
:1031900006ACA1806B4618700022DA70029405928A
:1031A0006846FFF75BFE012008B010BDF8B50400CB
:1031B0000E684B681B7B002B28D1451EFEF78AF951
:1031C00007683FBA737B0137144A0233DB003421AE
:1031D00069435B18D3189F60737B406800BA023361
:1031E000DB005B18D31858605218012353710C4B45
:1031F000002B02D0200008F031FD084B34226A4336
:10320000D15C2000FEF7DAFB0120F8BDEA22054977
:103210000548FF3204F028FB0020F6E7E417002001
:103220005DBC001098E8001020D50010421E044B31
:103230000231C9003420504308181B1898687047A1
:10324000E4170020421E044B0231C90034205043D1
:1032500008181B1858687047E4170020421E034BDB
:10326000342050431B185879C0B27047E41700202F
:10327000F0B585B00700029116000393451E1E4C61
:1032800034236B43E4182379DCB2002B02D12000F5
:1032900005B0F0BD184B34226A439B189978FEF7AD
:1032A0001DF9041EF3D0154C6B005B191B01E418CB
:1032B0001F220299200002F0C3FF0F4B34226A4301
:1032C0009B189E60039ADA600A9A1A6101229A7129
:1032D00099780023019300931F3322003800FEF7F2
:1032E0004DF9041ED3D1044B34226A439B189978BC
:1032F0003800FEF71FF9CAE7E41700202417002062
:10330000F0B58DB005000F0003921E00421E134C55
:1033100034235343E4182379D8B2002B01D10DB0E4
:10332000F0BD04AC1F220021200002F083FF0C4BF3
:1033300004930C4B05936773082306937833237328
:10334000763BA3731B33E373129B00933300039A02
:1033500021002800FFF78CFFE1E7C046E4170020BA
:103360005553424342535554F0B58FB005000F00FA
:1033700002920393421E1A4C34235343E418637998
:10338000D8B2002B01D10FB0F0BD06AC1F22002136
:10339000200002F04FFF134B0693134B0793677304
:1033A00024260896802323737A3BA37304AF062256
:1033B0000021380002F03EFF12233B703E710622CE
:1033C00039001F2002AB9C46604402F039FF14997B
:1033D0000091039B029A21002800FFF749FFD2E7E2
:1033E000E41700205553424342535554F0B58DB075
:1033F00007000D0003921E00421E104C342353435D
:10340000E4182379D8B2002B01D10DB0F0BD04AC83
:103410001F220021200002F00DFF094B0493094BED
:10342000059365730623A37325740096039B0022FE
:1034300021003800FFF71CFFE7E7C046E417002033
:10344000555342434253555470B50478651EC378B2
:10345000002B0CD00B4B34226A439B180122DA70EC
:10346000094A002300212000FFF7C0FF70BDFEF7CE
:1034700031F802780132034B342169435B18DA706A
:10348000EEE7C046E41700204935001010B50A6881
:103490004B681B7B002B08D1517B0B4A0023FFF7A5
:1034A000A5FF041E09D0200010BDE22207490848EC
:1034B000FF3204F0D9F90024F5E7F122034904486A
:1034C000520004F0D1F9EEE749350010B8E80010D9
:1034D00020D50010F0B5CE46474680B58DB0814668
:1034E0000D001700984604AC1F220021200002F0B6
:1034F000A1FE134B0493134B059365731226069696
:10350000802323737A3BA37302AD06220021280097
:1035100002F090FE03232B702E71062229001F203B
:10352000684402F08DFE149B009343463A0021004C
:103530004846FFF79DFE0DB0C0BCB946B046F0BD91
:10354000555342434253555470B582B004000D6840
:103550004E68FDF7BFFF0200337B002B0AD1697B69
:103560000C4B002000902000FFF7CAFE0124200031
:1035700002B070BD697B084B002000902000FFF76F
:10358000A9FF041EF3D1D82204490548FF3204F0F4
:103590006BF9ECE7AD3100108D340010D8E8001065
:1035A00020D50010F0B5C64600B590B007000C005D
:1035B0000292039316AB19888846451E2949342385
:1035C0006B43C9184B79D8B2002B03D110B080BC23
:1035D000B846F0BD08AE1F220021300002F02AFEDE
:1035E000214B0893214B099374731E4B0234E40062
:1035F00034226A43A4181B195B6841464B430A9363
:1036000080233373763BB37305AC0A22002120007C
:1036100002F010FE28232370039B1DBA0E2302AA7A
:10362000944663441A002B041B0C13802D0C558008
:1036300043465BBA9AB213206044FF210B400370EB
:10364000120A42700A2221002720604402F0F8FD8D
:10365000189B0093179B029A31003800FFF708FE71
:10366000B4E7C046E4170020555342434253555433
:10367000F0B5C64600B590B007000C000292039367
:1036800016AB19888846451E284934236B43C91850
:103690004B79D8B2002B03D110B080BCB846F0BD36
:1036A00008AE1F220021300002F0C4FD204B089319
:1036B000204B099374731D4B0234E40034226A4397
:1036C000A4181B195B6841464B430A930A23B37342
:1036D00005AC0A220021200002F0ACFD2A23237051
:1036E000039B1DBA0E2302AA944663441A002B04BE
:1036F0001B0C13802D0C558043465BBA9AB21320E5
:103700006044FF210B400370120A42700A2221001C
:103710002720604402F094FD189B0093179B029AA7
:1037200031003800FFF7A4FDB6E7C046E4170020DB
:10373000555342434253555410B50348D0220021FB
:1037400002F078FD012010BDE41700200120704731
:1037500010B5042814D8421E34235343094C1C19B5
:103760002379002B0CD06379002B04D0064B002B5F
:1037700001D008F089FA34220021200002F05AFD1D
:1037800010BDC046E417002089BC0010F0B589B018
:103790000392461E7400A7193F01444ABF18A4199A
:1037A00024012034A218424C342575436419A479AD
:1037B000022C48D0032C5CD0012C71D13C4C6419F4
:1037C000A4788C4204D10399002901D11F2B07D082
:1037D000A22238493848520004F046F8002460E03C
:1037E000324B7100891909015B189B68002B2AD0A4
:1037F0002F493425754349198F68002F23D02C4A4F
:1038000052190221917129497500AD192D014919EB
:103810000C228A56002A10DB9BB2002201920092F1
:103820003A002100FDF7AAFE041E3AD14A2221499E
:103830002148FF3204F018F833E01D4A3421714367
:1038400052185478E8E71A4B342171435B1803216E
:10385000997159780023019300930D33FDF78EFE83
:10386000041E1ED1A92213491348520003F0FCFF85
:1038700017E00F4B342171435B1800219971DC680C
:10388000002C11D004A904974A60094B34227243DA
:103890009B189A688A601B69CB60A047012400E0EE
:1038A0000124200009B0F0BD0124FAE7241700200C
:1038B000E417002014E9001020D50010F0B5CE4622
:1038C00000B582B0019114009279062A54D1E279B0
:1038D000502A57D12179CA00521A92B2093292B2B3
:1038E0009A4206D8019B013B99462778E7190025A3
:1038F0001FE0BE2224492548520003F0B5FF0026F0
:103900003BE0C12220492148520003F0ADFF0026D0
:1039100033E084221C491D48FF3203F0A5FF2CE050
:103920001B4B3422484642439B1859703B78FF1882
:103930000135012D18D87B78052BE2D1FA78023BAE
:103940001340022BDDD139000198FEF715F8061E51
:10395000DFD0B978CB09012BE2D00D4B3422484699
:1039600042439B189970E1E7A178094B34224846FD
:103970004243D154012600E00026300002B080BC52
:10398000B946F0BD0026F8E708E9001020D5001080
:10399000E4170020F0B589B005000138234B34222C
:1039A0004243D35C8B4209D0962221492148FF3201
:1039B00003F05AFF0024200009B0F0BD1B4B342255
:1039C00042439B1801221A7106AC23781F208343BF
:1039D000012003432370DBB2602083432020034394
:1039E0002370D8B280235B4203432370FE236370AD
:1039F00000236380A180E280FDF76CFD07006E4626
:103A000018220021684602F015FC357002940397D5
:103A1000094B04936846FEF74FFC041ECBD1B0223D
:103A200003490448FF3203F01FFFC4E7E4170020F6
:103A3000F8E8001020D500104934001010B582B00D
:103A400000290AD001281CD80B78002B19D0164A5F
:103A50001354022B1ED0012419E001A902230B707C
:103A600000234B700020FDF7A5FC041E03D00E4B75
:103A700002221A700BE00D490D48512203F0F4FEAA
:103A800005E00A490A485B2203F0EEFE002420000C
:103A900002B010BDFDF78EFC041EF8D103490448A6
:103AA000662203F0E1FEF2E7B418002038E90010C6
:103AB00020D5001070B504000D000378DB07D80F87
:103AC000002B1DD123785B07DE0F002B19DB0121B2
:103AD0004942280009F050FC2378DB07DA0F002B5D
:103AE00007D123785B0709D423780422134323707A
:103AF0000126280009F028FC300002E01600F8E753
:103B0000002070BD70B506000C0001214942200064
:103B100009F032FC33785B07DD0F002B04DB20005B
:103B200009F012FC280070BD3378DB0704D4337829
:103B3000042293433370F2E70025F0E770B50500E7
:103B40001400027943791B0213435B055B0DC278B5
:103B50009207920F022A14D0032A49D0012A59D180
:103B6000022904D02C4A9A4204D3012053E0802237
:103B7000D200F8E729492A48EF2203F075FE002019
:103B800049E0022919D0002C03D0802292009342F0
:103B900021D0202B28D8082B07D3083B9BB2214AE1
:103BA000DA40D307D80F002B35D180221B491C489F
:103BB000520003F059FE00202DE080229200934233
:103BC00001D1012027E0154915480B3AFF3A03F0CF
:103BD0004BFE00201FE0144803F016FE40232B711B
:103BE00000236B71200016E0402BDED1012012E093
:103BF000022904D040229A4204D301200BE0802203
:103C0000D200F8E7842205490548520003F02CFE53
:103C1000002000E0002070BDFF03000024E9001038
:103C200020D500100101000160D6001030B58A18BF
:103C300001E00C78091991420AD24C78052CF8D190
:103C40008D787A342C4064000419ED096355F0E74F
:103C500030BD70B50600030000200C000139C9B268
:103C6000002C16D03478201880B21C781B1902E082
:103C7000201880B21B199042EFD21C78002CECD097
:103C80005D780B2D05D0042DF2D1DD78002DEFD11C
:103C9000E3E770BD03008A1890B2814202D85A004F
:103CA000904203DB5B009BB2C01A80B2704770B5D4
:103CB00005000800AC889A420BD3D11A89B20029BA
:103CC0001ED08C4210D2944209D8121B93B26B8141
:103CD0000AE0D11A89B26600891989B2EFE7A21801
:103CE00093B2F4E71B1B9BB29C42FBD92968EA887C
:103CF0005204520C5343C91802F0A2FA012070BDBD
:103D00000020FCE703894089181A43425841C0B299
:103D1000704710B58488028993B2418988B2914274
:103D200006D81B1A9BB20020A3424041C0B210BD6E
:103D30001B1A9BB262009B189BB2F4E770B504009B
:103D40000D000069002803D00121494209F014FB4D
:103D5000228992B263899BB229002000FFF7A7FF56
:103D60000500618989B2A0882A00FFF793FF60816E
:103D70002069002801D009F0E7FA280070BDF8B5E5
:103D800004000E00C068002803D00121494209F058
:103D9000F3FA2589ADB22000FFF7BBFF002802D05F
:103DA000E779FF0916D0A2882B0001E09B1A9BB28D
:103DB0009A42FBD92068E2885204520C5343C0183F
:103DC000310002F03DFAA08801222900FFF762FFCE
:103DD00020810127E068002801D009F0B5FA3800F9
:103DE000F8BD10B50400C068002803D00121494285
:103DF00009F0C2FA2069002803D00121494209F0E4
:103E0000BBFA002363812381E068002801D009F018
:103E10009BFA2069002801D009F096FA012010BD14
:103E2000074B9B68103080001950BFF35F8FBFF3C2
:103E30005F8F044B0021196082F310887047C046E1
:103E400000ED00E0240100D00048704700E400E0ED
:103E500010B5FFF7F9FF002302E0034A04C0013365
:103E6000072BFAD910BDC0468080808010B503882A
:103E7000DA0A1C2A05D15B055B1502335B00C0180A
:103E800010BD034B034A8E210348490003F024FB75
:103E9000A0D6001098E90010B8D6001010B5091A85
:103EA0000B1F0A4A88180A4A904208D8C90706D444
:103EB0005B105B055B0D0748184380B210BD064BD5
:103EC000064A87210648490003F006FBFC0700006C
:103ED000FE0F000000E0FFFF00D700108CE900108B
:103EE000B8D6001010B5091A04394A08090B08D1D0
:103EF0004905490D064B0B430380064B1343438092
:103F000010BD054B054A8B210548490003F0E4FA32
:103F100000F0FFFF00F8FFFF30D7001068E9001045
:103F2000B8D6001001238340034A10681840431E8E
:103F30009841C0B27047C04600E100E0002A05D0B9
:103F4000044BC0225200995019607047014A8023E7
:103F5000D150FAE700E100E010B50A001F2303404A
:103F6000012199404009FFF7E9FF10BD024B9B6812
:103F700010308000C058704700ED00E070B50400BC
:103F80000D00EFF3108672B60C4B1B68002BFBD0B4
:103F9000BFF35F8F2000FFF7E9FF094B984201D084
:103FA000A84205D1320029002000FFF739FF70BD7B
:103FB000044B054A0548ED2103F08EFA240100D098
:103FC000C101001040D70010C0E90010B8D60010A1
:103FD000F0B5DE4657464E464546E0B589B08146C7
:103FE00001911500EFF3108B72B66F4B1B68002B1D
:103FF000FBD0BFF35F8F6D4B00269E57002E40DB3A
:104000007400A419A4006A4824180622A256674B1B
:104010001A70684B9A684B4610339B00D3589846E9
:104020001B1A2F2B3BD9644B984531D105AF634BFD
:104030003B80634973009A46981980005C4B984610
:1040400040440230FFF72AFF78805E4BBB80FF239D
:10405000BB71FD71019B0793330053449B004344A4
:1040600007CF07C301231C43A0465A464146484692
:10407000FFF7D6FE09B0F0BCBB46B246A946A04643
:10408000F0BD514B514ABE215148490003F024FA7A
:10409000504B4E4A84214E48FF3103F01DFA012354
:1040A00042469A439246101A0C2101F0B3F90029B6
:1040B0000FD153460027DA79AA4212D90621595660
:1040C00000290DDB4A005218920039491F008B1855
:1040D000F1E7414B3D4ACA213D48490003F0FCF954
:1040E0001F00002F2ED005AB3C4A1A80813A5A801F
:1040F0000623FB560293002B17DA394805AB9A4684
:104100009880029A9A71DD71019A0792381D2100F8
:10411000FFF7C4FEB880BE71254B72009219920061
:104120009B18524613CA13C39FE7381DFFF79EFE24
:1041300001007000801980001D4BC0180430FFF78B
:10414000ADFEDBE705AF1D4B3B801D4973000293BD
:104150009B199B00164A90461A0042440392901CF9
:10416000FFF79CFE7880039A101D5146FFF796FEDC
:10417000B8801C4B52464146521A524153431B0DC4
:10418000BB71FD71019A0792029B9B199B004344EE
:1041900007CF07C3114B52461380813B5380012345
:1041A0001C43A04661E7C046240100D06B320020CA
:1041B0002405002000ED00E0C101001000A1FFFF78
:1041C0005405002001BDFFFF78D70010A8E90010BA
:1041D000B8D60010A0D70010C8D7001001480000C2
:1041E00001BD0000AAAA0000F0B5CE46474680B542
:1041F00083B006000D00EFF3108872B64F4B1B68BA
:10420000002BFBD0BFF35F8F4D4B9A683400103406
:10421000A300D7584B4B9F4207D0AF4200D18AE052
:104220000197494BFB1A2F2B09D942463900300020
:10423000FFF7F6FD03B0C0BCB946B046F0BD300094
:10424000FFF770FE814600213000FFF785FEBFF3C7
:104250005F8FEFF30581002901D08C4211D101233A
:10426000019C9C430020A3689D4211D00622A256C7
:10427000002A0CDB53009B189B00334A2000D41803
:10428000F1E7324B324A3348334903F025F9200035
:104290009D4249D106256557002D2BDB2A4B6A002C
:1042A000521992009B189A68A260DA79E2719B79A0
:1042B0005BB2A371002B0FDA2848A080224B6A0062
:1042C000521992009B18264A117899711570494627
:1042D0003000FFF741FEA8E76800401980001A4B44
:1042E000C0180430FFF7C2FD0100231D1800FFF7BE
:1042F000D5FDE2E7002912D100280ED0FF238371FB
:10430000184B838016490B78A3710F4A164BA41AD9
:10431000644163431B0D0B70D9E70A4FF2E7134961
:10432000201DFFF7DFFDD2E7114B094A9121094813
:10433000890003F0D1F8034F77E7C046240100D08D
:1043400000ED00E0C1010010240500204CD8001051
:1043500078E90010B8D600100202000001BD00008C
:104360006B32002001BDFFFFAAAA00005E050020FD
:1043700080D8001070B505000C00FFF765FDAB0894
:104380009B00C218116803232B40DB00FF209840DC
:1043900081439C402143116070BD0000F8B50122AB
:1043A00002432C4BD31A2F2B28D8EFF30583002B75
:1043B0002AD0EFF3108472B6274909680029FBD090
:1043C000BFF35F8F234D25490600761B764171436D
:1043D000090D4DB2224989689B00C958914219D0F4
:1043E0000021032930D81B4B4A00521892009B1819
:1043F0009B795BB2AB421DD00131F2E7194B1A4AEF
:104400001A481B4903F068F81A4B174A17481A490B
:1044100003F062F8124A92681849D150184B1A7882
:1044200082711D70BFF35F8F0B4B00221A6084F303
:104430001088F8BD074B4A005618B6009E19FF2792
:10444000B771104AB280E9E70F4B074A07480F4996
:1044500003F042F824050020240100D0AAAA00009D
:1044600000ED00E088D800104CE90010B8D600102C
:104470007F020000B0D8001082020000C1010010CD
:104480006B32002001BDFFFFBCD80010930200007A
:10449000024B9C4661448900016070474000003433
:1044A00010B50400FBF78CFF01002000FFF7F0FFC0
:1044B000FF232371BFF35F8F10BD10B50400FBF71E
:1044C0007FFF01002000FFF7E3FFFF23237100239C
:1044D0006371BFF35F8F10BD10B50D4C09E00D4B3C
:1044E0000D4A0E481A2102F0F7FF2000FFF7D8FF0F
:1044F00008340B4B9C4209D22368002BF5D0012BCA
:10450000EDD12000FFF7D9FF0834F2E710BDC04617
:104510005C0B0020C4D8001000EA0010E4D80010A2
:10452000640B0020034B9C46614489000160BFF38B
:104530005F8F70474000003410B504000120FBF786
:104540004DFF01002000FFF7EDFF10BD30B5846A7C
:10455000151B0B1D9B001B581B1B9D4204D3046A9B
:1045600001238B40234202D1043189000A5030BD1F
:1045700000040843704700000A4B1968EFF31083EA
:1045800072B60A68002AFCD0BFF35F8F054A126832
:10459000BFF35F8F0021116083F3108840BF0020BC
:1045A0000021704758320020F0B5DE4657464E468F
:1045B0004546E0B587B0EFF3058303221A409246E3
:1045C000AE4B9200D7583B78534507D10123524652
:1045D00093409946AA4B4A461A6025E1A94BAA4A3C
:1045E000AA48922102F078FF7A6973009B19DB00D8
:1045F0009046984443469C68DD68A54800F0ACFBB3
:10460000001BA941002900DA16E1002D74DB4346A6
:104610001B699B469F4B9B454FD00823F85E434642
:10462000598889B2FFF7A4FF43465969D8470290D9
:1046300003910299039A0B00100013435CD01300FE
:104640000A00002847DAA41A9D41009401954346C8
:10465000009C019D9C60DD600021595E002900DA0C
:10466000EAE078694B005B18DB00C3189A68DB68E6
:10467000A41A9D41002D00DADEE039813D000835A5
:10468000844604912A000597B346009E019F049B2F
:10469000002B2ADB0023D45E63001B19DB0063447C
:1046A0009C68DD6830003900001BA94100291CDB33
:1046B0001A000021595E0491E9E743465B699B4675
:1046C0001B6958469847002816D05B461A685B68F5
:1046D00002920393ADE76E4800F03EFB029B039C01
:1046E0001B184C4100930194B1E70499059F5E4665
:1046F0004346198016809FE0434600229B5E3B8123
:104700003A69EFF3108372B611680029FCD0BFF349
:104710005F8F02217A5E41460A807E803A69BFF34C
:104720005F8F0021116083F3108885E03969EFF312
:10473000108372B60A68002AFCD0BFF35F8FB88876
:1047400000B201225242BA803A69BFF35F8F002162
:10475000116083F310880500BC461CE0049300221E
:104760009A5E002A0EDB049B0021595E4B005B1809
:10477000DB0063449868D96834003D00241A8D41F9
:10478000002DEBDA04995D46009B9C4644460D8063
:104790000023E55E2280002D12DB634658696C0021
:1047A0006419E4000419A668E76861460831082224
:1047B0009A5EAB46049163460093A0468446D0E7D8
:1047C00067463EE00023BB71390008310823F85EDC
:1047D0000EE001246442E5179460D56008243B5F35
:1047E000834204D00E8008243B5F13803881300060
:1047F000431C29D07C6943001B18DB00E218E65EED
:1048000053881BB2002BE4DB1100F0E722002B00E1
:1048100051461F48FFF79AFE1D4800F09DFA241AE2
:104820008D41002D22DC1FD0194B4A465A630823C4
:10483000FE5E002E00DBD7E6BB881BB2002B00DB40
:1048400074E7BB79002BBDD10823FA5E002A0DDB8B
:10485000796953009B18DB00CB189C68DD68631CEA
:10486000D4D16B1CD8D0D1E7002CDDD040BF07B02D
:10487000F0BCBB46B246A946A046F0BD18300020A9
:104880003C7005407CD900102CEA0010A8D900101B
:1048900000400540A945001070B504000D0011004E
:1048A0000126AE4006622800FFF768FB01212800C0
:1048B000FFF752FB024B9C466444266070BDC04625
:1048C00038200000F8B5CE46474680B50600894638
:1048D00090461F00C160FBF773FD154B9C4660447A
:1048E0008000306143463370BBB27381D022120620
:1048F00012787270012252423281B2809B1873800A
:10490000002406E0621E736965002D19ED005A53FC
:104910000134BC42F6D3074B42469200D650064AB9
:1049200041464846FFF7B8FFC0BCB946B046F8BD9F
:104930004000003418300020A945001010B5064B87
:104940001B69002B01D0044810BD044B044A0548E4
:10495000652102F0C1FDC0466C050020E8D90010B9
:1049600014EA0010A8D90010F8B504000569EFF3A7
:10497000108072B629680029FCD0BFF35F8F022136
:10498000665E656971008919C9006D18002E02DB29
:104990000027E95F61802169BFF35F8F00270F6007
:1049A00080F31088002E2CDB069929610799696134
:1049B000AA60EB606B8801335B04590C002B00D1BB
:1049C000012169803000FFF7D3FD2169EFF31083E7
:1049D00072B60A68002AFCD0BFF35F8FA2882A80D3
:1049E000A6802269BFF35F8F0021116083F31088D6
:1049F000E368217801228A4003498C4663441A60A7
:104A0000F8BD01204042FBE73C20000070B582B0B9
:104A1000060014001D0008AB1B78002B07D100F026
:104A2000CDF922002B00121A8B41002B0ADB079BC9
:104A30000193069B009322002B003000FFF794FFA8
:104A400002B070BD0020FBE7F0B5C64600B584B0EB
:104A50000500884616001F000AAB1C78FFF76EFFA2
:104A60000294019700962A004346FFF7CFFF04B057
:104A700080BCB846F0BD000030B504000A1443897C
:104A80009A422EDA406953009B18DB00C31825694F
:104A9000EFF3108272B628680028FCD0BFF35F8F56
:104AA000588885B20904090C884212D00020236975
:104AB000BFF35F8F0021196082F31088002811D0A6
:104AC000E368217801228A4007498C4663441A60D2
:104AD00008E00649294389B259800123A3710120C6
:104AE000E5E7002030BDC0463C2000000080FFFF0D
:104AF00010B50400FFF722FF2100FFF7BDFF10BD36
:104B0000F0B583B006000F00EFF30583002B1AD138
:104B100006246442E517A4197D418D4202D803D1D1
:104B2000844201D90024002500F048F922002B001E
:104B3000121A8B41002B0BDC08D03000390000F03A
:104B40004FF903B0F0BD1648FBF75AFC002AF4D029
:104B5000144A0023009320002900FFF775FF002866
:104B600013DAEAE7104B1968EFF3108372B60A689C
:104B7000002AFCD0BFF35F8F0B4A1268BFF35F8F30
:104B80000021116083F3108820BF084B5B6A9D42AF
:104B9000E8D80649896AA142CFD29D42CDD1E1E74A
:104BA0000CDA001079450010583200200040054012
:104BB00070B504000D0000F001F9001969410029E9
:104BC00002DBFFF79DFF70BD012040420049F8E77E
:104BD000FFFFFF7F10B5FA2292000023002101F0B1
:104BE00055FAFFF7E5FF10BDF0B5CE46474680B554
:104BF00083B005000C00EFF30583002B15D03F4B6D
:104C00005B6A8B4209D33D4A926A82420BD28B4245
:104C100001D0012002E0002000E0002003B0C0BC71
:104C2000B946B046F0BD0120F8E7FFF787FEC3683C
:104C30009946037898462E002700484600F08CF8E5
:104C400002000B00B61A9F41434604339B004A46BC
:104C50009B581B1A0022BA420FDC0CD020BF274BF6
:104C60005B6A9C422DD8254A926AAA422BD29C426A
:104C700025D00120D2E7B342F0D9214A0023009386
:104C800028002100FFF7E0FE00281EDD1B4B5B6AB9
:104C90009C4205D8194A926AAA4202D29C4200D18B
:104CA00020BFFFF725FF154B5B6A9C4221D8134AB2
:104CB000926AAA421FD29C4219D00120AEE700207E
:104CC000ACE70020AAE70120A8E70C4B5B6A9C42F6
:104CD00009D80A4A926AAA4207D29C4201D001200E
:104CE0009CE700209AE7002098E7012096E7002043
:104CF00094E7002092E7012090E7C046004005407D
:104D000079450010004870470040054010B50B4B36
:104D10001B69002B04D00A480A21FFF7B9FB10BD1C
:104D2000FFF7F0FF0400032100F00CF80348102304
:104D300003222100FFF7C6FDEDE7C0466C05002009
:104D40005832002010B5024A0248FBF787FB10BD1D
:104D50005CDA0010741D00200200436A906A19009A
:104D6000536A9942FAD17047416A00E0416A994218
:104D7000FCD300E0416A994202D1816A9142F9D3A1
:104D80007047F0B5C64600B5804614001D00FFF719
:104D9000E3FF06000F0022002B0092197B4199428D
:104DA00002D804D1904202D901225242D317404680
:104DB000FFF7DAFF80BCB846F0BD000010B502482E
:104DC000FFF7CAFF10BDC0460040054010B5020005
:104DD0000B000248FFF7D5FF10BDC046004005405C
:104DE00010B502000B000248FFF7BEFF10BDC04621
:104DF0000040054010B5192000F02AF9D0231B0609
:104E0000802292045A6210BD002805D0D0231B06D0
:104E1000802292045A617047D0231B06802292049C
:104E20009A61F8E710B5002002F0B6FC10BD70479B
:104E300010B5024800F004F810BDC046283000202C
:104E400070B588B0040004AD0D220021280001F0E7
:104E5000F1F90D220021684601F0ECF94B232B708B
:104E60000D226946280008F067FA002304E05A1D65
:104E700069468A5CE2540133072BF8DD08B070BD47
:104E800010B5010018231B8814221088984710BD04
:104E900010B5010018231B8816221088984710BDF2
:104EA000F0B5C64600B507000E0000250123984660
:104EB00000E00135B5420AD2AC003C192068FFF78A
:104EC000DFFF20600028F4D100239846F1E7404638
:104ED00080BCB846F0BD0000F8B5D646474680B560
:104EE00006000D001700984644002418A400294B22
:104EF0009C4664446368089A934200D26260331F00
:104F0000DBB29A46012B2ED980221201C0239B01CD
:104F1000E3181A60204BB200D158002907D0586915
:104F200000F078FA013043001B18033BFDD27F01EB
:104F300023685F40E0233B4080225201A2181360A7
:104F40005346012B1AD980239B01E31880221201BA
:104F50001A60089B6360104BB6004246F250C0BC1A
:104F6000BA46B046F8BD012DCED10322C0239B0125
:104F7000E3181A60A368DB07FCD5D8E7216869400D
:104F800003230B401360A3680122AA401A42FAD0FF
:104F9000D9E7C04600800040781F0020F0B583B0FC
:104FA00005000E0017001800089900F033FA0300FE
:104FB000089A140200943A0031002800FFF78CFF91
:104FC00003B0F0BD10B582B0802464000094FFF7F8
:104FD00083FF02B010BD0000014B8000C058704735
:104FE000781F002010B58300084A9A1814684022E0
:104FF000544080322240064CA44663441A60C000EC
:10500000044B9C466044416010BDC04604C0014052
:1050100004D001400040014080000C4B9C4660449D
:1050200000290ED00823002A0DD004221343026861
:1050300053400C2213408022520194466044036086
:1050400070470023EFE70022F0E7C04604C00140AC
:1050500010B501238340D02212069362936105218B
:10506000FFF7C0FF10BD0000F0B5C64600B5040054
:105070000E0017001D00374800F0CCF98046364B73
:10508000FA18364B9A4239D80100380000F0C2F9BC
:105090000200103A98235B009A4235D86B1E062B0B
:1050A00038D8069B013B062B34D83F09474537D3F8
:1050B0002D04069B1B031D432368002B36DB284B66
:1050C0009C4244D00C2201239340264A1360264A76
:1050D0001360264A1268190091430A1EF9D126600E
:1050E000A060234BE31821321A602268002AFCDA00
:1050F000E56008221A6080BCB846F0BD1D4B1E4A10
:105100001E48112102F0E8F91D4B1B4A1B481921CA
:1051100002F0E2F91B4B184A18481C2102F0DCF996
:10512000194B154A1548232102F0D6F922683F236E
:105130001340B342C3D1A3681B051B0D8342BED1EC
:10514000E368EE22D2021340AB42B8D1D3E70D227E
:10515000B9E7C046001BB70080E84BD380F8A932FE
:1051600000C0024000E0004000F0004008C00040E5
:10517000043000008CDC00106CEA0010DCDC001055
:1051800024DD001040DD00108CDD001080239B002A
:105190000B43014AD362704700800540074BAA22A7
:1051A00012011A608D225200DA60054B054A1A601E
:1051B000024B5B68002BFBDA7047C04600400240A0
:1051C0000060024000B0FA0010B5040001E008CC15
:1051D0009847024B9C42FAD310BDC046E4D300105E
:1051E0007047000010B50248FFF7EEFF10BDC04643
:1051F000A8D30010054B064A1A60064B064A1A60EF
:10520000064B1A68044B9343FAD1704700E0004004
:10521000BFCDFBFE00F00040FE7F3C0008C0004018
:10522000044BDB6C002B03D1034B8022D2021A60AB
:105230007047C046000011504C201150044B054AE5
:105240001A60054B1B68DB43DB01FAD17047C0468F
:1052500000F00040FFFFFF0108C00040034B402268
:105260009A675A671A67DA667047C04600F00140CD
:1052700010B5FBF735F910BD10B50C4A0C4BD21A1E
:1052800092101400302A00D93022920009480849AF
:1052900000F0D6FF04E0084A064BA100CA500134D2
:1052A0002F2CF8D9034B054A936010BDC0010010A4
:1052B0000001001000000020C101001000ED00E01E
:1052C00070B50420FFF788FE064900F0A3F805003A
:1052D0000024002C00DD70BDE0B22900FFF756FF6E
:1052E0000134F6E740420F0030B583B0274B00226F
:1052F0009A67FFF753FF264B01221A60234B5B6C22
:10530000012BFBD1234B03221A60204B9B6B012BFB
:10531000FBD10133009304331F4A01211F48FFF7DB
:10532000A3FE052300931E4A01211E48FFF79CFEA1
:105330001D4B002202210420FFF744FE1B4D2B00D1
:10534000002201210520FFF73DFE194C2300002219
:1053500000210720FFF736FE23000022002108204D
:10536000FFF730FE8023DB000093230000220021A2
:105370000920FFF713FE2B00002200210620FFF773
:1053800021FEFFF79DFF03B030BDC0460080004006
:105390003CB0004030B00040002F6859008002400F
:1053A000008C864700C00240001BB70040597307BD
:1053B000006CDC0201480421014B184790050020D5
:1053C000A14E0010124A936F9B0815D29066D166C9
:1053D000002905D0FFE7FFE7FFE7516F106F704727
:1053E00004B580210906C2175140002800D0C843E7
:1053F00007F0BAFF002104BDF0B5146E556E576F6B
:10540000166FFFF7E3FF1466556657671667F0BD22
:10541000000000D0114A936F9B0813D210665166AA
:10542000002905D0FFE7FFE7FFE7516F106F7047D6
:1054300004B5002801D00020C04307F095FF0021EB
:1054400004BDC046F0B5146E556E576F166FFFF76A
:10545000E5FF1466556657671667F0BD000000D07B
:1054600094464A4A926F9208624601D228E0C046AA
:10547000F0B5464E346E756E776F366F00F020F8DB
:105480009446424A14665566576716676246F0BDF1
:1054900094463E4A926F9208624601D254E0C0465A
:1054A000F0B53A4E346E756E776F366F00F04CF88B
:1054B0009446364A14665566576716676246F0BDCD
:1054C000002B24DB11D000293EDA00B5C94340424D
:1054D00000D1013100F038F8C943404200D1013118
:1054E000DB43524200D1013300BD002AEBD100283A
:1054F00001D1002905D00020C90FC90701D1C0433F
:10550000410800B507F028FF0022002300BD00B5C8
:1055100000290ADBDB43524200D1013300F014F8CA
:10552000C943404200D1013100BDC943404200D1CE
:105530000131DB43524200D1013300F005F8DB4377
:10554000524200D1013300BD002923D1002B18D1D4
:10555000002A0CD0BC460D4F38667A660021002325
:10556000FFE7FFE7FFE77A6F386F6746704700286D
:1055700001D00748010000B507F0EEFE002200232D
:1055800000BD02000B00002000217047000000D089
:10559000FFFFFFFF002B00D0BFE0130C28D1002A33
:1055A000E7D080B4114F39667A66FFE7FFE730B481
:1055B000040C7B6F396F1B0423433B667A66FFE75D
:1055C000FFE7FFE7C04684B27B6F3D6F1B042343B8
:1055D0003B667A66FFE7FFE7C04600232C042D0CEC
:1055E0007A6F386F00196941B0BC7047000000D075
:1055F000F0B594460025140E01D112020835140F9F
:1056000001D112010435940F01D192000235D40F5B
:1056100001D152000135D40B0134254F7C66254C55
:105620003C660E0C93B2FFE7FFE7FFE73C6F664373
:10563000360C7703BE467343DF0B5B04C01AB941D7
:10564000130C7343DB18C91ACE086643360CB644F4
:1056500093B273431F0F1B01C01AB941130C73435C
:105660001F0B1B05C01AB941860D8F023E436643CE
:10567000360C092D24DB520A7243801A7703460A3E
:105680006643360C16235B1BDE40DF40BF196446C1
:105690006643821B7046043506330100D940A8409A
:1056A000C01900D30131A24206D20023F0BD000090
:1056B000000000D0FFFFFFFF121B0130F3D3F1E722
:1056C00009277F1BFE406446A2B27243801A00D2B3
:1056D0000139220C7243130C1204821A99410B00F7
:1056E0007046043513370100F940A840801900D3F3
:1056F0000131002B02D1A2420AD2F0BD013000D309
:105700000131121BFAD2013BF8D1A24200D2F0BD06
:10571000013000D30131121BF7E7F0B51C0C00D0AB
:1057200080E00CB400251C0A04D11B02160E334382
:10573000120208351C0B04D11B01160F3343120152
:1057400004359C0B04D19B00960F33439200023525
:10575000DC0B02D192185B4101351C0097186441A3
:105760000134464F7C66464C3C660E0CFFE7FFE773
:10577000FFE7C0463C6F6643360C7703BE4697B2E0
:105780007743C01B00D20139C01B00D201399FB240
:105790007743C91BC91B170C77437E04FF0B801B83
:1057A000B941CE086643360C0C2D33DBB644120BE0
:1057B0001F053A431B0B97B27743C01B00D2013938
:1057C0009FB27743C91B170C77433E043F0C801BE5
:1057D000B941860D8F023E43664329277F1BFE4059
:1057E0000C3D7746AF40BF1930BCA2B2ABB272439A
:1057F0007343801A9941220C7243130C1204801ACD
:10580000994102000B000137001BA941F9D2781E13
:105810000021F0BD0C277F1BFE4077467F0BAF4079
:10582000FF19E0E700245D1C07D0144F7D66396640
:10583000FFE7FFE7FFE7FFE73C6F95B29EB26543E6
:105840006643401BB141150C1E0C6543664336048C
:105850002F0C3E432D04401BB141994204D202005B
:105860000B0020000021F0BD01D19042F7D3801A37
:10587000994101349942F2D3F6E70000000000D0CC
:10588000FFFFFFFF48404140484018B41B4B5B6896
:10589000FC46019308BD04DF5F5B001018B4174B92
:1058A0001B68FC46019308BD00DF695B001094464D
:1058B000134A926F920809D2624618B40F4BDB6804
:1058C000FC46019308BD0CDF215E00100C4AF0B5C8
:1058D000146E556E576F166F6246FFF7EEFF084A5B
:1058E0001466556657671667F0BD18B4034B9B687E
:1058F000FC46019308BD08DFC55C00105430002051
:10590000000000D0FFB550404240504059404B404D
:10591000594000E0FFB5154F4C00640D03D0BC4268
:1059200004D10C0314D80020090D09055C00640D96
:1059300003D0BC4204D11C030AD800221B0D1B0556
:1059400001264B4009D44B4003D58B4200D1824203
:10595000FFBD9942FCD19042FFBD0B43DB180343CE
:105960001343F5D0C9434918FFBD0000FF070000ED
:1059700000B5FFF7CFFF804100BDC04600B5FFF77F
:10598000C9FF01D9002000BD012000BD00B5FFF70F
:10599000B9FF01D9002000BD012000BD00B5FFF70F
:1059A000B1FF804100BD012040054A00121804D813
:1059B0005A00121801D800207047012070470000DB
:1059C0000021002805D17047C1174840401AFAD07D
:1059D000C90713B5064B1B6898470CBC441CA24072
:1059E0001005120B0349091B09051943114310BD8A
:1059F000543100201F04000010B54C00620D8023BC
:105A0000D218DB00D21A5B057E2A10DD9E3A13DA2B
:105A1000CC170903490819435242D14064000134AC
:105A20001532202A05DAD0400843604310BD00201B
:105A300010BD0846604310BDC80FC018013810BD26
:105A400018B4044B5B6AFC46019308BD24DFD15FA8
:105A5000001000005430002070B513231C78012C76
:105A600012D0012C12DC214B214A93642148FFF70C
:105A700007FA214B186070BD1C491D4A98008150DF
:105A800001331F2BF8D9ECE70023FAE71B48FFF797
:105A9000FFF905001A48FFF7FBF9023803789B006D
:105AA0007F2B09DD12488022290000F0C9FB022C5F
:105AB00008D0022CDADCD6E7124B134A1348332104
:105AC00001F00AFD124B1A88B5231B029A4209D134
:105AD000104B1A88104B9A4204D1104B1A88104B65
