:020000041000EA
:1000000000B5324B212058609868022188439860DF
:10001000D860186158612E4B002199600221596106
:100020000121F02299502B49196001219960352056
:1000300000F044F80222904214D00621196600F024
:1000400034F8196E01211966002018661A6600F04E
:100050002CF8196E196E196E052000F02FF8012189
:100060000842F9D1002199601B49196000215960AB
:100070001A491B48016001219960EB211966A021F2
:10008000196600F012F800219960164914480160C1
:100090000121996001BC002800D000471248134993
:1000A000086003C880F30888084703B5996A0420EC
:1000B0000142FBD001200142F8D103BD02B5186610
:1000C0001866FFF7F2FF186E186E02BD00000240BE
:1000D000000000180000070000035F00212200005C
:1000E000F4000018222000A00001001008ED00E03C
:1000F00000000000000000000000000074B24E7A12
:1001000000200420F7010010CB010010CD010010E9
:10011000C9010010C9010010C9010010C901001077
:10012000C9010010C9010010C9010010CF01001061
:10013000C9010010C9010010D1010010D301001045
:10014000C1010010C1010010C1010010C101001067
:10015000C1010010C1010010C1010010C101001057
:10016000C1010010C1010010C1010010C101001047
:10017000C1010010C1010010C1010010C101001037
:10018000C1010010C1010010C1010010C101001027
:10019000C1010010C1010010C1010010C101001017
:1001A000C1010010C1010010C1010010C101001007
:1001B000C1010010C1010010C1010010C1010010F7
:1001C000EFF30580103800BE00BE00BE00BE00BECA
:1001D00000BE00BEF2EB8871D8080110F8080110CB
:1001E0003802001090A31AE71E481F49086006C88D
:1001F00081F3088810471D480068002801D019487D
:10020000F3E70DA40ECC002902D000F012F8F9E7B4
:100210001749184A002000E001C19142FCD116495B
:100220008847164988471649884700BEFDE701C937
:1002300001C29A42FBD37047F8080110C0000020A9
:100240005C0B002094130110000004200000042027
:10025000941301100010042000100420000000007E
:10026000704700000000000008ED00E0000000D032
:100270005C0B00206C350020997B001035030010CA
:10028000597B0010F8B5C04606480749091A8B107B
:10029000C90FC91810B5491003D0044B002B00D06A
:1002A000984710BD5C0B00205C0B00200000000094
:1002B000054B10B5002B03D00449054800E000BFF2
:1002C000FFF7E2FF10BDC04600000000FC32002036
:1002D00064DC001010B505F0D1F8002905D0FA2231
:1002E0009200002305F018FC10BDFA21890005F0EA
:1002F000D5FBF9E77047704710B5FFF7EBFF0B4BE5
:100300001B68C01AFA229200904200D210BD074A20
:10031000FA2189008C4663441360054C207805F06F
:10032000D3F82378012253402370EFE7583500209B
:100330006835002000B583B007F070FD164B002231
:10034000DA6205F0B7F807F03DFF144807F026FF22
:1003500001A9134B1B880B80002003F0AFFD114B4C
:10036000002B01D005F0C3F80CF030FA0120002179
:10037000404201F07BFF0CF093F8FFF7BDFF0A4B02
:100380001B78002BF2D107F012FF07F087FF00283F
:10039000ECD007F063FEE9E700400540F82D0020AF
:1003A00068DC0010EF540010E804002010B504F0E1
:1003B00071FF10BD7047000030B505004B0613D02B
:1003C000012200E001320F2A0CD85301074C181902
:1003D0001B5D002BF6D0437FAB42F3D183788B4279
:1003E000F0D100E0002030BD0048FCE7B81F00203D
:1003F000012200200F2A09D85301054958185B5CD7
:10040000002B01D00132F5E7511E81777047C046BD
:10041000B81F0020F0B5C64600B584B00D00437F7C
:1004200098468778C68A00F097FC01AC0C22002120
:10043000200006F043FA022363704346A37027713D
:1004400065710396012120000DF0E2FB04B080BC31
:10045000B846F0BD10B50A4BDB6C9B0709D5094BBC
:100460009B7E002B06D007480823C3820021FFF79C
:10047000D1FF10BD044B054A0548AD2107F070FBC4
:1004800000001150B81F00206CDC0010A4FA00100E
:1004900078DC001010B50C000A4B98658B7E002BA1
:1004A00005D0080000F0DEFC002806D110BD064B88
:1004B000064A0748692107F053FB00212000FFF797
:1004C000A9FFF3E7003011506CDC0010B8FA0010FF
:1004D00078DC001070B5164B9E6DF30701D4012532
:1004E00019E001239E4313494B681B680120FFF765
:1004F000D1FFF4E7864369010E4BC918FFF7CAFF25
:100500000134012C06D86B001B19012098403042A1
:10051000F6D0EFE701350F2D03D8002E01D00024CF
:10052000EFE7002E00D170BD0348310004F070FAEF
:1005300000001150B81F0020B0DC001030B585B0AD
:10054000324A9823D458973B1D002540234211D0AE
:10055000136D1B0A9B0721D001A800230370437071
:100560000371437101210DF053FB294BC02292000E
:100570001A65012563051CD4E30626D423072CD471
:10058000630605D540231D43214B802212051A65C1
:10059000A3062ED4A54233D105B030BD01A8002357
:1005A0000370012242700371437101210DF030FB91
:1005B000DBE78023DB001D43154B802292051A6583
:1005C00014480221FFF726FFD6E710231D431248E7
:1005D00007F05EFCFFF77EFFD0E708231D430C4BBE
:1005E0008022D2021A650D4807F052FCFFF732FF55
:1005F000C6E7074B802212061A65094804F008FA7C
:1006000029006140074804F003FAC0460000115079
:1006100000301150B81F0020C8DC0010DCDC0010D6
:10062000F0DC001004DD001070B5051E08D1164C7A
:10063000164BA360164B6360164BE360200070BD41
:10064000FFF7D6FE0400144BAD00E958827F134833
:1006500007F04EFC002C0FD0A37FDA001049511890
:10066000A16010498C466244626002339B01094AD2
:1006700094466344E360E1E70B4B0C4A20210C48AD
:10068000FF3107F06DFAC046B81F002080001050FF
:10069000000110508001105014FA001018DD0010F5
:1006A00088001050080010502CDD001024FA0010B3
:1006B00078DC001070B500281DD100F025FB114C2E
:1006C0000C23A367104D2900052004F04DF8FF22EC
:1006D0002900052003F03CFF0C48802292000021F5
:1006E00006F0ECF803232364094BE3649023094AE2
:1006F000E250012070BD084B084ABF21084849005C
:1007000007F02EFA000011503D050010B81F002020
:10071000008600207B04000030DD001098FA0010F5
:1007200078DC001010B5002800D110BD034B044A3E
:10073000D5210448490007F013FAC04630DD001007
:1007400088FA001078DC00107047000070B50028AF
:100750000DD10A4D296DC024A4002140084807F09E
:10076000C7FB286D2040431E9841C0B270BD054BA9
:10077000054AB8210548FF3107F0F2F90000115091
:100780003CDD001030DD001070FA001078DC001045
:1007900010B5031E0AD10A4A126D120A0320104036
:1007A000012802D0022808D1180010BD054B064AC6
:1007B000C0210648FF3107F0D3F9054804F028F9B5
:1007C0000000115030DD00105CFA001078DC0010E1
:1007D00040DD0010F8B5CE46474680B504000E0057
:1007E000994608A90D7809A90B789C464368984654
:1007F000002B4DD08368002B51D0C168002955D003
:100800007F2318001040D709A270667767701342E3
:1008100053D17E3BE3704B462383E5762B4B4B4015
:1008200089064CD1AD061D43A0231B062B4362460F
:10083000002A02D0013A12041343424613600123F6
:100840002370234B9C421FD0030433431D00002F11
:1008500002D18025AD041D430020FFF799FF07005A
:10086000300000F04DFF874202D08023DB041D439F
:10087000A37F9B00174A944663445D60A27F0132C8
:1008800001239340144A5365C0BCB946B046F8BD35
:10089000124B134A9B211348490007F061F9124B90
:1008A0000F4A38210F48FF3107F05AF90F4B0C4A15
:1008B0009C310C48490007F053F90023AAE70C4B80
:1008C000074AA6210748490007F04AF900001050DE
:1008D000B81F0020000011500020115050DD001002
:1008E00000FA001078DC001068DD00107CDD0010DC
:1008F0008CDD0010F8B50D001F4B1B78002B07D0C6
:100900001D4B9B7E002B03D01B4B5B7F8B4202D089
:10091000002D2FD1F8BD18480023037042681360E2
:100920008268136000F018FAF2E701340F2CF1D856
:100930006001114BC018437FAB42F6D10E4B6201F0
:10094000D35C002BF1D00C4E1700827F01320123C3
:1009500093400A4A5365837F9B00094A9446634447
:1009600000225A60BA5543681A6083681A6000F022
:10097000F3F9DAE70124D9E7B81F0020003011505D
:100980000000115010B5002804D10121052003F00A
:10099000A3FD10BD034B044AF8210448FF3107F0C2
:1009A000DFF8C04630DD00104CFA001078DC001093
:1009B00030B583B00D001400D0788007800FFFF7AA
:1009C00033FE002812D0A278217963791B020B43F1
:1009D0005B055B0DE1788907890FA479019400918B
:1009E0002900FFF7F7FE012003B030BD034904489A
:1009F000044A07F07DFA0020F6E7C0463CFA0010F2
:100A0000A8DD00100E020000F0B5D6464F4646465F
:100A1000C0B582B00E0015009A460AAB1B889946F5
:100A20007F271740D309984611003000FFF7C4FC18
:100A3000041E1FD0837E002B23D18378AB420AD0C3
:100A4000002F24D1038B00220192C27E00922A0043
:100A50003100FFF7BFFE244B9C421ED04A46514650
:100A6000200000F0E3F9012002B0E0BCBA46B14634
:100A7000A846F0BD1D491E481E4A07F039FA00205D
:100A8000F2E71D4B194A1D481D4907F069F81D4B37
:100A9000164A1A481C4907F063F84A465146200096
:100AA00000F0C4F93B043343184A13604346002B5B
:100AB00016D0174C0020FFF76BFE0500300000F049
:100AC0001FFE85420ED0402323430122190091438B
:100AD0000E4AD1640C210339FDD2D3640120C3E74F
:100AE0000C4CE7E70023EFE7B81F0020F0F90010F7
:100AF000A8DD00102B020000C0DD001078DC001023
:100B00002E020000CCDD0010330200000000115066
:100B100009860020058600200020704770B582B04D
:100B20000D00002304E0D45C2448C4540133DBB23C
:100B3000072BF8D90020FFF777FD041E28D0837E0D
:100B4000002B2DD1038B0022019200922900FFF788
:100B500041FE2678002E29D00823A382073BA376E6
:100B6000174B1D600020FFF713FE0400280000F063
:100B7000C7FD844220D0134A012311009943104B32
:100B8000D9640C210339FDD2DA64300002B070BDA3
:100B90009A220D490D48920007F0AAF90026F4E7C1
:100BA0000B4B094A0B480C4906F0DAFF0B4B064A7F
:100BB00008480B4906F0D4FF0A4ADDE70000105050
:100BC0000000115043860020E0F90010A8DD00105D
:100BD000C0DD001078DC00106B020000D8DD0010D2
:100BE0006F0200000386002004E00A7802700131E1
:100BF00001301A00531E002AF7D17047F8B50400DF
:100C00000F00838A028B1E1C934200D9161CB6B2B9
:100C10009B1BA3828022D2003243E378002B13D0A7
:100C20008025AD01154301225340E3706378002B0A
:100C30000CD0A38A002B02D18023DB011D43002F9F
:100C400000D02D042800F8BD0025EBE7E068BB01CB
:100C5000C01821693200FFF7C7FF23699B19236180
:100C600080231B021D43E4E770B5040083681B6802
:100C7000002900D01B0C9D05AD0D6278002A11D112
:100C80001B0409D4E38A5B19E382238BAB4201D9AD
:100C90000023A382280070BD0D4B0E4A0E48E821A8
:100CA00006F05EFF1B040DD52069E3688901591821
:100CB0002A00FFF799FFE38A5B19E38223695B1936
:100CC0002361E2E7054B034A0348EE2106F048FFA3
:100CD00010DE0010D0FA001030DE001068DE0010C8
:100CE00010B5040083681B680021FFF7BDFF63682F
:100CF0001B685B0002D5238B834200D010BD01210D
:100D00002000FFF7B1FFF9E710B580235B040C4A20
:100D100013600C4A13600C4B1A6880235B049343E6
:100D2000F9D1802252010021084805F0C7FD084B87
:100D300009225A670748202107F0DAF810BDC0469B
:100D400000E0004000F0004008C0004000001050EB
:100D50000000115088DE0010002383768382C38256
:100D60000361704710B5002902D083681B681940E1
:100D7000002A10D0114352050DD5826813685B0517
:100D80000CD4084B0B401360074B1B6C9B0702D421
:100D90000C23033BFDD28368196010BD81780348A2
:100DA00003F036FEFFFBFFFF00001150A8DE00102D
:100DB00070B5040043681E680021FFF71FFF8025FF
:100DC0006D010543164B1B6C9B0715D5A3785B067D
:100DD00017D10023A28A002A01D0002B15D0114B75
:100DE0001E4080239B053343626813602A00002164
:100DF0002000FFF7B7FF70BDA378DB0903D10133F3
:100E0000E8E70123E6E70023E4E701212000FFF7FC
:100E1000F5FE0543044A3240A023DB051343E3E714
:100E200000001150FFFFFFAFFFFFFFDF70B50400B0
:100E30000D001600837E002B09D1A6820023E382D9
:100E40000133A37625612000FFF7B2FF70BD8178E2
:100E5000034807F04DF82000FFF77EFFEDE7C0469E
:100E6000C8DE001070B50400857E002D06D0FFF7A7
:100E700037FFA38A002B05D1280070BD8178044874
:100E800003F0C6FD2000FFF793FF0025F4E7C046FE
:100E900000DF00100B4B1B78834206D90A4B1B68FE
:100EA000C200121A9200981870479A1C824206DB00
:100EB000C01AC300181A8000044BC018F4E70020C1
:100EC000F2E7C04663350020681000201CFC0010CB
:100ED0004369C2781A707047002802D005210420A7
:100EE00004E00421002001E00130C0B281420AD9AF
:100EF000064B5E2242439B1810331B79DB07F3D469
:100F00000130C0B200E000207047C046B018002099
:100F100010B504005E22002105F0D0FC2000153041
:100F20000822FF2105F0CAFC20001D302022FF21ED
:100F300005F0C4FC10BD0000F0B5D6464F4646464D
:100F4000C0B584B005008A4690464F4B1A7803AB73
:100F50001A704DE04D48210006F0CAFF331F03AA66
:100F60000121D15477E00136F6B2494B1B780233A8
:100F7000B34208DB3000FFF78DFF0028F3D0836910
:100F800020009847EFE721002800FFF7B3FC414B12
:100F90005B7D9C4207D03F4B5B789C4216D038006B
:100FA000FFF7B6FF25E03B4B1B7D002BF3D03A4B00
:100FB00099461868012149420CF01AFE354B00226F
:100FC0001A754B4618680CF0FBFDE4E7314BFF2225
:100FD0005A70E4E70023002B05D103AAD45C002C4F
:100FE0003BD10133F7E70123002B47D1002B36D04B
:100FF0000024042CEED826005E231F006743274AF6
:10100000BF180134E4B273439B5CAB42F1D13B00A7
:1010100010331B79DB07ECD55346002B02D07B78CD
:101020005345E6D14346002B06D01C4B5E2272434B
:101030009B189B784345DCD119480094434652469F
:10104000290006F055FF042C84D8164B002B02D043
:101050002000FFF750F9002687E70023C4E703AA22
:10106000D25C002A02D10133DBB2BFE703AA002120
:10107000D1545E1DF2B292469846B9E704B0E0BC86
:10108000BA46B146A846F0BDA0E100104CDF001002
:1010900063350020EC040020901B0020B0180020D5
:1010A00028DF0010F702001070B506000D000024C4
:1010B00004E0315D044806F01BFF0134AC42F8D374
:1010C000024806F0E5FE70BD64DF0010A4E90010E0
:1010D000F0B589B007000E00184806F0D9FE06AD3D
:1010E000174B2A0003CB03C26C4618220021684626
:1010F00005F0E4FB2770E670124BDA8A0192029544
:101100009A680392DA6804921A6905921B7D002B93
:1011100006D1049B002B01D06846984709B0F0BD6A
:10112000094C2068012149420CF062FD054B002268
:101130001A7520680CF044FDEBE7C046A4E90010E6
:10114000881A0020EC040020901B002010B5054BED
:10115000FF225A701879002800D110BD01F096FDC9
:10116000FBE7C046EC040020F0B5DE4657464E468D
:101170004546E0B589B083460F000300013BDBB272
:10118000042B12D8421E5E235343504A9846904483
:10119000BB78F978090219437B1805933E78BE198C
:1011A0004B4806F0A5FE079730E000239846EFE78E
:1011B000079FF11B474806F09BFE012017E0F278DD
:1011C0009146F6182DE044494448454A06F090FE01
:1011D00000200CE040494148424A06F089FE0020C8
:1011E00005E03D493D48404A06F082FE002009B036
:1011F000F0BCBB46B246A946A046F0BD80462300DF
:10120000524631001D3002F059FF5644059B9E4264
:1012100059D23378002BCBD072780B2ACFD0012350
:1012200099467378042BCED1059B9A1B92B24946FE
:10123000300002F065FF82460828CBD900244B46D7
:10124000069306E0294B1B780233BB422DD00134B4
:10125000E4B22700254B1B780233A342D5DB2000E4
:10126000FFF718FE051EEDD0C3689946434618786F
:10127000534632005946C8470028E3D0069B99469A
:1012800029681B4806F034FE00224D464046954230
:10129000B4D9B3789B18DBB2C118497DFF29A0D11E
:1012A000C3185C750132D2B2F1E743461978B378BE
:1012B0007279B579F7790F480297019500925A46ED
:1012C00006F016FEC3E7012091E7C046B0180020E3
:1012D0006CDF0010A4DF0010B8FB0010A8DD0010C8
:1012E000250700003E0700004C0700006335002082
:1012F000DCDF0010ECDF0010704701207047704702
:10130000002805D10B4B587843425841C0B2704772
:10131000431EDBB2042B09D801385E234343064A3F
:101320009B181B7DDB0703D40020F0E70020EEE7CD
:101330000120ECE7EC040020B0180020034B1B78E0
:10134000181A42425041C0B27047C046EC04002017
:10135000034B1878FF38431E9841C0B27047C0460F
:10136000EC040020F8B506000F00FFF7E7FF041EAD
:1013700022D17B78022B0AD005D8002B1ED0012B5E
:101380001ED1464A04E0AA2B1CD1454A00E0454A3A
:101390004548310006F0ACFDFFF7DAFF002813D016
:1013A000424B1E7039003000FFF784F9041E00D153
:1013B0006EE03000FFF7E6FA2000F8BD3C4AE7E7B0
:1013C0000022E5E70022E3E73A481C2106F090FD01
:1013D00039485E2106F08CFD38480C2106F088FD66
:1013E0003748182106F084FD3648142106F080FDA8
:1013F0003548242106F07CFD344803F0FDFB344CD5
:10140000200003F0F9FB143C200002F0AAFF314B4E
:101410001C60314C200003F0A3FB304B1C60304BB0
:10142000002B04D02F4800E000BF2F4B18602F483E
:10143000EB225200002105F041FA1C4C1C22002135
:10144000200005F03BFAFF2323706370002407E0BF
:101450005E206043254BC018FFF75AFD0134E4B20B
:10146000042CF5D9002401E00134E4B21D4B1B78B3
:101470000233A34200DA93E72000FFF70BFD051EBD
:10148000F2D001681A4806F033FD6B689847EBE725
:1014900018491948194A06F02BFD8DE74CE0001059
:1014A00050E000103CE0001058E00010EC04002078
:1014B00044E0001084E00010A0E00010C0E0001044
:1014C000DCE00010F8E0001014E10010601C0020C7
:1014D0001C0500209C1B0020941B0020901B00205A
:1014E000000000006335002068100020B0180020C4
:1014F00038E100100CFC0010A8DD00100302000011
:1015000010B5FFF725FF002800D110BD034B186868
:1015100002F0B8FE01235840C0B2F6E79C1B002041
:1015200000487047901A002070B504000D00431E5B
:10153000DBB2042B07D8421E5E235343104A9B188C
:101540001A7DD20707D40F490F48104A06F0D0FC85
:101550000026300070BD7F200840CA090C49096888
:101560004000801838301818053002F0E3FC061EE1
:10157000EFD008482A00210006F0BAFCE9E7C0468F
:10158000B018002070FB0010A8DD0010CB03000095
:10159000901B002044E10010F8B504000E00431E2B
:1015A000DBB2042B1FD8421E5E2353430F4A9B1805
:1015B0001D7DED07EF0F002D01D13800F8BD7F2014
:1015C0000840CA090A4909684000801838301818CC
:1015D000053002F0D7FC071EEFD00648320021008C
:1015E00006F086FCE9E70027E7E7C046B0180020D0
:1015F000901B002060E10010F0B5D6464F464646ED
:10160000C0B584B080460E0003929A460300013BA9
:10161000DBB2042B4AD80300013B5E245C43244B1D
:10162000E4187F230B409946CF092248524606F022
:101630005FFC4B465D006519ED1938356B79DB07AA
:1016400016D44B465B00E318DB1938335A79012175
:101650000A435A71207853460093039B3200414657
:10166000FFF7D2F9051E10D0134806F011FC05E073
:1016700012491348134A06F03BFC0025280004B029
:10168000E0BCBA46B146A846F0BD4B465B00E41844
:10169000E419383463790122934363716379033227
:1016A00093436371084806F0F3FBE7E70025E5E79D
:1016B000B01800207CE10010A4E1001050FB0010E5
:1016C000A8DD0010F5030000A8E1001010B503002C
:1016D00008005A1ED2B2042A09D8013B5E214B43AE
:1016E00005495918042205F0EFF8012010BD0349FF
:1016F000042205F0E9F8F8E7B0180020EF04002014
:1017000010B582B001AC2100FFF7E0FFE07802B035
:1017100010BD10B582B001AC2100FFF7D7FF2078D3
:1017200002B010BD70B582B004000E00FFF7F1FFEB
:1017300001000D4D33002200280006F0D9FB6D4654
:1017400007220021684605F0B9F807232B70023BF9
:101750006B70AE802000FFF7DCFF6A462100FFF7C8
:1017600027F902B070BDC046B0E10010F8B5CE4612
:10177000474680B505000C0033480A00290006F0F2
:10178000B7FB7F231F002740E2099046234217D072
:101790006B1EDBB2042B54D86B1E5E265E432B4BB4
:1017A000F6187B00F318434438335B79DB07DA0F14
:1017B0009146002B2CD14846C0BCB946B046F8BD76
:1017C0002800FFF7A6FF224B5B7DAB4236D1204BB2
:1017D0001B7D002B02D100239946ECE72200290053
:1017E000FFF79AF91A4B1B7D002B02D10123994672
:1017F000E1E7184C2068012149420CF0F9F9144B3B
:1018000000221A7520680CF0DBF901239946D2E713
:10181000307822002900FFF77FF97F00F319434455
:1018200038335A7901218A435A710A4B196847445F
:101830003837F019053002F0A5FBBCE700239946C4
:10184000B9E700239946B6E7D4E10010B0180020AC
:10185000EC040020901B0020F0B585B004001500BA
:101860001E00FFF756FF0700012D17D0022D03D0F1
:10187000002D65D000240EE080483300220039009E
:1018800006F036FB7E480821FFF70EFC29002000F9
:10189000FFF71EFC0124200005B0F0BD2000FFF77B
:1018A0002FFD002803D0774B1B7E022B0FD97648E3
:1018B00033002200390006F01BFB71480821FFF7B6
:1018C000F3FB29002000FFF703FC0124E3E70133C9
:1018D0006E48032200922200390006F009FB6C4D8D
:1018E0002868012149420CF083F9664B01221A75E0
:1018F0001A7E01321A760022DA8228680CF060F92A
:101900002000FFF706FF5E4A2100FFF707F9041EDB
:10191000C1D15C4B1B7D002B05D15E495E485F4AFF
:1019200006F0E6FAB7E75A4D2868012149420CF063
:101930005FF9544B00221A7528680CF041F9ECE766
:10194000504B1B7DDAB2022B34D0032A6ED0012A11
:1019500000D091E04A4BDB88002B2BD0494B1B7DFC
:10196000022B18D1464B1B78DB0921D08022524232
:10197000434BD988434B9B68D2B200912100380079
:10198000FFF742F8041E00D085E742494248444A26
:1019900006F0AEFA7FE73E4D2868012149420CF07F
:1019A00027F9384B02221A7528680CF009F9D9E793
:1019B0000022DDE7324BDB88002B1CD1B6B2314B65
:1019C000DE821B7D032B22D12D4B1B78DB092BD113
:1019D00080225242D2B20023009321003800FFF748
:1019E00013F8041E00D056E7D4222A492A48920050
:1019F00006F07EFA4FE72B482200390006F078FA0D
:101A0000204B98680222310002F09CFBD6E7204D63
:101A10002868012149420CF0EBF81A4B03221A7591
:101A200028680CF0CDF8CFE70022D3E7144B5B78A1
:101A3000092B05D029002000FFF74AFB01242AE7E3
:101A40000F4B1B780393002BF4D1012710E00021EA
:101A50003943C9B22000FFF789FE0136F6B2012EE4
:101A600004D8002EF3D080214942F1E70137FFB2BC
:101A70000F2FDFD8039EF2E700240CE7F8E10010F7
:101A8000881A0020EC04002054E2001028E2001024
:101A9000901B002094FB0010A8DD00103203000012
:101AA0004103000084E2001070B505000E00FFF74E
:101AB00027FE01000122300002F080FA041E09D046
:101AC0002800FFF726FE32002900FEF771FF040010
:101AD000200070BD02490348034A06F009FAF7E7FF
:101AE00040FB0010A8DD00101C040000F8B5070042
:101AF0000C00431EDBB2042B07D8431E5E265E4358
:101B0000164BF6180134E4B203E00026FAE701347C
:101B1000E4B2072C0ED83319587DFFF7BBF9051E28
:101B2000F5D001680E48220006F0E2F92B69210089
:101B300038009847082C00D0F8BDFFF707FB042FAA
:101B400006D8084B002BF7D03800FEF7D3FBF3E79D
:101B50000548390006F0CCF9EEE7C046B018002081
:101B60009CE20010F5020010B8E2001070B586B0DB
:101B70000400C378012B16D0C84B00221A700678D7
:101B80004069731EDBB2042B2CD8731E5E255D43A7
:101B9000C34BED18002D29D0132800D9D5E28300BE
:101BA000C04AD3589F46BD4A13780133DBB2137045
:101BB000BD4A5278FF2A01D0022B03D9FFF7C6FA9B
:101BC00006B070BD6420FEF7F1FBB44B197801310B
:101BD000B648032206F08CF9200000F081FC0028B2
:101BE000EED1EBE7002E07D00025D3E7B049B1488E
:101BF000B14A06F07DF9E3E70025CDE705ACAA4B35
:101C000059791879220000F0C3FF2378DB0710D53B
:101C1000A54B18795979A94B02220092023200F0A3
:101C2000E1FE0028CCD1A249A248A54A06F060F9FD
:101C3000C6E7A44806F02CF9FFF788FAC0E714209D
:101C4000FEF7B4FB9D4B984A51791079032200921C
:101C5000002200F045FF0028B2D1954995489A4AE4
:101C600006F046F9ACE705AC8F4B5979187922009C
:101C700000F08EFFA378DB06A2D58B4B187959793B
:101C80008E4B04220092103200F05AFE002897D1A9
:101C9000874988488D4A06F02BF991E705AC824BBD
:101CA00059791879220000F073FF2378DB0726D5D5
:101CB00005AB5B785A0728D45B08012213407A4AA7
:101CC00093710A20FEF772FB08210020FFF72AFD1E
:101CD00000281CD07E4806F0DBF8784B7D490622B0
:101CE00000920232002000F007FD002800D067E7D4
:101CF000C4226F496F48D20006F0FAF860E77648D0
:101D000006F0C6F8FFF722FA5AE70223D7E7684938
:101D10006848724A06F0ECF852E7634B5A79197931
:101D2000D878FFF709F96E4B187B093843425841C0
:101D3000C0B2FFF7D1F8051E23D0431EDBB2042B3F
:101D400025D8431E5E245C43554BE41865490422A4
:101D5000200004F0B9FD237D012213432375604B5D
:101D6000DB7B6372554A07232900002000F056FDF3
:101D7000002800D024E74E494E485B4A06F0B8F8E8
:101D80001EE74B494B48594A06F0B2F818E70024C1
:101D9000DCE70220FEF70AFBA3689D786B1EDBB22E
:101DA000042B2FD86A1E5E2353433D4E9E19337D6C
:101DB0000222134333753C4C6570E0780021FEF736
:101DC00099FD637D002B23D0374B5B78002B30D0FF
:101DD000717A2800FFF7A6FC00282ED0444806F0B0
:101DE00057F8364B3B49082200920A32280000F08F
:101DF00083FC002800D0E3E62D492E483D4A06F03A
:101E000077F8DDE62A492B483B4A06F071F8D7E619
:101E1000254B1B7D002BD7D0384C2068012149422F
:101E20000BF0E6FE204B00221A7520680BF0C8FE6E
:101E3000CAE71D4BFF225A70CAE71D491D48304AA8
:101E400006F056F8BCE6264C6289AA80227BAA716D
:101E5000627BEA71A27B2A72E27B6A72228A6A81C1
:101E6000628AAA81A28AEA81A27D2A74E27D6A74CA
:101E7000227EAA74627EEA74083421003000FFF7E3
:101E80003BFA092302930D4B019302230093230095
:101E900000220021300000F04FFC91E66635002062
:101EA000B0180020E0FA0010EC040020D8E2001086
:101EB000D8FB0010A8DD0010DB0500006D1B001032
:101EC000EB050000F4E20010F3050000FD05000042
:101ED00050E30010901A002020E300101C060000C0
:101EE000881A0020EF040020330600002C060000B2
:101EF00074E30010450600003C060000901B002023
:101F000042060000E3681A78914B0A210291914938
:101F10000191009200220021300000F00DFC4FE6FC
:101F20008D4B1B7A032B0FD98B4B5A89297C0029A7
:101F30000DD0874B0B200290864801900220009024
:101F4000300000F0F9FB3BE6844AEFE7834A297C46
:101F500000290FD1697C002926D00C281DD07C4B8C
:101F60000D2002907B48019002200090300000F08C
:101F7000E3FB25E6A36818795A7912020243E36865
:101F80001878734B0C240294724C0194009030002A
:101F900000F0D2FB14E6714ADCE7A36818795A799D
:101FA00012020243DBE76D4A697C00290FD1A97C4C
:101FB000002925D00E281DD0654B0F2002906548C2
:101FC000019002200090300000F0B6FBF8E5A36815
:101FD00018795A7912020243E36818785C4B0E2490
:101FE00002945C4C01940090300000F0A5FBE7E502
:101FF0005A4ADCE7A36818795A7912020243DBE7F0
:10200000A97C002916D15648002105F071FF504ADD
:10201000112301934F4B009309230021300000F05E
:102020007DFB002800D0CBE54E494F484F4A05F0D4
:102030005FFFC5E5A36818795A7912020243E36885
:102040001878434B10240294424C019400903000C5
:1020500000F072FBB4E5404B5D8980235B009D423C
:1020600019D8A3681C794248210005F041FF384A7D
:1020700012230193374B00932B002100300000F016
:102080004DFB002800D09BE5D92236493648D200C6
:1020900005F02EFF94E533493348364A05F028FF12
:1020A0008EE5A3681C792A4A21003000FFF725F944
:1020B00000281BD10134E4B2EB7CA34227D9284885
:1020C000210005F015FF224A11230193214B0093B3
:1020D00009232100300000F021FB002800D06FE52B
:1020E00020492148244A05F003FF69E5194A0134D3
:1020F000E1B21323300000F0D3FB002800D05FE5ED
:10210000DA2218491848D20005F0F2FE58E51549C0
:1021100015481A4A05F0ECFE52E5194805F0B8FEDC
:102120002B7D042213432B7509493000FFF71CF85F
:10213000002804D0FF213000FFF7D8FC40E5094912
:102140000948104A05F0D4FE3AE5FEF7FFFF37E5EF
:10215000901A00206D1B0010881A0020090400004E
:102160008CE30010D8FB0010A8DD0010B7060000BB
:10217000BCE30010C3060000D5060000D306000033
:10218000E0E30010E106000030B589B003782F4C81
:10219000E37003792371437963719620FEF706F9A2
:1021A0002079002806D1294B9A78DC780121A140BA
:1021B0008A439A70002807D0244B5979002936D1D8
:1021C0000024200009B030BD204BD878FEF7BEFABD
:1021D000002822D01D4CE078FEF7A4FA3220FEF74A
:1021E000E5F8E078FEF7B0FAE078FEF7AFFA041E03
:1021F0001AD0164DE878FEF7CBFAA871144B800080
:10220000C158144805F074FE02A800230370C3707F
:1022100005334361FFF7AAFCD3E70F4805F038FE0A
:10222000FEF794FF0124CCE7FEF790FFFAE70B4B93
:1022300001220092002200F053FC041EC1D1084983
:102240000848094A05F054FEBBE7C046EC040020EC
:1022500098FE001018E40010F4E300106D1B00104D
:10226000ECFB0010A8DD0010B4050000F0B5C64678
:1022700000B586B08846FFF76BF8002800D065E00F
:1022800006B080BCB846F0BD032B5FD1049B002B89
:102290005CD00598984759E0824B5B78FF2B0BD1B7
:1022A00003AC2178804805F023FE7E4B00225A7053
:1022B0002000FFF769FF49E003AB19787B4805F080
:1022C00017FE7B4C206801F0DDFF06002468626980
:1022D000EFF3108172B61368002BFCD0BFF35F8F51
:1022E000A16103A9200002F00AF86269A369BFF3A3
:1022F0005F8F0021116083F31088002808D003ABA2
:10230000187859784246FEF7FAFF002E1ED0B7E73C
:102310009E2268496848520005F0EAFDF5E7614BE6
:102320001B7D002B56D0654C2068012149420BF0E3
:102330005FFC5C4B00221A7520680BF041FC49E001
:1023400003AB5A7919791878FEF7F6FD584B1C68DB
:102350006069EFF3108272B60368002BFCD0BFF304
:102360005F8FA26103A9200001F0A8FF6269A36941
:10237000BFF35F8F0021116083F31088002800D124
:102380007EE703AB5B78022B2CD000D97CE7002BD7
:1023900000D181E7012BD9D103AB19781A795B7988
:1023A000474805F0A5FD3F4B5B78002BC8D103AB38
:1023B0001B783C4AD0788342C2D1130003AA92888A
:1023C0009B889A42BCD10021FEF794FA354B5B7D85
:1023D000002BA4D0334B5B78002BB7D1314BFF22BD
:1023E0005A70B3E703AC27797F263E40FD09A178F8
:1023F000059B6079334A80008258334800923A0046
:1024000005F076FDA07800280ED1002E06D103AB92
:102410005A79059B3900FFF71FFA97E72B492648A1
:102420002B4A05F065FD2BE7431EDBB2042B00D9D8
:1024300026E7431E5E225A43264BD218137DDB0744
:1024400000D41DE77300D3185B1938335979012480
:10245000A143597159790334A1435971002E13D006
:10246000760092195219507FFEF714FD041E12D007
:102470000168194805F03CFD646903A94A79059B88
:1024800088783900A04761E703AB5A79059B39008A
:10249000FFF7E2F95AE70D490748104A05F028FD11
:1024A000EEE6C046EC04002024E4001040E40010F6
:1024B0009C1B0020ACFB0010A8DD0010901B00202E
:1024C00080E4001054FE0010A4E40010FCFB001097
:1024D0007D020000B0180020CCE40010A50200002E
:1024E00070B582B004004378002B00D0BCE0836854
:1024F000002B00D1BCE006783000FEF701FF051E7E
:1025000000D1B2E05B4B1B7D002B01D00025ACE07D
:10251000594B1868012149420BF06AFB554B1B7D52
:10252000DDB2002B11D1534B01221A755E750022CA
:10253000DA821A76E2689A602269DA6062691A6160
:10254000A1684E48082204F0BFF94B4B18680BF005
:1025500037FB002D01D0002587E03000FFF7D9F8C8
:102560000100A3681A786020104206D15B780C2B1A
:1025700023D8434A9B009B5800E0424B424832001C
:1025800005F0B6FCA0680821FEF78EFD2369002B3C
:1025900022D03000FFF7BDF8384A3100FEF7BEFA0E
:1025A000051E62D1334B1B7D002B08D1B922374960
:1025B0003748920005F09CFC57E0324BDEE72E4C8A
:1025C0002068012149420BF013FB2A4B00221A75A7
:1025D00020680BF0F5FAE9E76B46DA1D0423137067
:1025E000244B1A612B4ADA603000FFF792F8234A35
:1025F0003100FEF793FA051E03D11E4B1B7D002B05
:1026000010D1002D1BD06B4607331B78042B1CD137
:10261000FEF776FF0028F6D0012000214042FFF7A8
:1026200025FEF0E7144E3068012149420BF0E0FA34
:10263000104B00221A7530680BF0C2FAE1E713491B
:102640001348154A05F054FC0FE06369002B03D0D2
:102650006A46073212781A706B4607331B78E370AC
:10266000044BDB8A636000E00025280002B070BDE7
:102670000025FAE7EC040020901B0020881A0020B7
:1026800064FE0010E4E40010F4E4001080FB00108D
:10269000A8DD0010D10E0010EE020000F0B589B0E8
:1026A00007001E000EAB18886C4623781F25AB432D
:1026B0002370DBB24135AB432370DDB280235B4234
:1026C0002B432370062363700902114361800023AA
:1026D000A380E08002AD18220021280004F0EEF86B
:1026E0002F70049405960F9B0693109B0793280068
:1026F000FFF7F6FE09B0F0BD10B584B0141C122A25
:1027000000D91224A4B2069A0292019300940B00FD
:1027100000220121FFF7C2FF04B010BD10B584B044
:10272000079C0294069C0194009313000A00022166
:10273000FFF7B4FF04B010BDF0B589B007001E006C
:102740000EAB18886C4623781F25AB432370DBB291
:102750004135AB432370DDB280235B422B432370B2
:1027600006236370C0239B000B436380A280E0803C
:1027700002AD18220021280004F0A0F82F70049464
:1027800005960F9B0693109B07932800FFF7A8FE62
:1027900009B0F0BDF0B5D6464F464646C0B588B044
:1027A00006000F0015009A4610AB04CB90461B881C
:1027B0009946194805F06CFB06AC23781F22934319
:1027C000012213432370DBB2602293432370DAB2F9
:1027D00080235B4213432370062363702D0253460C
:1027E0001D436580A7804B46E3806D46182200217B
:1027F000684604F063F82E70029443460393129BDC
:102800000493139B05936846FFF76AFE08B0E0BC8B
:10281000BA46B146A846F0BD04E50010F0B5C6467C
:1028200000B588B080460D0017001E00184805F05E
:102830005FFB06AC23781F2293432370DBB2413247
:1028400093432370DAB27F23134023700523637010
:1028500065800023A380E3806D461822002168462E
:1028600004F02CF843462B700294049705966846B2
:10287000FFF736FE041E04D0200008B080BCB84626
:10288000F0BD04490448054A05F032FBF4E7C046B0
:1028900020E5001030FB0010A8DD0010D704000078
:1028A000F0B5C64600B588B080460D0017001E0082
:1028B000134805F01DFB06AC23781F2293432370B9
:1028C000DBB2413293432370DAB27F23134023708B
:1028D0000923637065800023A380E3806D4618227E
:1028E0000021684603F0EAFF43462B7002940497E8
:1028F00005966846FFF7F4FD08B080BCB846F0BD09
:1029000034E5001010B50400C378002B09D102781B
:10291000053AC168084BD20098180430042203F02D
:10292000D3FF064A1368236100211160002B01D0F8
:102930002000984710BDC046F02D00205C350020D7
:10294000F0B5CE46474680B589B080460F001600E8
:102950009946002936D1002206AC23781F218B43EB
:1029600013432370D9B26023994320231943217064
:10297000CAB27F2313402370012363706680A7804F
:102980000023E3806D4618220021684603F096FF7D
:1029900043462B7002944B460493109B05930D4BBA
:1029A000B600F1580C483B00424605F0A1FA6846D3
:1029B000FFF796FD041E07D0200009B0C0BCB94641
:1029C000B046F0BD0322C7E704490548772205F069
:1029D0008FFAF1E710FD00105CE50010F8FC001024
:1029E000A8DD0010F0B5CE46474680B589B08046D8
:1029F0000F0016009946002936D1002206AC237834
:102A00001F218B4313432370D9B2602399432023A2
:102A100019432170CAB27F231340237003236370CC
:102A20006680A7800023E3806D4618220021684657
:102A300003F044FF43462B7002944B460493109BD3
:102A400005930D4BB600F1580C483B00424605F08B
:102A50004FFA6846FFF744FD041E07D0200009B076
:102A6000C0BCB946B046F0BD0322C7E704490548DB
:102A7000932205F03DFAF1E710FD00108CE50010FF
:102A8000E0FC0010A8DD001010B582B0C378002B68
:102A900014D10078411F0A010C4BD21894790C4BC9
:102AA000C9005B189C70527ADA700A4B00220092BF
:102AB00008320121FFF796FF02B010BD322206490D
:102AC0000648FF3205F014FAF6E7C046E02D002074
:102AD000F02D0020E52C0010ACFC0010A8DD00104B
:102AE000F0B5CE46474680B589B007000D1E914629
:102AF00098463FD1002206AC23781F218B43134315
:102B00002370DEB260239E4320231E432670F2B260
:102B100080235B4213432370002363706380A5808E
:102B20000433E3806E4618220021684603F0C6FE97
:102B3000377002944B46039343460493109B0593CE
:102B4000002D19D07B1F0E4904911B010D495B1804
:102B5000043303930C4B42461A600C482A00390098
:102B600005F0C6F96846FFF7BBFC09B0C0BCB94622
:102B7000B046F0BD0322BEE7034B00221A60ECE72B
:102B800005290010E02D00205C350020B8E500107C
:102B900010B5010010000539044BC9005918043163
:102BA000042203F091FE012010BDC046F02D00204C
:102BB00010B503480822002103F080FE012010BD5B
:102BC000F02D002001207047F8B50D001400527957
:102BD000092A34D1A279002A34D1E279012A33D8E2
:102BE0000F2B10D92778E7197B78052B04D1FA78B9
:102BF000023B1340032B0DD014491548E92205F080
:102C000077F900261CE011491148E52205F070F91A
:102C1000002615E039002800FEF746FF061E08D002
:102C2000053DA2780B4BED00EA54BA785B195A7057
:102C300006E006490648EB2205F05AF900E00026B6
:102C40003000F8BD0026FBE70026F9E7D4FC0010B1
:102C5000A8DD0010F02D002010B50100042806D9D1
:102C6000441FE400074BE4186378002B00D110BD2B
:102C7000054805F03DF908220021200003F01EFE62
:102C8000F5E7C046F02D0020E4E5001070B582B0F5
:102C90000500461F114BF2009B185978FEF744FCC3
:102CA000041E02D1200002B070BD0C4BF2009B1834
:102CB000597832010A4BD218002301930093013353
:102CC0002800FEF799FC041EECD1044BF6009B197A
:102CD00059782800FEF760FCE4E7C046F02D00209C
:102CE000E02D002030B583B0C378002B18D10478D4
:102CF000651F83681A79597909021143154BEA0057
:102D00009B189B78994212D0C9B20131C9B2124BBB
:102D10000022009208322000FFF764FE03B030BDAD
:102D2000A2220E490E48520005F0E2F8F6E7200014
:102D3000FFF7ACFF002806D0064BED00E95C200051
:102D4000FEF7D4FEEAE74E2204490548FF3205F0BB
:102D5000CFF8F1E7F02D0020E52C001090FC0010DA
:102D6000A8DD0010F0B587B00478C378002B26D119
:102D700083681F79651F4369022B38D0032B71D0FC
:102D8000012B00D08BE0C16803AD0422280003F0C2
:102D90009BFD6A884948210005F0AAF8AB78DA075C
:102DA00019D49B077BD5464805F072F8454B0422A1
:102DB0000092033A00212000FFF7C2FD6DE02000E1
:102DC000FFF764FF00286FD192223F493F48FF324E
:102DD00005F08EF868E03E4805F05AF8394B0422B9
:102DE0000092002200212000FFF7AAFD55E0394B98
:102DF000ED005B199B79DA0710D49A0717D45A07AC
:102E00001ED41A0725D4DB0649D52E4B0422009286
:102E1000103239002000FFF793FD3EE0294B0322DA
:102E200000920D3239002000FFF78AFD35E0254B76
:102E3000042200920D3239002000FFF781FD2CE0C2
:102E4000204B042200920E3239002000FFF778FD5B
:102E500023E01C4B042200920F3239002000FFF7C0
:102E60006FFD1AE003AE0C220021300003F026FDB6
:102E70002000FEF74EFC3070164BED005B191A79FE
:102E800001239343737034717771002130000AF08D
:102E9000BFFE707843425841C0B2002804D12000E0
:102EA000FFF7F4FE002801D007B0F0BDED2206497F
:102EB0000648520005F01CF8F6E7C046FCE5001095
:102EC00044E60010652D001070FC0010A8DD001015
:102ED0002CE60010F02D0020F0B589B00500441F4D
:102EE000174BE200D35C8B4209D0142215491648D7
:102EF000FF3204F0FDFF0024200009B0F0BD06AF52
:102F0000124B3A0003CB03C26E46182200216846DA
:102F100003F0D4FC3570029724010D4BE4180434FF
:102F200003940C4B04936846FFF7DAFA041EE3D1CE
:102F3000962204490448520004F0DAFFDCE7C04658
:102F4000F02D0020C4FC0010A8DD00106CFD001066
:102F5000E02D0020892A0010F0B583B00500002A7A
:102F60002AD1471F204B3A01D65C2048310004F09B
:102F7000BFFF002E20D001231C00344033420DD16E
:102F800001211B4BFA009B189B788B4212D3330014
:102F9000CB40DB0718D40131C9B2F2E73A01124B3A
:102FA000D2180432134B0121009100212800FFF7B1
:102FB00097FD0400002C04D12800FFF767FE041ED3
:102FC0000BD0200003B0F0BD0A4B02220092002279
:102FD0002800FFF785FD0400ECE788220649074832
:102FE000FF3204F085FFECE7E02D002054E60010EE
:102FF000F02D0020652D001084FC0010A8DD0010CD
:1030000010B50400002001E00130C0B20B2817D831
:103010000C4AC3001B1A5B009B5CA342F4D1130053
:10302000C200121A52009B189B788B4209D0054BA4
:10303000C200121A52009B18DB788B42E4D100E0E8
:10304000FF2010BD7416002000230B2B0BD807495E
:10305000DA00D21A5000425C002A02D00133DBB2FF
:10306000F3E7401800E000207047C04674160020C7
:10307000F0B5CE46474680B589B0804689461600F1
:103080001F001848110004F033FF06AC23781F22FC
:103090009343012213432370DDB260239D43202319
:1030A0001D432570EAB27F23134023700B23637006
:1030B00066804B46A3800023E3806D4618220021E2
:1030C000684603F0FBFB43462B7002940497109B69
:1030D00005936846FFF704FA09B0C0BCB946B0468C
:1030E000F0BDC04668E70010F0B5CE46474680B553
:1030F00089B00700884691461E00174804F0C8FEB4
:1031000006AC23781F229343012213432370DDB2C0
:1031100060239D4320231D432570EAB27F23134083
:1031200023700A2363704B4663804346A3800023C9
:10313000E3806D4618220021684603F0BFFB2F7024
:1031400002940496109B05936846FFF7C9F909B0ED
:10315000C0BCB946B046F0BD80E7001070B5041E93
:1031600018D00B2916D8C800451A6D000C4EAD19A1
:10317000401A4000805D84420BD10120287109482B
:10318000002802D0200000E000BF69782000FEF790
:10319000ADFC70BD044905484D2204F0A9FEF8E7D6
:1031A000741600200000000094FD0010A8DD00103F
:1031B00010B50400002001E00130C0B20B280FD888
:1031C000084AC3001B1A5B009B5CA342F4D11300A6
:1031D000C200121A52009B185B788B42ECD100E0BF
:1031E000FF2010BD74160020F0B5CE46474680B5CE
:1031F00085B00400826853780A3BDBB2012B02D908
:10320000C378002B29D163699846137999462678AB
:1032100019003000FFF7CCFF0500002E24D00B284A
:1032200022D8C3001F1A7F00334ABF181B1A5B0045
:103230009B5C9E421DD14346022B3CD01ED8002BE6
:103240002BD0012B15D12D4B2D4A127879780220E5
:1032500000903000FFF70CFF0BE08E2229492A482E
:10326000920004F045FE04E0284927484D2204F06E
:103270003FFE05B0C0BCB946B046F0BD032BF8D147
:10328000FEF74EF90200A3689979DB791B020B4324
:1032900029003000FFF762FFEBE77B79002B08D0B5
:1032A0000122164B0092002249463000FFF71CFF16
:1032B000DFE70222F5E7398980235B00994209D9CB
:1032C000134804F015FE0023002229003000FFF708
:1032D00045FFCEE7FC79FEF723F903230393074B61
:1032E00002933B890193009000232200494630005D
:1032F000FFF750FABDE7C04674160020E931001010
:103300006435002074FD0010A8DD001094FD00104D
:1033100090E7001010B505480E2104F0E9FD0448BF
:10332000A822002103F0CAFA012010BDCCE700104A
:103330007416002001207047F8B505001E00CF0963
:10334000FFF75EFE0400002D18D00B2816D8174A90
:10335000C3001B1A5B009B5CAB4214D1012F14D03D
:10336000134B002B1FD0C2014032124BD218B3B204
:103370000100280000E000BF012005E00E490F48D1
:103380004D2204F0B5FD0020F8BD0D48210004F0E9
:10339000AFFDE201074BD218B3B221002800FDF7C0
:1033A00009F80120F0E70120EEE7C046741600207E
:1033B000000000007410002094FD0010A8DD001033
:1033C000ECE7001070B50600002406E00E22002194
:1033D000280003F073FA0134E4B20B2C14D8E30094
:1033E0001A1B520009495518535CB342F3D10848DF
:1033F0002200310004F07CFD064B002BE6D02100BA
:10340000300000E000BFE1E770BDC0467416002048
:1034100010E8001000000000F0B5D6464F464646C2
:10342000C0B58A4615001C005379032B06D0002630
:103430003000E0BCBA46B146A846F0BD9278434899
:1034400004F056FD2A79D3009B1A9BB212339BB22B
:10345000A34212D82B789946A9444B465B78212B7E
:1034600013D1FFF7F1FD8046002816D052460270B6
:103470004B461C784C44002733E0F322344935484E
:10348000520004F035FD0026D2E7F62230493148DB
:10349000520004F02DFD0026CAE7F0222C492D48E9
:1034A000FF3204F025FD0026C2E7F822284929480A
:1034B000FF3204F01DFD0026BAE7FC22244925480E
:1034C000520004F015FDB3E7424693702279637908
:1034D0001B0213435B055B0D424653812378E418BE
:1034E00001372B79BB4217DD6378052BDDD1210035
:1034F0005046FEF7D9FA061EDFD0A378DA09012A72
:10350000E2D04246D370227963791B0213435B05F4
:103510005B0D42469381E1E7AB78424653704B46E0
:103520009B79D3714B46DA791B7A1B0213434246CF
:103530001381094B1B789371AB79012B01D00126C4
:1035400076E7EB795371012672E7C04634E8001044
:1035500088FD0010A8DD00106435002010B588B08B
:1035600006ACA1806B4618700022DA7002940592B6
:103570006846FFF739FE012008B010BDF8B5040019
:103580000E684B681B7B002B28D1451EFDF7C8FF3A
:1035900007683FBA737B0137144A0233DB003421DA
:1035A00069435B18D3189F60737B406800BA02338D
:1035B000DB005B18D31858605218012353710C4B71
:1035C000002B02D0200008F085FF084B34226A430C
:1035D000D15C2000FEF78AFA0120F8BDEA220549F5
:1035E0000548FF3204F084FC0020F6E7DC170020D9
:1035F000D5C40010A0FD0010A8DD0010421E044B31
:103600000231C9003420504308181B1898687047CD
:10361000DC170020421E044B0231C9003420504305
:1036200008181B1858687047DC170020421E034B0F
:10363000342050431B185879C0B27047DC17002063
:10364000F0B585B00700029116000393451E1E4C8D
:1036500034236B43E4182379DCB2002B02D1200021
:1036600005B0F0BD184B34226A439B189978FDF7DA
:103670005BFF041EF3D0154C6B005B191B01E418B3
:103680001F220299200003F01FF90F4B34226A43D6
:103690009B189E60039ADA600A9A1A6101229A7155
:1036A00099780023019300931F3322003800FDF71F
:1036B000A3FF041ED3D1044B34226A439B1899788C
:1036C0003800FDF769FFCAE7DC1700201C1700204F
:1036D000F0B58DB005000F0003921E00421E134C82
:1036E00034235343E4182379D8B2002B01D10DB011
:1036F000F0BD04AC1F220021200003F0DFF80C4BCA
:1037000004930C4B05936773082306937833237354
:10371000763BA3731B33E373129B00933300039A2E
:1037200021002800FFF78CFFE1E7C046DC170020EE
:103730005553424342535554F0B58FB005000F0026
:1037400002920393421E1A4C34235343E4186379C4
:10375000D8B2002B01D10FB0F0BD06AC1F22002162
:10376000200003F0ABF8134B0693134B07936773DA
:1037700024260896802323737A3BA37304AF062282
:103780000021380003F09AF812233B703E710622A4
:1037900039001F2002AB9C46604403F095F8149951
:1037A0000091039B029A21002800FFF749FFD2E70E
:1037B000DC1700205553424342535554F0B58DB0A9
:1037C00007000D0003921E00421E104C3423534389
:1037D000E4182379D8B2002B01D10DB0F0BD04ACB0
:1037E0001F220021200003F069F8094B0493094BC4
:1037F000059365730623A37325740096039B00222B
:1038000021003800FFF71CFFE7E7C046DC17002067
:10381000555342434253555470B50478651EC378DE
:10382000002B17D0104B34226A439B180122DA7008
:103830000D4B34226A439B18D9780C4804F058FB8E
:103840000B4804F025FB0B4A002300212000FFF762
:10385000B5FF70BDFDF764FE02780132024B3421E2
:1038600069435B18DA70E3E7DC17002054E80010C6
:1038700068E800103539001010B50A684B681B7BEA
:10388000002B08D1517B0B4A0023FFF797FF041E42
:1038900009D0200010BDE22207490848FF3204F099
:1038A00027FB0024F5E7F12203490448520004F005
:1038B0001FFBEEE735390010C0FD0010A8DD001039
:1038C000F0B5CE46474680B58DB081460D00170055
:1038D000984604AC1F220021200002F0EFFF134B9A
:1038E0000493134B05936573122606968023237366
:1038F0007A3BA37302AD06220021280002F0DEFF0E
:1039000003232B702E71062229001F20684402F029
:10391000DBFF149B009343463A0021004846FFF723
:103920008FFE0DB0C0BCB946B046F0BD5553424302
:1039300042535554F0B583B004000E684F68FDF74C
:10394000EFFD05003B7B002B0ED1114804F0A0FADF
:10395000717B104B002200922A002000FFF7B8FE76
:103960000124200003B0F0BD0B4804F091FA717BF4
:103970000A4B002200922A002000FFF7A1FF041E3C
:10398000EFD1D82206490748FF3204F0B1FAE8E740
:1039900080E800107D35001094E8001079380010A0
:1039A000E0FD0010A8DD0010F0B5C64600B590B0EF
:1039B00007000C000292039316AB19888846451E37
:1039C000294934236B43C9184B79D8B2002B03D152
:1039D00010B080BCB846F0BD08AE1F2200213000F8
:1039E00002F06CFF214B0893214B099374731E4B1B
:1039F0000234E40034226A43A4181B195B68414670
:103A00004B430A9380233373763BB37305AC0A228E
:103A10000021200002F052FF28232370039B1DBACF
:103A20000E2302AA944663441A002B041B0C138035
:103A30002D0C558043465BBA9AB213206044FF2197
:103A40000B400370120A42700A22210027206044B2
:103A500002F03AFF189B0093179B029A310038003E
:103A6000FFF7EEFDB4E7C046DC1700205553424394
:103A700042535554F0B5C64600B590B007000C004F
:103A80000292039316AB19888846451E28493423B1
:103A90006B43C9184B79D8B2002B03D110B080BC4E
:103AA000B846F0BD08AE1F220021300002F006FF2C
:103AB000204B0893204B099374731D4B0234E40090
:103AC00034226A43A4181B195B6841464B430A938E
:103AD0000A23B37305AC0A220021200002F0EEFE97
:103AE0002A232370039B1DBA0E2302AA9446634423
:103AF0001A002B041B0C13802D0C558043465BBA17
:103B00009AB213206044FF210B400370120A4270E6
:103B10000A2221002720604402F0D6FE189B009361
:103B2000179B029A31003800FFF78AFDB6E7C046BE
:103B3000DC170020555342434253555410B50748F3
:103B4000342104F0D5F90648302104F0D1F90548B4
:103B5000D022002102F0B2FE012010BDA8E8001022
:103B6000C8E80010DC1700200120704770B5040081
:103B7000042807D8461E342575430E4BED182B79C3
:103B8000002B00D170BD0C48210004F0B1F9094BA5
:103B9000342272439B185B79002B05D0074B002B16
:103BA00002D0200008F0ACFC34220021280002F0F2
:103BB00085FEE7E7DC170020E4E8001001C50010EF
:103BC000F0B589B00392461E7400A7193F01444A1C
:103BD000BF18A41924012034A218424C342575437F
:103BE0006419A479022C48D0032C5CD0012C71D12B
:103BF0003C4C6419A4788C4204D10399002901D16A
:103C00001F2B07D0A22238493848520004F070F91F
:103C1000002460E0324B7100891909015B189B6830
:103C2000002B2AD02F493425754349198F68002F5E
:103C300023D02C4A52190221917129497500AD19DE
:103C40002D0149190C228A56002A10DB9BB2002252
:103C5000019200923A002100FDF7CEFC041E3AD1F9
:103C60004A2221492148FF3204F042F933E01D4A3B
:103C70003421714352185478E8E71A4B34217143C8
:103C80005B180321997159780023019300930D3338
:103C9000FDF7B2FC041E1ED1A9221349134852009D
:103CA00004F026F917E00F4B342171435B18002113
:103CB0009971DC68002C11D004A904974A60094B63
:103CC000342272439B189A688A601B69CB60A047B4
:103CD000012400E00124200009B0F0BD0124FAE72E
:103CE0001C170020DC1700201CFE0010A8DD0010AF
:103CF000F0B5CE4600B582B0019114009279062A43
:103D000054D1E279502A57D12179CA00521A92B27D
:103D1000093292B29A4206D8019B013B9946277814
:103D2000E71900251FE0BE2224492548520004F06F
:103D3000DFF800263BE0C12220492148520004F070
:103D4000D7F8002633E084221C491D48FF3204F0D6
:103D5000CFF82CE01B4B3422484642439B18597045
:103D60003B78FF180135012D18D87B78052BE2D15F
:103D7000FA78023B1340022BDDD139000198FDF7A0
:103D800093FE061EDFD0B978CB09012BE2D00D4B94
:103D90003422484642439B189970E1E7A178094BC9
:103DA000342248464243D154012600E00026300028
:103DB00002B080BCB946F0BD0026F8E710FE001046
:103DC000A8DD0010DC170020F0B589B005000E005A
:103DD000411E254B34224A43D35CB34209D096227C
:103DE00022492348FF3204F083F80024200009B060
:103DF000F0BD1D4B34224A439B1801271F711D48FB
:103E000004F046F806AC23781F22934301221343A3
:103E10002370DBB260229343202213432370DAB273
:103E200080235B4213432370FE236370002363806F
:103E3000A680E780FDF774FB07006E46182200217C
:103E4000684602F03BFD3570029403970A4B0493D9
:103E50006846FEF745FB041EC8D1B022034904485A
:103E6000FF3204F045F8C1E7DC17002000FE001027
:103E7000A8DD001000E900101938001070B5060028
:103E80000D000B4804F034F8002403E003F0F2FFC7
:103E90000134A4B2AC4207D2305D064B1B5C6822F1
:103EA0009343F3D12E20F1E7034803F0F1FF70BDF7
:103EB00014E90010D507011018E9001010B582B000
:103EC00000290AD001281CD80B78002B19D0164ADB
:103ED0001354022B1ED0012419E001A902230B70F8
:103EE00000234B700020FDF73DFA041E03D00E4B5B
:103EF00002221A700BE00D490D48512203F0F8FF21
:103F000005E00A490A485B2203F0F2FF0024200082
:103F100002B010BDFDF726FA041EF8D1034904488B
:103F2000662203F0E5FFF2E7AC18002040FE001027
:103F3000A8DD001070B504000D000378DB07D80F72
:103F4000002B1DD123785B07DE0F002B19DB01212D
:103F50004942280009F04CFE2378DB07DA0F002BDA
:103F600007D123785B0709D42378042213432370F5
:103F70000126280009F024FE300002E01600F8E7D0
:103F8000002070BD70B506000C00012149422000E0
:103F900009F02EFE33785B07DD0F002B04DB2000D9
:103FA00009F00EFE280070BD3378DB0704D43378A7
:103FB000042293433370F2E70025F0E7F8B50600DA
:103FC0000F0015000379447924021C436405640D35
:103FD00081783448220003F08BFFF3789B079B0F16
:103FE000022B14D0032B48D0012B58D1022F04D020
:103FF0002D4BA34204D3012052E08023DB00F8E7DD
:104000002A492B48EF2203F073FF002048E0022FDB
:1040100019D0002D03D080239B009C4220D0202C5F
:1040200027D8082C07D3083CA4B2224BE340DB0777
:10403000D80F002B34D180221C491D48520003F0B8
:1040400057FF00202CE080239B009C4201D10120DF
:1040500026E016491648F62203F04AFF00201FE02A
:10406000154803F015FF40233371002373712800B6
:1040700016E0402CDFD1012012E0022F04D04023B3
:10408000A34204D301200BE08023DB00F8E7842265
:1040900006490748520003F02BFF002000E00020F3
:1040A000F8BDC0461CE90010FF0300002CFE001004
:1040B000A8DD0010010100013CE90010F0B5C64682
:1040C00000B580460C001E008D1801E021786418B0
:1040D000AC420FD261780529F8D1A77807483200A1
:1040E000390003F005FF7F21394049004144FB09B5
:1040F000CE54EBE780BCB846F0BDC0467CE900106A
:1041000070B50600030000200C000139C9B2002C74
:1041100016D03478201880B21C781B1902E02018C1
:1041200080B21B199042EFD21C78002CECD05D7845
:104130000B2D05D0042DF2D1DD78002DEFD1E3E772
:1041400070BD0000F0B5C64600B582B006008846D6
:10415000170000280AD0002908D06B462A4A00928E
:1041600000221A7132329A7000251FE0274803F0AE
:104170008FFE44E0102130001038FFF77FFE1BE077
:10418000202003F077FE0134E4B2BC42F8D32901C9
:1041900009091F4803F0ACFE34780136202003F0F3
:1041A00069FE2100684603F0A3FE0135454505D2AE
:1041B0002B07F1D1002DDDD10024E6E70F23474680
:1041C0001F404246134213D0FBB29846002506E03A
:1041D000202003F04FFE0134012CF9DD01351023BE
:1041E000DB1BAB4206D9202003F044FE0024F3E79A
:1041F000102398464346F01A4146FFF73FFE02B0AF
:1042000080BCB846F0BDC04625303058A0E900104B
:10421000A8E9001003008A1890B2814202D85A001F
:10422000904203DB5B009BB2C01A80B2704770B54E
:1042300005000800AC889A420BD3D11A89B2002934
:104240001ED08C4210D2944209D8121B93B26B81BB
:104250000AE0D11A89B26600891989B2EFE7A2187B
:1042600093B2F4E71B1B9BB29C42FBD92968EA88F6
:104270005204520C5343C91802F026FB012070BDB2
:104280000020FCE703894089181A43425841C0B214
:10429000704710B58488028993B2418988B29142EF
:1042A00006D81B1A9BB20020A3424041C0B210BDE9
:1042B0001B1A9BB262009B189BB2F4E770B5040016
:1042C0000D000069002803D00121494209F090FC4B
:1042D000228992B263899BB229002000FFF7A7FFD1
:1042E0000500618989B2A0882A00FFF793FF6081E9
:1042F0002069002801D009F063FC280070BDF8B5E2
:1043000004000E00C068002803D00121494209F0D2
:104310006FFC2589ADB22000FFF7BBFF002802D05B
:10432000E779FF0916D0A2882B0001E09B1A9BB207
:104330009A42FBD92068E2885204520C5343C018B9
:10434000310002F0C1FAA08801222900FFF762FFC4
:1043500020810127E068002801D009F031FC3800F5
:10436000F8BD10B50400C068002803D001214942FF
:1043700009F03EFC2069002803D00121494209F0E0
:1043800037FC002363812381E068002801D009F015
:1043900017FC2069002801D009F012FC012010BD93
:1043A000074B9B68103080001950BFF35F8FBFF33D
:1043B0005F8F044B0021196082F310887047C0465C
:1043C00000ED00E0240100D00048704700E400E068
:1043D00010B5FFF7F9FF002302E0034A04C00133E0
:1043E000072BFAD910BDC0468080808010B50388A5
:1043F000DA0A1C2A05D15B055B1502335B00C01885
:1044000010BD034B034A8E210348490003F0A8FB6B
:1044100080EA0010F0FE001098EA001010B5091AAA
:104420000B1F0A4A88180A4A904208D8C90706D4BE
:104430005B105B055B0D0748184380B210BD064B4F
:10444000064A87210648490003F08AFBFC07000062
:10445000FE0F000000E0FFFFE0EA0010E4FE0010A5
:1044600098EA001010B5091A04394A08090B08D156
:104470004905490D064B0B430380064B134343800C
:1044800010BD054B054A8B210548490003F068FB28
:1044900000F0FFFF00F8FFFF10EB0010C0FE00105F
:1044A00098EA001001238340034A10681840431E15
:1044B0009841C0B27047C04600E100E0002A05D034
:1044C000044BC0225200995019607047014A802362
:1044D000D150FAE700E100E010B50A001F230340C5
:1044E000012199404009FFF7E9FF10BD024B9B688D
:1044F00010308000C058704700ED00E070B5040037
:104500000D00EFF3108672B60C4B1B68002BFBD02E
:10451000BFF35F8F2000FFF7E9FF094B984201D0FE
:10452000A84205D1320029002000FFF739FF70BDF5
:10453000044B054A0548ED2103F012FB240100D08D
:10454000C101001020EB001018FF001098EA0010C5
:10455000F0B5DE4657464E464546E0B589B0814641
:1045600001911500EFF3108B72B66F4B1B68002B97
:10457000FBD0BFF35F8F6D4B00269E57002E40DBB4
:104580007400A419A4006A4824180622A256674B96
:104590001A70684B9A684B4610339B00D358984664
:1045A0001B1A2F2B3BD9644B984531D105AF634B78
:1045B0003B80634973009A46981980005C4B98468B
:1045C00040440230FFF72AFF78805E4BBB80FF2318
:1045D000BB71FD71019B0793330053449B0043441F
:1045E00007CF07C301231C43A0465A46414648460D
:1045F000FFF7D6FE09B0F0BCBB46B246A946A046BE
:10460000F0BD514B514ABE215148490003F0A8FA70
:10461000504B4E4A84214E48FF3103F0A1FA01234A
:1046200042469A439246101A0C2101F037FA0029AB
:104630000FD153460027DA79AA4212D906215956DA
:1046400000290DDB4A005218920039491F008B18CF
:10465000F1E7414B3D4ACA213D48490003F080FA49
:104660001F00002F2ED005AB3C4A1A80813A5A8099
:104670000623FB560293002B17DA394805AB9A46FE
:104680009880029A9A71DD71019A0792381D210073
:10469000FFF7C4FEB880BE71254B720092199200DC
:1046A0009B18524613CA13C39FE7381DFFF79EFE9F
:1046B00001007000801980001D4BC0180430FFF706
:1046C000ADFEDBE705AF1D4B3B801D497300029338
:1046D0009B199B00164A90461A0042440392901C74
:1046E000FFF79CFE7880039A101D5146FFF796FE57
:1046F000B8801C4B52464146521A524153431B0D3F
:10470000BB71FD71019A0792029B9B199B00434468
:1047100007CF07C3114B52461380813B53800123BF
:104720001C43A04661E7C046240100D06735002045
:104730002405002000ED00E0C101001000A1FFFFF2
:104740005405002001BDFFFF58EB001000FF0010D2
:1047500098EA001080EB0010A8EB00100148000060
:1047600001BD0000AAAA0000F0B5CE46474680B5BC
:1047700083B006000D00EFF3108872B64F4B1B6834
:10478000002BFBD0BFF35F8F4D4B9A683400103481
:10479000A300D7584B4B9F4207D0AF4200D18AE0CD
:1047A0000197494BFB1A2F2B09D94246390030009B
:1047B000FFF7F6FD03B0C0BCB946B046F0BD30000F
:1047C000FFF770FE814600213000FFF785FEBFF342
:1047D0005F8FEFF30581002901D08C4211D10123B5
:1047E000019C9C430020A3689D4211D00622A25642
:1047F000002A0CDB53009B189B00334A2000D4187E
:10480000F1E7324B324A3348334903F0A9F920002B
:104810009D4249D106256557002D2BDB2A4B6A00A6
:10482000521992009B189A68A260DA79E2719B791A
:104830005BB2A371002B0FDA2848A080224B6A00DC
:10484000521992009B18264A1178997115704946A1
:104850003000FFF741FEA8E76800401980001A4BBE
:10486000C0180430FFF7C2FD0100231D1800FFF738
:10487000D5FDE2E7002912D100280ED0FF23837175
:10488000184B838016490B78A3710F4A164BA41A54
:10489000644163431B0D0B70D9E70A4FF2E71349DC
:1048A000201DFFF7DFFDD2E7114B094A912109488E
:1048B000890003F055F9034F77E7C046240100D083
:1048C00000ED00E0C1010010240500202CEC0010D8
:1048D000D0FE001098EA00100202000001BD0000A6
:1048E0006735002001BDFFFFAAAA00005E05002079
:1048F00060EC001070B505000C00FFF765FDAB081B
:104900009B00C218116803232B40DB00FF20984056
:1049100081439C402143116070BD0000F8B5012225
:1049200002432C4BD31A2F2B28D8EFF30583002BEF
:104930002AD0EFF3108472B6274909680029FBD00A
:10494000BFF35F8F234D25490600761B76417143E7
:10495000090D4DB2224989689B00C958914219D06E
:104960000021032930D81B4B4A00521892009B1893
:104970009B795BB2AB421DD00131F2E7194B1A4A69
:104980001A481B4903F0ECF81A4B174A17481A4902
:1049900003F0E6F8124A92681849D150184B1A7879
:1049A00082711D70BFF35F8F0B4B00221A6084F37E
:1049B0001088F8BD074B4A005618B6009E19FF270D
:1049C000B771104AB280E9E70F4B074A07480F4911
:1049D00003F0C6F824050020240100D0AAAA000094
:1049E00000ED00E068EC0010A4FE001098EA001052
:1049F0007F02000090EC001082020000C101001054
:104A00006735002001BDFFFF9CEC00109302000001
:104A10000FB400B583B0084803F03AFA049B002BAA
:104A200007D005A90191180003F042FA034803F0EA
:104A30002FFA012003F046F8A4EC0010E8DF001084
:104A4000EFF3108072B6034B1B68002BFBD0BFF353
:104A50005F8F70472C0100D0BFF35F8F024B0022A5
:104A60001A6080F3108870472C0100D0F8B506005A
:104A70000C001500FFF7E4FFE308F718F15C0722CC
:104A80002240012393400B4205D1DBB20B433B7024
:104A9000FFF7E2FFF8BD21002800FFF7B9FFF0B5EE
:104AA00083B00600019114001F00FFF7C9FF00E06A
:104AB0000134BC420CD8E308F518F35C072121400F
:104AC00001228A401A42F3D1D2B21A432A7001E07D
:104AD00001246442FFF7C0FF002C02DB200003B07A
:104AE000F0BD019B002BF9D00898FFF791FF000063
:104AF000054A1078431CDBB21370172B02D9130040
:104B000010221A707047C0466C05002010B582B0A4
:104B10000100054C054B00931F2318222000FFF7CE
:104B2000BEFF02B010BDC046701D0020B4EC0010E6
:104B3000002307E0054A9A189200BFF35F8F002117
:104B4000116001331F2BF5D97047C0464000003477
:104B5000024B9C466144890001607047400000346C
:104B600010B50400FFF7C4FF01002000FFF7F0FFBD
:104B7000FF232371BFF35F8F10BD10B50400FFF753
:104B8000B7FF01002000FFF7E3FFFF23237100239D
:104B90006371BFF35F8F10BD10B50D4C09E00D4B75
:104BA0000D4A0E481A2102F0DBFF2000FFF7D8FF64
:104BB00008340B4B9C4209D22368002BF5D0012B03
:104BC000EDD12000FFF7D9FF0834F2E710BDC04651
:104BD000540B0020D0EC001058FF0010F0EC001037
:104BE0005C0B0020034B9C46614489000160BFF3CD
:104BF0005F8F70474000003410B504000120FFF7BC
:104C000085FF01002000FFF7EDFF10BD30B5846A7D
:104C1000151B0B1D9B001B581B1B9D4204D3046AD4
:104C200001238B40234202D1043189000A5030BD58
:104C300000040843704700000A4B1968EFF3108323
:104C400072B60A68002AFCD0BFF35F8F054A12686B
:104C5000BFF35F8F0021116083F3108840BF0020F5
:104C60000021704754350020F0B5DE4657464E46C9
:104C70004546E0B587B0EFF3058303221A4092461C
:104C8000AE4B9200D7583B78534507D1012352468B
:104C900093409946AA4B4A461A6025E1A94BAA4A75
:104CA000AA48922102F05CFF7A6973009B19DB002D
:104CB0009046984443469C68DD68A54800F0ACFBEC
:104CC000001BA941002900DA16E1002D74DB4346E0
:104CD0001B699B469F4B9B454FD00823F85E43467C
:104CE000598889B2FFF7A4FF43465969D847029013
:104CF00003910299039A0B00100013435CD0130038
:104D00000A00002847DAA41A9D4100940195434601
:104D1000009C019D9C60DD600021595E002900DA45
:104D2000EAE078694B005B18DB00C3189A68DB681F
:104D3000A41A9D41002D00DADEE039813D000835DE
:104D4000844604912A000597B346009E019F049B68
:104D5000002B2ADB0023D45E63001B19DB006344B5
:104D60009C68DD6830003900001BA94100291CDB6C
:104D70001A000021595E0491E9E743465B699B46AE
:104D80001B6958469847002816D05B461A685B682E
:104D900002920393ADE76E4800F03EFB029B039C3A
:104DA0001B184C4100930194B1E70499059F5E469E
:104DB0004346198016809FE0434600229B5E3B815C
:104DC0003A69EFF3108372B611680029FCD0BFF383
:104DD0005F8F02217A5E41460A807E803A69BFF386
:104DE0005F8F0021116083F3108885E03969EFF34C
:104DF000108372B60A68002AFCD0BFF35F8FB888B0
:104E000000B201225242BA803A69BFF35F8F00219B
:104E1000116083F310880500BC461CE00493002257
:104E20009A5E002A0EDB049B0021595E4B005B1842
:104E3000DB0063449868D96834003D00241A8D4132
:104E4000002DEBDA04995D46009B9C4644460D809C
:104E50000023E55E2280002D12DB634658696C005A
:104E60006419E4000419A668E7686146083108225D
:104E70009A5EAB46049163460093A0468446D0E711
:104E800067463EE00023BB71390008310823F85E15
:104E90000EE001246442E5179460D56008243B5F6E
:104EA000834204D00E8008243B5F13803881300099
:104EB000431C29D07C6943001B18DB00E218E65E26
:104EC00053881BB2002BE4DB1100F0E722002B001B
:104ED00051461F48FFF79AFE1D4800F09DFA241A1C
:104EE0008D41002D22DC1FD0194B4A465A630823FE
:104EF000FE5E002E00DBD7E6BB881BB2002B00DB7A
:104F000074E7BB79002BBDD10823FA5E002A0DDBC4
:104F1000796953009B18DB00CB189C68DD68631C23
:104F2000D4D16B1CD8D0D1E7002CDDD040BF07B066
:104F3000F0BCBB46B246A946A046F0BD14330020E3
:104F40003C70054088ED001084FF0010B4ED0010A7
:104F500000400540694C001070B504000D001100C0
:104F60000126AE4006622800FFF7C8FA012128009A
:104F7000FFF7B2FA024B9C466444266070BDC046FF
:104F800038200000F8B5CE46474680B50600894671
:104F900090461F00C160FFF7ABFD154B9C46604477
:104FA0008000306143463370BBB27381D022120659
:104FB00012787270012252423281B2809B18738043
:104FC000002406E0621E736965002D19ED005A5336
:104FD0000134BC42F6D3074B42469200D650064AF3
:104FE00041464846FFF7B8FFC0BCB946B046F8BDD9
:104FF0004000003414330020694C001010B5064BFB
:105000001B69002B01D0044810BD044B044A05481D
:10501000652102F0A5FDC04670050020F4ED0010EA
:105020006CFF0010B4ED0010F8B504000569EFF353
:10503000108072B629680029FCD0BFF35F8F02216F
:10504000665E656971008919C9006D18002E02DB62
:105050000027E95F61802169BFF35F8F00270F6040
:1050600080F31088002E2CDB06992961079969616D
:10507000AA60EB606B8801335B04590C002B00D1F4
:10508000012169803000FFF7D3FD2169EFF3108320
:1050900072B60A68002AFCD0BFF35F8FA2882A800C
:1050A000A6802269BFF35F8F0021116083F310880F
:1050B000E368217801228A4003498C4663441A60E0
:1050C000F8BD01204042FBE73C20000070B582B0F3
:1050D000060014001D0008AB1B78002B07D100F060
:1050E000CDF922002B00121A8B41002B0ADB079B03
:1050F0000193069B009322002B003000FFF794FFE2
:1051000002B070BD0020FBE7F0B5C64600B584B024
:105110000500884616001F000AAB1C78FFF76EFFDB
:105120000294019700962A004346FFF7CFFF04B090
:1051300080BCB846F0BD000030B504000A144389B5
:105140009A422EDA406953009B18DB00C318256988
:10515000EFF3108272B628680028FCD0BFF35F8F8F
:10516000588885B20904090C884212D000202369AE
:10517000BFF35F8F0021196082F31088002811D0DF
:10518000E368217801228A4007498C4663441A600B
:1051900008E00649294389B259800123A3710120FF
:1051A000E5E7002030BDC0463C2000000080FFFF46
:1051B00010B50400FFF722FF2100FFF7BDFF10BD6F
:1051C000F0B583B006000F00EFF30583002B1AD172
:1051D00006246442E517A4197D418D4202D803D10B
:1051E000844201D90024002500F048F922002B0058
:1051F000121A8B41002B0BDC08D03000390000F074
:105200004FF903B0F0BD1648FFF702FC002AF4D0B6
:10521000144A0023009320002900FFF775FF00289F
:1052200013DAEAE7104B1968EFF3108372B60A68D5
:10523000002AFCD0BFF35F8F0B4A1268BFF35F8F69
:105240000021116083F3108820BF084B5B6A9D42E8
:10525000E8D80649896AA142CFD29D42CDD1E1E783
:1052600018EE0010394C0010543500200040054065
:1052700070B504000D0000F001F900196941002922
:1052800002DBFFF79DFF70BD012040420049F8E7B7
:10529000FFFFFF7F10B5FA2292000023002101F0EA
:1052A00039FAFFF7E5FF10BDF0B5CE46474680B5A9
:1052B00083B005000C00EFF30583002B15D03F4BA6
:1052C0005B6A8B4209D33D4A926A82420BD28B427F
:1052D00001D0012002E0002000E0002003B0C0BCAB
:1052E000B946B046F0BD0120F8E7FFF787FEC36876
:1052F0009946037898462E002700484600F08CF81F
:1053000002000B00B61A9F41434604339B004A46F5
:105310009B581B1A0022BA420FDC0CD020BF274B2F
:105320005B6A9C422DD8254A926AAA422BD29C42A3
:1053300025D00120D2E7B342F0D9214A00230093BF
:1053400028002100FFF7E0FE00281EDD1B4B5B6AF2
:105350009C4205D8194A926AAA4202D29C4200D1C4
:1053600020BFFFF725FF154B5B6A9C4221D8134AEB
:10537000926AAA421FD29C4219D00120AEE70020B7
:10538000ACE70020AAE70120A8E70C4B5B6A9C422F
:1053900009D80A4A926AAA4207D29C4201D0012047
:1053A0009CE700209AE7002098E7012096E700207C
:1053B00094E7002092E7012090E7C04600400540B6
:1053C000394C0010004870470040054010B50B4BA9
:1053D0001B69002B04D00A480A21FFF7B9FB10BD56
:1053E000FFF7F0FF0400032100F00CF8034810233E
:1053F00003222100FFF7C6FDEDE7C046700500203F
:105400005435002010B5024A0248FFF72FFB10BDAB
:1054100068EE0010741D00200200436A906A1900B3
:10542000536A9942FAD17047416A00E0416A994251
:10543000FCD300E0416A994202D1816A9142F9D3DA
:105440007047F0B5C64600B5804614001D00FFF752
:10545000E3FF06000F0022002B0092197B419942C6
:1054600002D804D1904202D901225242D3174046B9
:10547000FFF7DAFF80BCB846F0BD000010B5024867
:10548000FFF7CAFF10BDC0460040054010B502003E
:105490000B000248FFF7D5FF10BDC0460040054095
:1054A00010B502000B000248FFF7BEFF10BDC0465A
:1054B0000040054010B5192000F00EF9D0231B065E
:1054C000802292045A6210BD002805D0D0231B060A
:1054D000802292045A617047D0231B0680229204D6
:1054E0009A61F8E710B5002002F09AFC10BD7047F1
:1054F00010B5024800F004F810BDC0462433002067
:1055000070B588B0040004AD0D220021280001F020
:10551000D5F90D220021684601F0D0F94B232B70FC
:105520000D226946280008F043FB002304E05A1DC1
:1055300069468A5CE2540133072BF8DD08B070BD80
:1055400010B5010018231B8814221088984710BD3D
:1055500010B5010018231B8816221088984710BD2B
:10556000F0B5C64600B507000E0000250123984699
:1055700000E00135B5420AD2AC003C192068FFF7C3
:10558000DFFF20600028F4D100239846F1E7404671
:1055900080BCB846F0BD0000F8B5D646474680B599
:1055A00006000D001700984644002418A400294B5B
:1055B0009C4664446368089A934200D26260331F39
:1055C000DBB29A46012B2ED980221201C0239B0107
:1055D000E3181A60204BB200D158002907D058694F
:1055E00000F05CFA013043001B18033BFDD27F0141
:1055F00023685F40E0233B4080225201A2181360E1
:105600005346012B1AD980239B01E31880221201F3
:105610001A60089B6360104BB6004246F250C0BC53
:10562000BA46B046F8BD012DCED10322C0239B015E
:10563000E3181A60A368DB07FCD5D8E72168694046
:1056400003230B401360A3680122AA401A42FAD038
:10565000D9E7C046008000407C1F0020F0B583B031
:1056600005000E0017001800089900F017FA030053
:10567000089A140200943A0031002800FFF78CFFCA
:1056800003B0F0BD10B582B0802464000094FFF731
:1056900083FF02B010BD0000014B8000C05870476E
:1056A0007C1F002010B58300084A9A181468402215
:1056B000544080322240064CA44663441A60C00025
:1056C000044B9C466044416010BDC04604C001408C
:1056D00004D001400040014010B501238340D02296
:1056E0001206936293610521FFF7DCFF10BD0000F5
:1056F000F0B5C64600B504000E0017001D0037487F
:1057000000F0CCF98046364BFA18364B9A4239D81D
:105710000100380000F0C2F90200103A98235B0043
:105720009A4235D86B1E062B38D8069B013B062BB8
:1057300034D83F09474537D32D04069B1B031D432F
:105740002368002B36DB284B9C4244D00C220123DB
:105750009340264A1360264A1360264A12681900AD
:1057600091430A1EF9D12660A060234BE318213231
:105770001A602268002AFCDAE56008221A6080BC00
:10578000B846F0BD1D4B1E4A1E48112102F0E8F933
:105790001D4B1B4A1B48192102F0E2F91B4B184A0A
:1057A00018481C2102F0DCF9194B154A1548232131
:1057B00002F0D6F922683F231340B342C3D1A36855
:1057C0001B051B0D8342BED1E368EE22D2021340BB
:1057D000AB42B8D1D3E70D22B9E7C046001BB700F2
:1057E00080E84BD380F8A93200C0024000E00040BE
:1057F00000F0004008C000400430000094F00010A9
:10580000C4FF0010E4F000102CF1001048F100106B
:1058100094F1001080239B000B43014AD362704730
:1058200000800540074BAA2212011A608D22520007
:10583000DA60054B054A1A60024B5B68002BFBDA05
:105840007047C046004002400060024000B0FA00CD
:1058500010B5040001E008CC9847024B9C42FAD3F3
:1058600010BDC0465CDC00107047000010B5024857
:10587000FFF7EEFF10BDC04620DC0010054B064AC6
:105880001A60064B064A1A60064B1A68044B93438B
:10589000FAD1704700E00040BFCDFBFE00F00040B1
:1058A000FE7F3C0008C00040044BDB6C002B03D1A2
:1058B000034B8022D2021A607047C046000011508C
:1058C0004C201150044B054A1A60054B1B68DB4302
:1058D000DB01FAD17047C04600F00040FFFFFF0136
:1058E00008C00040034B40229A675A671A67DA667D
:1058F0007047C04600F0014010B5FFF719F910BD20
:1059000010B50C4A0C4BD21A92101400302A00D950
:10591000302292000948084900F0D6FF04E0084A06
:10592000064BA100CA5001342F2CF8D9034B054A6D
:10593000936010BDC00100100001001000000020A5
:10594000C101001000ED00E070B50420FFF7A4FED7
:10595000064900F0A3F805000024002C00DD70BD0E
:10596000E0B22900FFF756FF0134F6E740420F008E
:1059700030B583B0274B00229A67FFF753FF264BC1
:1059800001221A60234B5B6C012BFBD1234B0322BA
:105990001A60204B9B6B012BFBD101330093043326
:1059A0001F4A01211F48FFF7A3FE052300931E4A4B
:1059B00001211E48FFF79CFE1D4B002202210420FE
:1059C000FFF760FE1B4D2B00002201210520FFF791
:1059D00059FE194C2300002200210720FFF752FE38
:1059E0002300002200210820FFF74CFE8023DB006B
:1059F00000932300002200210920FFF72FFE2B0037
:105A0000002200210620FFF73DFEFFF79DFF03B0B7
:105A100030BDC046008000403CB0004030B0004087
:105A2000002F685900800240008C864700C0024069
:105A3000001BB70040597307006CDC0201480421C9
:105A4000014B18479005002061550010124A936FD2
:105A50009B0815D29066D166002905D0FFE7FFE7C5
:105A6000FFE7516F106F704704B580210906C21718
:105A70005140002800D0C84308F0B2F8002104BD0E
:105A8000F0B5146E556E576F166FFFF7E3FF14668F
:105A9000556657671667F0BD000000D0114A936F36
:105AA0009B0813D210665166002905D0FFE7FFE777
:105AB000FFE7516F106F704704B5002801D0002038
:105AC000C04308F08DF8002104BDC046F0B5146E47
:105AD000556E576F166FFFF7E5FF146655665767EB
