:020000041000EA
:1000000000B5324B212058609868022188439860DF
:10001000D860186158612E4B002199600221596106
:100020000121F02299502B49196001219960352056
:1000300000F044F80222904214D00621196600F024
:1000400034F8196E01211966002018661A6600F04E
:100050002CF8196E196E196E052000F02FF8012189
:100060000842F9D1002199601B49196000215960AB
:100070001A491B48016001219960EB211966A021F2
:10008000196600F012F800219960164914480160C1
:100090000121996001BC002800D000471248134993
:1000A000086003C880F30888084703B5996A0420EC
:1000B0000142FBD001200142F8D103BD02B5186610
:1000C0001866FFF7F2FF186E186E02BD00000240BE
:1000D000000000180000070000035F00212200005C
:1000E000F4000018222000A00001001008ED00E03C
:1000F00000000000000000000000000074B24E7A12
:1001000000200420F7010010CB010010CD010010E9
:10011000C9010010C9010010C9010010C901001077
:10012000C9010010C9010010C9010010CF01001061
:10013000C9010010C9010010D1010010D301001045
:10014000C1010010C1010010C1010010C101001067
:10015000C1010010C1010010C1010010C101001057
:10016000C1010010C1010010C1010010C101001047
:10017000C1010010C1010010C1010010C101001037
:10018000C1010010C1010010C1010010C101001027
:10019000C1010010C1010010C1010010C101001017
:1001A000C1010010C1010010C1010010C101001007
:1001B000C1010010C1010010C1010010C1010010F7
:1001C000EFF30580103800BE00BE00BE00BE00BECA
:1001D00000BE00BEF2EB8871EC0B01101C0C01108C
:1001E0003802001090A31AE71E481F49086006C88D
:1001F00081F3088810471D480068002801D019487D
:10020000F3E70DA40ECC002902D000F012F8F9E7B4
:100210001749184A002000E001C19142FCD116495B
:100220008847164988471649884700BEFDE701C937
:1002300001C29A42FBD370471C0C0110C000002081
:10024000880E0020E41901100000042000000420A2
:10025000E419011000100420001004200000000028
:10026000704700000000000008ED00E0000000D032
:10027000880E002040310020B17F001025030010BF
:100280006D7F0010F8B5C04610B5064C2378002BE2
:1002900007D1054B002B02D0044800E000BF01232A
:1002A000237010BD08100020000000000CDF0010BB
:1002B000044B10B5002B03D00349044800E000BFF5
:1002C00010BDC046000000000C1000200CDF001024
:1002D0007047704710B505F091F9002905D0FA2252
:1002E0009200002305F084FE03E0FA21890005F066
:1002F00041FE0A4B1B68C01AFA229200904200D2BB
:1003000010BD94466344054A1360054C207805F0FF
:10031000A9F92378012253402370F1E7203100200E
:100320003C31002030B583B06B46DC1D0025DD710B
:1003300007F0A0FF1D4BDD6205F07CF908F03EFAE6
:100340002378002B20D01A4807F0D2FF01A9194BBF
:100350001B880B80002003F06FFE174B002B01D091
:1003600005F093F90CF008FC01200021404201F057
:10037000FFFF0CF06BFAFFF7ADFF1049104808F0D3
:10038000F1F908F0C5F9EFE7EFF3108472B68021B8
:100390000B4A4900094808F003FA08F055FA6B4681
:1003A0000122DA7184F31088CDE7C0460040054091
:1003B00010DF00103CDF00108B560010B42100202D
:1003C000D42D002010B505F015F810BD70470000C1
:1003D00030B505004B0613D0012200E001320F2A90
:1003E0000CD85301074C18191B5D002BF6D0437F26
:1003F000AB42F3D183788B42F0D100E0002030BDD6
:100400000048FCE7CC220020012200200F2A09D856
:100410005301054958185B5C002B01D00132F5E708
:10042000511E81777047C046CC220020F0B5C646E9
:1004300000B584B00D00437F98468778C68A00F0E7
:10044000A1FC01AC0C220021200006F099FC022343
:1004500063704346A37027716571039601212000E4
:100460000DF02AFD04B080BCB846F0BD10B50A4BB3
:10047000DB6C9B0709D5094B9B7E002B06D00748F8
:100480000823C3820021FFF7D1FF10BD044B054AAA
:10049000AD21054807F06EFD00001150CC22002070
:1004A00040DF001020E100104CDF001010B50C0000
:1004B0000A4B98658B7E002B05D0080000F0EEFCFF
:1004C000002806D110BD064B064A6921064807F0F0
:1004D00051FD00212000FFF7A9FFF3E70030115084
:1004E00040DF001034E100104CDF001070B5164BF7
:1004F0009E6DF30701D4012519E001239E431349A2
:100500004B681B680120FFF7D1FFF4E70134012C91
:100510000CD86B001B19012098403042F6D086435E
:100520006B010A495918FFF7C1FFEFE701350F2D9D
:1005300003D8002E01D00024E9E7002E00D170BDC1
:100540003100034804F034FB00001150CC2200209D
:1005500084DF001030B585B0324A9823D458973BD9
:100560001D002540234211D0136D1B0A9B0721D08B
:1005700001A80023037043700371437101210DF042
:100580009BFC294BC02292001A65012563051CD4EF
:10059000E30626D423072CD4630605D540231D4348
:1005A000214B802212051A65A3062ED4A54233D111
:1005B00005B030BD01A80023037001224270037111
:1005C000437101210DF078FCDBE78023DB001D4344
:1005D000154B802292051A6502211448FFF726FF69
:1005E000D6E710231D43124807F082FEFFF77EFF77
:1005F000D0E708231D430C4B8022D2021A650D4818
:1006000007F076FEFFF732FFC6E7074B802212069F
:100610001A65094804F0CCFA29006140074804F043
:10062000C7FAC0460000115000301150CC22002003
:100630009CDF0010B0DF0010C4DF0010D8DF001016
:1006400070B5051E08D1164C164BA360164B63609F
:10065000164BE360200070BDFFF7D6FE0400AD002E
:10066000134BE958827F134807F072FE002C0FD01D
:10067000A37FDA0010495118A16010498C466244EA
:10068000626002339B01094A94466344E360E1E7F8
:1006900020210B4B0B4AFF310B4807F06BFCC04687
:1006A000CC2200208000105000011050800110501A
:1006B000C4E10010ECDF001088001050080010505A
:1006C00000E0001060E100104CDF001070B5002861
:1006D0001DD100F02FFB114C0C23A367104D2900F6
:1006E000052004F013F9FF222900052003F0F2FF92
:1006F0008022920000210B4806F042FB0323236472
:10070000094BE3649023094AE250012070BDBF21E8
:10071000074B084A4900084807F02CFC000011501C
:1007200055050010CC220020008600207B0400002C
:1007300004E0001014E100104CDF001010B5002898
:1007400000D110BDD521034B034A4900034807F0EF
:1007500011FCC04604E0001004E100104CDF001062
:100760007047000070B500280DD10A4D296DC024D6
:10077000A4002140084807F0EBFD286D2040431EEF
:100780009841C0B270BDB821044B054AFF310548FD
:1007900007F0F0FB0000115010E0001004E0001022
:1007A000ACE100104CDF001010B5002809D10B4B54
:1007B0001A6D120A03231340012B0CD0022B07D110
:1007C00010BDC021064B074AFF31074807F0D2FB96
:1007D000064804F0EDF91800F2E7C0460000115099
:1007E00004E0001098E100104CDF001014E000104D
:1007F000F0B5D6464F464646C0B504000F009946B0
:1008000008A90D7809A9097843689C46002B50D0A7
:100810008368002B54D0C368002B58D07F208046BB
:1008200006001640B246D009A2706777607046464F
:10083000164253D10122E2704A462283E5762C4AC1
:100840005A409B064CD1AD061543A0231B061D4301
:10085000002902D0013909040D4363461D600123BC
:100860002370244B9C421FD053461D043D43002857
:1008700002D180239B041D430020FFF795FF060053
:10088000380000F07FFF864202D08023DB041D4346
:10089000A37F9B00184A944663445D60A27F0132A7
:1008A00001239340154A5365E0BCBA46B146A846B9
:1008B000F0BD9B21124B134A4900134807F05AFB25
:1008C0003821124B0F4AFF310F4807F053FB9C2190
:1008D0000F4B0C4A49000C4807F04CFB0022AAE7DA
:1008E000A6210C4B074A4900074807F043FBC046C6
:1008F00000001050CC2200200000115000201150A8
:1009000024E000104CE100104CDF00103CE000102F
:1009100050E0001060E00010F8B50D001F4B1B7890
:10092000002B07D01D4B9B7E002B03D01B4B5B7F06
:100930008B4202D0002D2FD1F8BD18480023037040
:10094000426813608268136000F01CFAF2E7013419
:100950000F2CF1D86001114BC018437FAB42F6D188
:1009600063010E4A9B5C002BF1D016006701827F69
:100970000132012393400A4A5365837F9B00094A51
:100980009446634400225A60BA5543681A608368EB
:100990001A6000F0F7F9DAE70124D9E7CC22002049
:1009A000003011500000115010B5002804D1012171
:1009B000052003F043FE10BDF821034B034AFF312D
:1009C000034807F0D7FAC04604E0001088E10010A1
:1009D0004CDF001070B582B00E001500D078800793
:1009E000800FFFF72DFE002812D02A796B791B02A9
:1009F00013435B055B0DE9788907890FAA78AC7909
:100A0000019400913100FFF7F3FE012002B070BDA8
:100A1000034A0449044807F09BFC0020F6E7C0465F
:100A20000E02000078E100107CE00010F0B5D64620
:100A30004F464646C0B582B00E0015009A460AAB36
:100A40001B8899467F271740D3099846110030002C
:100A5000FFF7BEFC041E1FD0837E002B23D18378BA
:100A6000AB420AD0002F24D1038B00220192C27E18
:100A700000922A003100FFF7BBFE244B9C421ED09F
:100A80004A465146200000F0EDF9012002B0E0BCDA
:100A9000BA46B146A846F0BD1D4A1E491E4807F099
:100AA00057FC0020F2E71D4B1A4A1D491D4807F06C
:100AB00061FA1D4B174A1D491A4807F05BFA4A466E
:100AC0005146200000F0CEF93B043343184A13602E
:100AD0004346002B16D0174C0020FFF765FE05009B
:100AE000300000F04FFE85420ED040232343012208
:100AF000190091430E4AD1640C210339FDD2D3640D
:100B00000120C3E70C4CE7E70023EFE7CC220020ED
:100B10002B020000F4E000107CE0001094E00010D4
:100B20002E0200004CDF0010A0E000103302000095
:100B30000000115009860020058600200020704723
:100B400070B582B00D00002304E0D45C2448C45486
:100B50000133DBB2072BF8D90020FFF771FD041E2B
:100B600028D0837E002B2DD1038B0022019200928E
:100B70002900FFF73DFE2678002E29D00823A38206
:100B8000073BA376174B1D600020FFF70DFE040006
:100B9000280000F0F7FD844220D0134A0123110001
:100BA0009943104BD9640C210339FDD2DA6430002B
:100BB00002B070BD9A2292000C490D4807F0C8FBA4
:100BC0000026F4E70B4B094A0B490C4807F0D2F911
:100BD0000B4B064A0B49094807F0CCF90A4ADDE7F6
:100BE000000010500000115043860020E4E0001087
:100BF0007CE0001094E000106B0200004CDF00105D
:100C0000ACE000106F0200000386002004E00A78C8
:100C10000270013101301A00531E002AF7D17047CB
:100C2000F8B504000F00838A028B1E1C934200D982
:100C3000161CB6B29B1BA3828025ED003543E378DA
:100C4000002B13D080229201154301225340E37000
:100C50006378002B0CD0A38A002B02D18023DB0108
:100C60001D43002F00D02D042800F8BD0022EBE723
:100C7000B801E3689C46604432002169FFF7C6FF73
:100C800023699C466644266180231B021D43E2E7DC
:100C900070B5040083681B68002900D01B0C9D05FB
:100CA000AD0D6278002A11D11B0409D4E38A5B19C7
:100CB000E382238BAB4201D90023A382280070BDBD
:100CC0000E4B0F4AE8210F4807F054F91B040ED5CC
:100CD0008901E3689C4661442A002069FFF796FF7A
:100CE000E38A5B19E38223695B192361E1E7064B21
:100CF000034AEE21034807F03DF9C046D4E1001055
:100D0000ECE20010F4E100102CE2001010B5040039
:100D100083681B680021FFF7BBFF63681B685B00EB
:100D200002D5238B834200D010BD01212000FFF7A4
:100D3000AFFFF9E710B580235B040C4A13600C4A3F
:100D400013600C4B1A6880235B049343F9D1802213
:100D500052010021084806F013F8084B09225A678F
:100D60002021074807F0F4FA10BDC04600E000401B
:100D700000F0004008C0004000001050000011507A
:100D80004CE20010002383768382C38203617047A4
:100D900010B5002902D083681B681940002A10D0C2
:100DA000114353050DD5826813685B050CD4084BBD
:100DB0000B401360074B1B6C9B0702D40C23033BB7
:100DC000FDD28368196010BD8178034803F0F0FEFE
:100DD000FFFBFFFF000011506CE2001070B5040033
:100DE00043681E680021FFF71BFF80256D01054346
:100DF000194B1B6C0222110019401A4202D1A37830
:100E0000DB0906D0002906D0A3785B0616D10023A3
:100E100002E0012300E00023A28A002A01D0002B77
:100E20000ED00E4B1E4080239B0533436268136037
:100E30002A0000212000FFF7ABFF70BD0123EBE784
:100E400001212000FFF7ECFE0543054B1E40A023C7
:100E5000DB053343EAE7C04600001150FFFFFFAF58
:100E6000FFFFFFDF70B504000D001600837E002B2E
:100E700009D1A6820023E3820133A37625612000F5
:100E8000FFF7ACFF70BD8178034807F061FA2000DE
:100E9000FFF778FFEDE7C0468CE2001070B5040064
:100EA000857E002D06D0FFF731FFA38A002B05D1E8
:100EB000280070BD8178044803F07AFE2000FFF717
:100EC0008DFF0025F4E7C046C4E200104369C278F4
:100ED0001A707047002802D00521042004E0042184
:100EE000002001E00130C0B281420AD95E224243B3
:100EF000054B9B1810331B79DB07F3D40130C0B2CC
:100F000000E000207047C046BC1A002010B5040065
:100F10005E22002105F034FF200015300822FF2159
:100F200005F02EFF20001D302022FF2105F028FFB4
:100F300010BD000070B588B006000D00184807F01D
:100F4000D7F906AC174B220003CB03C218220021AD
:100F5000684605F015FF6B461E70DD70124BDA8A8D
:100F6000019202949A680392DA6804921A690592CF
:100F70001B7D002B06D1049B002B01D068469847AF
:100F800008B070BD094C0121494220680CF084FF73
:100F9000054B00221A7520680CF066FFEBE7C0468F
:100FA000C4F00010941C0020280500209C1D002087
:100FB00010B5054BFF225A701879002800D110BDDA
:100FC00001F016FFFBE7C04628050020F0B5DE461D
:100FD00057464E464546E0B589B082460791030024
:100FE000013BDBB2042B16D8421E5E2353435D4AFD
:100FF00098469044079A9378D178090219431300D0
:1010000094468C44624606921E789C466644564836
:1010100007F09EF985E000239846EBE7079BF11A5D
:10102000524807F095F901205BE0F2789346F618F4
:1010300084E04F4A4F49504807F08AF9002050E0B9
:101040004E4A4C494C4807F083F9002049E0AB1C5C
:10105000A34228DB651BEB005D1BAD00484B5D190F
:10106000002D08D0434618784B46059A5146EE6845
:10107000B047002819D1434B1B780233BB423FD005
:101080000134E4B23F4B1B7802332700A34246DB16
:101090003C4B1D78AC42DAD23B4B1D68E3001B1B76
:1010A0009B00ED18DCE70025DAE7059E2968374844
:1010B00007F04EF900225D464046954218D9B378B4
:1010C0009B18DBB2C118497DFF2904D1C3185C7598
:1010D0000132D2B2F1E72E4A2649274807F038F903
:1010E000002009B0F0BCBB46B246A946A046F0BD00
:1010F000804623004A4631001D3003F09FF80FE080
:1011000043461978059DAB786A79A879ED790295FF
:101110000190009252461F4807F01AF9B0E7059E69
:101120004E44069B9E421BD23378002B00D175E7BC
:1011300072780B2A00D178E701239B467378042B41
:1011400000D076E7069B9A1B92B25946300003F016
:1011500097F88146082800D872E70024059691E7A1
:101160000120BEE7BC1A0020FCE2001034E30010AE
:101170002307000038EA00107CE000103C07000064
:101180006CEA001037310020741200206CE300106C
:101190004A0700007CE30010F0B5D6464F464646AD
:1011A000C0B584B005008A469046594B1A7803AB07
:1011B0001A705FE02100574807F0CAF8331F03AAEE
:1011C0000121D1548AE09A1CB2421CDBF31ADA00E6
:1011D000D21A9200504B9B18002B02D09B69200022
:1011E00098470136F6B24D4B1B780233B3420CDB05
:1011F0004A4B1B789E42E6D2494B1B68F200921B79
:1012000092009B18E8E70023E6E721002800FFF79B
:1012100083FB444B5B7D9C4207D0424B5B789C42F6
:1012200016D03800FFF772FE25E03E4B1B7D002BE9
:10123000F3D03D4B99460121494218680CF02CFE31
:10124000384B00221A754B4618680CF00DFEE4E787
:10125000344BFF225A70E4E70023002B05D103AA88
:10126000D45C002C3CD10133F7E70123002B48D19B
:10127000002B37D00024042CEED826005E231F005C
:1012800067432A4ABF180134E4B273439B5CAB4204
:10129000F1D13B0010331B79DB07ECD55346002B13
:1012A00002D07B785345E6D14346002B06D05E2220
:1012B00072431E4B9B189B784345DCD100944346F8
:1012C000524629001A4807F043F8042C00D971E768
:1012D000184B002B02D02000FEF7FBFF002682E710
:1012E0000023C3E703AAD25C002A02D10133DBB298
:1012F000BEE703AA0020D0545E1DF2B29246984683
:10130000B8E704B0E0BCBA46B146A846F0BDC04656
:101310006CE50010F0E300106CEA0010373100209B
:1013200074120020280500209C1D0020BC1A0020FB
:10133000CCE30010D30200107047012070477047C3
:10134000002805D10D4B587843425841C0B2704730
:10135000431EDBB2042B0BD801385E235843084BE5
:10136000C018002806D0037DDB0705D40020EEE777
:101370000020ECE70020EAE70120E8E7280500204C
:10138000BC1A0020034B1B78181A42425041C0B2CD
:101390007047C04628050020034B1878FF38431ECD
:1013A0009841C0B27047C04628050020F8B5060035
:1013B0000F00FFF7E7FF041E1CD17B78022B1FD024
:1013C0001AD8002B1ED0012B1ED14F4A31004F4896
:1013D00006F0BEFFFFF7E0FF002819D04C4B1E704F
:1013E00039003000FFF772F9041E00D186E03000AA
:1013F000FFF7DAFA2000F8BDAA2B07D1454AE5E746
:10140000454AE3E7454AE1E70022DFE70022DDE75E
:101410001C21434806F09CFF5E21424806F098FFDD
:101420000C21414806F094FF1821404806F090FF37
:1014300014213F4806F08CFF24213E4806F088FF27
:101440003D4803F0A7FC3D4C2000143003F0A2FC03
:10145000200003F04EF83A4B1C603A4C200003F099
:101460004DFC394B1C60394B002B04D0384800E050
:1014700000BF384B1860EB2252000021364805F0BF
:101480007FFC234C1C220021200005F079FCFF2367
:1014900023706370002407E05E2060432E4BC01869
:1014A000FFF734FD0134E4B2042CF5D9002412E036
:1014B000AB1CA34220DB651BEB005B1B9B00274D95
:1014C000ED18002D05D02968254806F041FF6B680E
:1014D00098470134E4B21E4B1B780233A34200DA72
:1014E0007CE71B4B1D78AC42E2D21A4B1D68E3002F
:1014F0001B1B9B00ED18E4E70025E2E7194A1A4997
:101500001A4806F025FF75E718E4001024E40010DF
:10151000280500201CE4001008E4001010E400106E
:1015200050E400106CE400108CE40010A8E40010FB
:10153000C4E40010E0E400106C1E0020440500200C
:10154000A81D0020A01D00209C1D00200000000000
:101550003731002074120020BC1A00206CEA001001
:1015600004E5001001020000C0E900107CE000105A
:1015700010B5FFF711FF002800D110BD034B18680C
:1015800002F048FF01235840C0B2F6E7A81D002032
:10159000004870479C1C002070B504000D00431EDD
:1015A000DBB2042B09D801385E23434311481B18D2
:1015B000002B02D01A7DD20707D40F4A0F491048DA
:1015C00006F0C6FE0026300070BD7F200840CA0924
:1015D0000C4909684000801838301818053002F0AE
:1015E00069FD061EEFD02A002100074806F0B0FE74
:1015F000E9E7C046BC1A0020C9030000F0E900106A
:101600007CE000109C1D002010E5001070B5040067
:101610000D00431EDBB2042B21D801385E23434367
:1016200011481B18002B1CD01A7DD207D60F002A98
:1016300001D1300070BD7F200840CA090B490968FC
:101640004000801838301818053002F05BFD061E87
:10165000EFD02A002100064806F07AFEE9E70026CE
:10166000E7E70026E5E7C046BC1A00209C1D0020E5
:101670002CE50010F0B5D646474680B585B005008C
:101680000E0003929846431EDBB2042B45D8431E3E
:101690005E245C43254BE418002C40D07F230B4094
:1016A0009A46CF094246224806F052FE5346590058
:1016B0006118C91938314B79DB0716D453465B00E2
:1016C000E318DB1938335A7901210A435A7120781B
:1016D00043460093039B32002900FFF7A7F9051E3C
:1016E0000AD0144806F004FE1AE0134A13491448BD
:1016F00006F02EFE002513E053465B00E418E419C3
:1017000038346379012293436371637903329343DD
:1017100063710C4806F0ECFD02E0002500E00025B6
:10172000280005B0C0BCBA46B046F0BDBC1A0020C7
:1017300048E5001070E50010F3030000D0E9001048
:101740007CE0001074E5001010B5030008005A1E7C
:10175000D2B2042A0BD8013B5E214B4307495918EA
:10176000002904D0042205F011FB012010BD04491A
:101770000422033105F00AFBF7E7C046BC1A00203B
:101780002805002010B582B001AC2100FFF7DCFF76
:10179000E07802B010BD10B582B001AC2100FFF7B7
:1017A000D3FF207802B010BD30B583B004000D0027
:1017B000FFF7F1FF01002B0022000B4806F0C8FDE7
:1017C00007220021684605F0DBFA07236A461370FA
:1017D000023B537095802000FFF7DDFF6A46210031
:1017E000FFF7F8F803B030BD7CE50010F8B5CE4641
:1017F000474680B505000C000A000100354806F098
:10180000A7FD7F231F002740E2099046234219D0FD
:101810006B1EDBB2042B57D8681E5E2646432E484B
:101820003618002E53D07B00F318434438335B79CD
:10183000DB07DA0F9146002B2CD14846C0BCB946D5
:10184000B046F8BD2800FFF7A6FF244B5B7DAB42F6
:1018500037D1224B1B7D002B02D100239946ECE7A8
:1018600022002900FFF76AF91C4B1B7D002B02D1D7
:1018700001239946E1E71A4C0121494220680CF006
:101880000BFB164B00221A7520680CF0EDFA0123B1
:101890009946D2E7307822002900FFF74FF97F0000
:1018A000F319434438335A7901218A435A710C4B56
:1018B00019684744380038303018053002F022FCEF
:1018C000BBE700239946B8E700239946B5E7002314
:1018D0009946B2E7A0E50010BC1A002028050020B8
:1018E0009C1D0020F0B585B0060015001C00FFF718
:1018F00052FF0700012D21D0022D06D0002D00D16E
:101900007AE00024200005B0F0BD23003200010081
:10191000874806F01DFD002405E0864B195D8648CA
:1019200006F016FD0134072CF7D9844806F0E0FCD8
:1019300029003000FFF7FEFA0124E3E73000FFF74B
:10194000FFFC002803D07E4B1B7E022B0FD9230007
:10195000320039007B4806F0FBFC0024072C42D8FB
:10196000744B195D744806F0F3FC0134F6E701335B
:101970000322009232003900734806F0E9FC734CF0
:101980000121494220680CF087FA6D4B01221A753B
:101990001A7E01321A760022DA8220680CF064FA8C
:1019A0003000FFF7F8FE634A3100FFF7C9F8041E64
:1019B00003D1634B1B7D002B08D1002CA2D1CC227C
:1019C00092006349634806F0C3FC9BE75F4D012129
:1019D000494228680CF060FA594B00221A752868B1
:1019E0000CF042FAE9E7554806F082FC2900300085
:1019F000FFF7A0FA012485E7514B1A7DD3B2022AE2
:101A000035D0032B6ED0012B01D000247AE7494B4F
:101A1000DB88002B2BD04A4B1B7D022B18D1454B6A
:101A20001B78DB0921D080225242D2B2444B9B6802
:101A30004049C988009131003800FEF7F7FF041EC5
:101A400000D05FE7444A4249424806F081FC59E72A
:101A50003E4C0121494220680CF01EFA384B02220C
:101A60001A7520680CF000FAD9E70022DDE7314B47
:101A7000DB88002B1BD1A4B2314BDC821B7D032BF6
:101A800021D12C4B1B78DB092AD180225242D2B2C1
:101A90000023009331003800FEF7C8FF041E00D079
:101AA00030E72E4A2A492B4806F052FC2AE732003A
:101AB00039002B4806F04CFC214B9868022221008B
:101AC00002F000FCD7E7214C0121494220680CF0CC
:101AD000E3F91B4B03221A7520680CF0C5F9D0E717
:101AE0000022D4E7134B5B78092B05D02900300086
:101AF000FFF720FA012405E70E4B1B780393002B18
:101B0000F4D1012710E000213943C9B23000FFF7BA
:101B10006DFE0134E4B2012C04D8002CF3D08021F6
:101B20004942F1E70137FFB20F2FDFD8039CF2E7FC
:101B3000C4E50010941C0020F4E50010C4F000106F
:101B40002805002028E60010FCE500109C1D002060
:101B500014EA00107CE000103F0300004E03000078
:101B600058E6001070B505000E00FFF70BFE0100EF
:101B70000122300002F0E4FA041E09D02800FFF729
:101B80000AFE32002900FEF725FF0400200070BD88
:101B9000024A0349034806F0DBFBF7E71A0400009A
:101BA00090E900107CE0001070B506000C00431EA8
:101BB000DBB2042B07D8431E5E205843204BC018CD
:101BC0000134E4B20EE00020FAE78D1C9D4219DBDF
:101BD0005B1ADD00EB1A9B001A4DED18002D13D196
:101BE0000134E4B2072C17D8220003195B7D164993
:101BF00009788B42E9D215490D68D900CB1A9B00B0
:101C0000ED18EBE70025E9E72968114806F0A0FB8D
:101C10002B69210030009847082C00D070BDFFF7D9
:101C2000C7F9042E06D80B4B002BF7D03000FEF777
:101C30004FFBF3E73100084806F08AFBEEE7C046A9
:101C4000BC1A00206CEA001037310020741200200A
:101C500070E60010D10200108CE6001070B586B05E
:101C60000400C378012B18D0B74B00221A700678F5
:101C70004069731EDBB2042B36D8731E5E255D43AC
:101C8000B24BED18002E01D0002D2FD0132800D913
:101C9000D8E28300AE4AD3589F46AB4A137801334B
:101CA000DBB21370AB4A5278FF2A03D0022B08D95B
:101CB000002000E00020002805D1002811D006B047
:101CC00070BD0120F7E76420FEF77CFB9E4B19787E
:101CD00001310322A04806F03BFB200000F09EFCEF
:101CE000EBE7FFF765F9EAE70025CBE79B4A9C495C
:101CF0009C4806F02DFBE2E705AC964B5979187924
:101D0000220000F0F7FF2378DB0710D5914B1879FC
:101D1000597902230093944B042200F017FF002806
:101D2000CDD1924A8E498F4806F012FBC7E7904802
:101D300006F0DEFAFFF73CF9C1E71420FEF742FB9C
:101D4000844B5979187903230093874B002200F0C4
:101D500079FF0028B3D1874A8149824806F0F8FA12
:101D6000ADE705AC7B4B59791879220000F0C2FF32
:101D7000A378DB06A3D5774B187959790423009310
:101D8000794B142200F092FE002898D17A4A7449C7
:101D9000744806F0DDFA92E705AC6E4B5979187974
:101DA000220000F0A7FF2378DB0725D505AB5B7881
:101DB0005A0727D45B0801221340664A93710A2010
:101DC000FEF700FB08210020FFF7EEFC00281BD0E7
:101DD0006A4806F08DFA06230093634B082268498F
:101DE000002000F03BFD002800D068E7654A5C4910
:101DF0005C4806F0ADFA62E7634806F079FAFFF74F
:101E0000D7F85CE70223D8E7604A5549554806F001
:101E10009FFA54E74F4B5A791979D878FFF7BCF9F4
:101E20005B4B187B093843425841C0B2FFF752F868
:101E3000051E24D0431EDBB2042B26D8431E5E248D
:101E40005C43424BE418434904220331200004F070
:101E50009DFF237D0122134323754D4BDB7B637272
:101E60000723414A2900002000F08EFD002800D001
:101E700025E7484A3A493B4806F06AFA1FE7464ACE
:101E80003749384806F064FA19E70024DBE70220F6
:101E9000FEF798FAA3689D786B1EDBB2042B31D84D
:101EA0006B1E5E245C43294BE418002C2AD0237D52
:101EB000022213432375274E7570F0780021FEF738
:101EC0002BFD737D002B23D0224B5B78002B30D071
:101ED000617A2800FFF768FC00282ED02F4806F012
:101EE00007FA08230093204B12222549280000F00E
:101EF000B5FC002800D0E2E6294A1949194806F045
:101F000027FADCE6274A1649164806F021FAD6E6F3
:101F1000104B1B7D002BD7D0234E01214942306846
:101F20000BF0BAFF0B4B00221A7530680BF09CFFC8
:101F3000CAE7084BFF225A70CAE7C822D2000849F4
:101F4000084806F005FABAE63A310020BC1A00202B
:101F5000C8E7001028050020ACE60010D9050000F5
:101F600058EA00107CE000105D1C0010E90500003C
:101F7000C8E60010F1050000FB05000024E7001092
:101F80009C1C00201E060000F4E600101A0600004B
:101F9000941C0020310600002A06000048E70010CB
:101FA000430600003A0600009C1D0020A74C6289F1
:101FB000AA80227BAA71627BEA71A27B2A72E27BF1
:101FC0006A72228A6A81628AAA81A28AEA81A27DD1
:101FD0002A74E27D6A74227EAA74627EEA740834EE
:101FE00021003000FFF7A8F909230293984B0193D1
:101FF00002230093230000220021300000F04EFC59
:102000005DE6E3681B780A220292914A01920093EE
:10201000904B00220021300000F040FC4FE68B4B3B
:102020001B7A032B0FD9894B5A89297C00290DD0A3
:102030000B230293864B019302230093854B3000C0
:1020400000F02CFC3BE6844AEFE7834A297C002918
:102050000FD1697C002926D00C281DD00D230293B6
:102060007B4B0193022300937A4B300000F016FC67
:1020700025E6A36818795A7912020243E3681B78AF
:102080000C200290724801900093724B300000F0D7
:1020900005FC14E6704ADCE7A36818795A79120245
:1020A0000243DBE76C4A697C00290FD1A97C002937
:1020B00025D00E281DD00F230293654B01930223D8
:1020C0000093644B300000F0E9FBF8E5A368187951
:1020D0005A7912020243E3681B780E2002905C4892
:1020E000019000935B4B300000F0D8FBE7E55A4AC3
:1020F000DCE7A36818795A7912020243DBE7A97C6E
:10210000002916D10021554806F022F91123019328
:102110004F4B009309234F4A0021300000F0B0FBE1
:10212000002800D0CBE54E4A4E494F4806F010F942
:10213000C5E5A36818795A7912020243E3681B784F
:1021400010200290424801900093424B300000F072
:10215000A5FBB4E53D4B5D8980235B009D4218D80B
:10216000A3681C792100414806F0F2F8122301937C
:10217000374B00932B00374A2100300000F080FBE2
:10218000002800D09BE53A4A3649374806F0E0F887
:1021900095E5384A3349344806F0DAF88FE5A36804
:1021A0001C792C4A21003000FFF7C7F800281BD10A
:1021B0000134E4B2EB7CA34226D92100274806F083
:1021C000C7F811230193224B00930923214A2100D0
:1021D000300000F055FB002800D070E5264A214968
:1021E000214806F0B5F86AE50134E1B21323184A34
:1021F000300000F00BFC002800D060E51F4A1949B0
:10220000194806F0A5F85AE51D4A1649164806F081
:102210009FF854E51B4806F06BF82B7D042213430E
:102220002B750C493000FEF7D1FE002804D0FF21A9
:102230003000FFF7B9FC42E5134A0A490A4806F0A4
:1022400087F83CE5FEF7B4FE39E5C046941C002053
:102250005D1C00109C1C00200904000060E70010B9
:10226000B506000058EA00107CE0001090E700106E
:10227000C6060000C1060000D3060000CE0600001E
:10228000D1060000B4E70010DF06000030B589B0C9
:1022900003782F4CE370037923714379637196209F
:1022A000FEF790F82079002806D1294BDA78012131
:1022B00091409A788A439A70002807D0244B597924
:1022C000002937D10024200009B030BD204BD87838
:1022D000FEF748FA002823D01D4CE078FEF72EFACE
:1022E0003220FEF76FF8E078FEF73AFAE078FEF772
:1022F00039FA041E1BD0164DE878FEF755FAA8717E
:102300008000144BC158144806F022F800236A4696
:102310001372D3720533079302A8FFF79FFCD2E72D
:102320000E4805F0E5FFFEF743FE0124CBE7FEF77C
:102330003FFEFAE701230093094B002200F082FCE4
:10234000041EC0D1074A0849084806F001F8BAE758
:1023500028050020D0F100103CE8001018E800101B
:102360005D1C0010B2050000A0E900107CE0001028
:10237000F0B5C64600B586B08846FFF70DF80028D0
:1023800000D065E006B080BCB846F0BD032B5FD13D
:10239000049B002B5CD00598984759E08D4B5B78E7
:1023A000FF2B0BD103AC21788B4805F0D1FF894B73
:1023B00000225A702000FFF769FF49E003AB19784B
:1023C000864805F0C5FF864C206802F023F8060019
:1023D00024686269EFF3108172B61368002BFCD099
:1023E000BFF35F8FA16103A9200002F050F862697A
:1023F000A369BFF35F8F0021116083F31088002869
:1024000008D003AB597818784246FEF798FF002EA3
:102410001ED0B7E79D2252007249734805F098FF1D
:10242000F5E76C4B1B7D002B56D0704C01214942C7
:1024300020680BF031FD674B00221A7520680BF005
:1024400013FD49E003AB5A7919791878FEF7A4FE19
:10245000634B1C686069EFF3108272B60368002B4F
:10246000FCD0BFF35F8FA26103A9200001F0EEFF53
:102470006269A369BFF35F8F0021116083F3108845
:10248000002800D17EE703AB5B78022B2CD000D96B
:102490007CE7002B00D181E7012BD9D103AB197860
:1024A0001A795B79524805F053FF4A4B5B78002B51
:1024B000C8D103AB1B78474AD0788342C2D103AB63
:1024C0009A88444B9B889A42BCD10021FEF724FA9B
:1024D000404B5B7D002BA4D03E4B5B78002BB7D1EB
:1024E0003C4BFF225A70B3E703AC27797F263E406E
:1024F000FD09A17863799B003E4A9B580093059B98
:102500003A003D4805F024FFA07800280ED1002EA7
:1025100006D103AB5A79059B3900FFF7E3F997E73A
:10252000364A3749304805F013FF2BE7431EDBB22C
:10253000042B00D926E7421E5E235343314A9B18E1
:10254000002B00D11EE71A7DD20700D41AE77200D3
:102550009A185219383251790124A1435171517995
:102560000334A1435171002E1BD076009E197619B9
:10257000737F254A127893421AD2244A1468DA00EB
:10258000D31A9B00E418002C1ED02168204805F0C7
:10259000DFFE646903A94A79059B88783900A04762
:1025A00056E703AB5A79059B3900FFF79BF94FE7D4
:1025B000911C994206DB9B1ADC00E31A9B00154C28
:1025C000E418E0E70024DEE7134A0D49064805F069
:1025D000BFFED7E62805002048E8001064E8001098
:1025E000A81D00202CEA00107CE000109C1D00209B
:1025F000A4E8001010F20010C8E800107B020000F0
:10260000B0E90010BC1A00203731002074120020FD
:10261000F0E800106CEA0010A3020000F0B583B0EF
:1026200004004378002B00D0C7E08368002B00D162
:10263000C7E006783000FEF783FE051E00D1BDE03E
:10264000614B1B7D002B01D00025B7E05F4B186864
:10265000012149420BF020FC5B4B1B7DDDB2002BBE
:1026600011D1594B01221A755E750022DA821A7651
:10267000E2689A602269DA6062691A610822A168D8
:10268000534804F083FB514B18680BF0EDFB002D11
:1026900001D0002592E03000FFF77DF80100A3682B
:1026A0001A786020104206D15B780C2B0BD89B0067
:1026B000484A9B5800E0484B3200484805F048FE25
:1026C000A768002506E0444BF6E7795D444805F02D
:1026D0003FFE0135072DF8D9424805F009FE236970
:1026E000002B21D03000FFF756F8394A3100FEF7B1
:1026F00027FA051E03D1344B1B7D002B07D1002D7B
:102700005CD1394A39493A4805F022FE56E02F4C4F
:102710000121494220680BF0BFFB2B4B00221A75A8
:1027200020680BF0A1FBEAE76B46DA1D0423137067
:10273000254B1A612F4ADA603000FFF72CF8244A43
:102740003100FEF7FDF9051E03D11F4B1B7D002B49
:1027500010D1002D1BD06B4607331B78042B1DD1E5
:10276000FEF706FF0028F6D0012000214042FFF7C7
:10277000FFFDF0E7154E0121494230680BF08CFB5C
:10278000114B00221A7530680BF06EFBE1E7BB229B
:1027900092001649164805F0DBFD0FE06369002B37
:1027A00003D06A46073212781A706B4607331B78DB
:1027B000E370054BDB8A636000E00025280003B06E
:1027C000F0BD0025FAE7C046280500209C1D00202A
:1027D000941C0020DCF1001008E9001018E900103A
:1027E000F4E50010C4F00010E202000000EA00105E
:1027F0007CE00010CD0E001070B588B006001D0002
:102800000CAB18886B461B781F24A3436C462370BF
:1028100023786024A3436C462370247880235B4292
:1028200023436C46237006236370090211436180C1
:102830000023A380E08002AC18220021200004F0D5
:102840009FFA26706B46049305950D9B06930E9B8D
:1028500007932000FFF7E2FE08B070BD10B584B00A
:10286000141C122A00D91224A4B2069A02920193CF
:1028700000940B0000220121FFF7BEFF04B010BD41
:1028800010B584B0079C0294069C01940093130039
:102890000A000221FFF7B0FF04B010BD70B588B088
:1028A00006001D000CAB18886B461B781F24A34341
:1028B0006C46237023786024A3436C4623702478ED
:1028C00080235B4223436C46237006236370C0233E
:1028D0009B000B436380A280E08002AC18220021A1
:1028E000200004F04DFA26706B46049305950D9B6D
:1028F00006930E9B07932000FFF790FE08B070BD73
:10290000F0B5D6464F464646C0B588B006000F0023
:1029100015009A4610AB04CB90461B88994619487F
:1029200005F0E6FC06AC23781F22934301221343F3
:102930002370DBB2602293432370DAB280235B42C0
:1029400013432370062363702D0253461D43658095
:10295000A7804B46E38018220021684604F010FA55
:102960006B461E70029443460393129B0493139B81
:1029700005936846FFF752FE08B0E0BCBA46B14680
:10298000A846F0BD28E90010F0B5C64600B588B0ED
:1029900080460D0017001E00184805F0D9FC06AC53
:1029A00023781F2293432370DBB241329343237079
:1029B000DAB27F2313402370052363706580002300
:1029C000A380E38018220021684604F0D9F96B4601
:1029D00042461A700294049705966846FFF71EFE59
:1029E000041E04D0200008B080BCB846F0BD044AE4
:1029F0000449054805F0ACFCF4E7C04644E9001082
:102A0000D504000080E900107CE00010F0B5C64657
:102A100000B588B080460D0017001E00134805F071
:102A200097FC06AC23781F2293432370DBB241321C
:102A300093432370DAB27F2313402370092363701A
:102A400065800023A380E38018220021684604F0FB
:102A500097F96B4642461A700294049705966846A9
:102A6000FFF7DCFD08B080BCB846F0BD58E90010A7
:102A700010B50400C378002B09D100780538C300D5
:102A80000848C01804300422E16804F07FF9064ABF
:102A90001368236100211160002B01D020009847AA
:102AA00010BDC046CC2D002030310020F0B5C64608
:102AB00000B588B007000E0015009846002934D1F3
:102AC000002206AC23781F218B4313432370D9B215
:102AD00060239943202319432170CAB27F231340F6
:102AE0002370012363706580A6800023E380182291
:102AF0000021684604F044F96B461F700294434677
:102B000004930E9B0593AD000C4BE95833003A003B
:102B10000B4805F01DFC6846FFF780FD041E06D03B
:102B2000200008B080BCB846F0BD0322C9E7772278
:102B30000449054805F00CFCF2E7C04674ED0010AE
:102B4000C0EA00105CED00107CE00010F0B5C64655
:102B500000B588B007000E0015009846002934D152
:102B6000002206AC23781F218B4313432370D9B274
:102B700060239943202319432170CAB27F23134055
:102B80002370032363706580A6800023E3801822EE
:102B90000021684604F0F4F86B461F700294434627
:102BA00004930E9B0593AD000C4BE95833003A009B
:102BB0000B4805F0CDFB6846FFF730FD041E06D03C
:102BC000200008B080BCB846F0BD0322C9E79322BC
:102BD0000449054805F0BCFBF2E7C04674ED00105F
:102BE000F0EA001044ED00107CE0001010B582B057
:102BF000C378002B14D10078431F19010C4A5218D6
:102C00009479D9000B4B5B189C70527ADA700023D0
:102C10000093094B08220121FFF798FF02B010BD75
:102C20003222FF320549064805F092FBF6E7C0461E
:102C3000BC2D0020CC2D0020492E001010ED0010DE
:102C40007CE00010F0B5CE46474680B589B007005D
:102C50000D1E914698463FD1002206AC23781F21D5
:102C60008B4313432370DEB260239E4320231E4315
:102C70002670F2B280235B421343237000236370FB
:102C80006380A5800433E38018220021684604F0A5
:102C900077F86B461F7002944B46039343460493A8
:102CA000109B0593002D19D07B1F0E4A04921A0128
:102CB0000D4B9B18043303930C4B42461A602A00B9
:102CC00039000B4805F044FB6846FFF7A7FC09B044
:102CD000C0BCB946B046F0BD0322BEE7034B00229C
:102CE0001A60ECE7712A0010BC2D00203031002062
:102CF0001CEB001010B5010010000539CB00044991
:102D0000C9180431042204F041F8012010BDC04666
:102D1000CC2D002010B508220021024804F030F824
:102D2000012010BDCC2D002001207047F8B50D000A
:102D300014005279092A34D1A279002A34D1E279D7
:102D4000012A33D80F2B10D92778E7197B78052B68
:102D500004D1FA78023B1340032B0DD0E922144929
:102D6000144805F0F5FA00261CE0E5221049114848
:102D700005F0EEFA002615E039002800FEF7F2FE15
:102D8000061E08D0053DA2780B4BED00EA54BA7838
:102D90005D196A7006E0EB220549064805F0D8FA8D
:102DA00000E000263000F8BD0026FBE70026F9E72A
:102DB00038ED00107CE00010CC2D002010B5042868
:102DC00006D9431FDB00084CE4186378002B00D1C0
:102DD00010BD0100054805F0BBFA082200212000C3
:102DE00003F0CEFFF4E7C046CC2D002048EB0010E6
:102DF00070B582B00500461FF200114B9B18597840
:102E0000FEF7CAFB041E02D1200002B070BDF20022
:102E10000B4B9B18597833010A4AD21800230193AF
:102E2000009301332800FEF725FC041EECD1F600C8
:102E3000034B9E1971782800FEF7E8FBE4E7C046D3
:102E4000CC2D0020BC2D002030B583B0C378002BE2
:102E500018D10478651F83681A79597909021143DA
:102E6000EA00154B9B189B78994212D0C9B20131E8
:102E7000C9B200230093114B08222000FFF766FE21
:102E800003B030BDA22252000D490E4805F060FA91
:102E9000F6E72000FFF7ACFF002806D0ED00064B58
:102EA000E95C2000FEF780FEEAE74E22FF3204498B
:102EB000044805F04DFAF1E7CC2D0020492E001012
:102EC000F4EC00107CE00010F0B587B00478C37813
:102ED000002B12D183681F79651F4369022B41D0F3
:102EE000032B00D179E0012B13D02000FFF780FFE6
:102EF000002800D192E007B0F0BD2000FFF778FF76
:102F00000028F8D19222FF324849494805F020FABA
:102F1000F1E7C168042203A803F038FF6B46DA89A1
:102F20002100444805F014FA6B469B7BDA070DD468
:102F30009B07DAD5404805F0DBF9042300933F4BAB
:102F4000012200212000FFF7B1FD63E03C4805F0BD
:102F5000CFF904230093394B002200212000FFF712
:102F6000A5FD57E0ED00374B5D19AB79DA0710D4BA
:102F70009A0717D45A071ED41A0725D4DB06B4D5EE
:102F8000042300932D4B142239002000FFF78EFDFF
:102F900040E003230093294B102239002000FFF763
:102FA00085FD37E004230093244B112239002000D3
:102FB000FFF77CFD2EE004230093204B1222390002
:102FC0002000FFF773FD25E0042300931B4B132221
:102FD00039002000FFF76AFD1CE003AE0C2200213F
:102FE000300003F0CDFE2000FEF7D5FB3070ED0081
:102FF000144B5D192B7901225A4001231340737041
:1030000034717771002130000AF056FF7078434226
:103010005841C0B2002800D06DE766E7ED225200AB
:103020000249034805F094F965E7C046D4EC001066
:103030007CE0001060EB0010A8EB0010C92E00101F
:1030400090EB0010CC2D002070B588B00400451F17
:10305000EA00174BD35C8B4209D01422FF3215498A
:10306000154805F075F90024200008B070BD06AEC3
:10307000124B320003CB03C218220021684603F032
:103080007FFE6B461C7002962D010D4B5D190435B9
:1030900003950C4B04936846FFF7C0FA041EE3D176
:1030A000962252000349044805F052F9DCE7C04675
:1030B000CC2D002028ED00107CE00010CCEC00109E
:1030C000BC2D0020ED2B001070B582B00400002A4A
:1030D00032D1461F3201204BD55C29001F4805F034
:1030E00037F9002D28D0EB070DD40121F2001C4B3D
:1030F0009B189B788B421CD32B00CB40DB070FD453
:103100000131C9B2F2E73601134A921904320123A0
:103110000093144B00212000FFF794FD050009E007
:10312000022300930F4B00222000FFF78BFD0500C8
:1031300000E00025002D04D12000FFF759FE051EF8
:1031400002D0280002B070BD8822FF32064907482D
:1031500005F0FEF8F5E7C046BC2D0020B8EB0010E6
:10316000CC2D0020C92E0010E8EC00107CE00010EF
:1031700030B50500002001E00130C0B20B2815D8A1
:10318000C3001B1A5B000A4C1B5DAB42F4D1C300A9
:103190001B1A5B00E3189B788B4208D0C3001A1AF5
:1031A0005200A218D3788B42E6D100E0FF2030BD58
:1031B0008018002000230B2B0CD8DA00D21A510003
:1031C000054A8A5C002A02D00133DBB2F3E7024BE6
:1031D000C81800E00020704780180020F0B5CE46E7
:1031E000474680B589B08046894616001F00110009
:1031F000174805F0ADF806AC23781F22934301224F
:1032000013432370DDB260239D4320231D432570AB
:10321000EAB27F23134023700B23637066804B4612
:10322000A3800023E38018220021684603F0A8FD54
:103230006B4642461A7002940497109B05936846A9
:10324000FFF7ECF909B0C0BCB946B046F0BDC046C6
:10325000D0ED0010F0B5CE46474680B589B00700E6
:10326000884691461E00174805F042F806AC2378C0
:103270001F229343012213432370DDB260239D4339
:1032800020231D432570EAB27F23134023700A23B5
:1032900063704B4663804346A3800023E38018227B
:1032A0000021684603F06CFD6B461F700294049683
:1032B000109B05936846FFF7B1F909B0C0BCB94649
:1032C000B046F0BDE8ED001070B5041E1AD00B2911
:1032D00018D8C800451A6D000D4EAD19401A4000AF
:1032E000805D84420DD1002D0BD00120287109484A
:1032F000002802D0200000E000BF69782000FEF71F
:1033000053FC70BD4D220449044805F021F8F8E74C
:103310008018002000000000DCEE00107CE00010AF
:1033200010B50400002001E00130C0B20B280ED817
:10333000C3001B1A5B00074A9B5CA342F4D1C30085
:103340001B1A5B00D3185B788B42EDD100E0FF20A5
:1033500010BDC04680180020F0B5CE46474680B567
:1033600085B00400826853780A3BDBB2012B02D996
:10337000C378002B2BD16369984613799946277837
:1033800019003800FFF7CCFF0500002F26D00B28CE
:1033900024D8C3001E1A7600344AB6181B1A5B00E4
:1033A0009B5C9F421FD1002E1DD04346022B3CD078
:1033B0001ED8002B2BD0012B15D12D4B1A787178EC
:1033C000022300932B4B3800FFF708FF0BE08E22FF
:1033D00092002949294804F0BBFF04E04D22284906
:1033E000264804F0B5FF05B0C0BCB946B046F0BDF4
:1033F000032BF8D1FEF7CCF80200A1688879CB79CD
:103400001B02034329003800FFF75EFFEBE77379E7
:10341000002B08D001230093164B002249463800A8
:10342000FFF718FFDFE70223F5E7318980235B0010
:10343000994209D9134804F08BFF00230022290088
:103440003800FFF741FFCEE7F479FEF7A1F8032338
:103450000393084B029333890193009000232200C9
:1034600049463800FFF74CFABDE7C04680180020F7
:103470003831002059330010BCEE00107CE0001001
:10348000DCEE0010F8ED001010B50E21044804F039
:103490005FFFA8220021034803F072FC012010BD49
:1034A00034EE00108018002001207047F8B50500A8
:1034B0001E00CF09FFF75CFE0400002D1DD00B2875
:1034C0001BD8C200131A5B0017495B18121A52006E
:1034D000525CAA4216D1002B14D0012F14D0134BEA
:1034E000002B1FD0C2014032114BD218B3B20100E1
:1034F000280000E000BF012005E04D220D490E48E4
:1035000004F026FF0020F8BD01000C4804F020FF65
:10351000E201074BD218B3B221002800FCF756FF96
:103520000120F0E70120EEE78018002000000000F5
:1035300080120020DCEE00107CE0001054EE001041
:1035400070B50600002406E00E220021280003F0DA
:1035500017FC0134E4B20B2C16D8E3001D1B6D00E0
:103560000A4AAD181B1B5B009B5CB342F1D12200E1
:103570003100074804F0ECFE064B002BE4D021009C
:10358000300000E000BFDFE770BDC04680180020BB
:1035900078EE001000000000F0B5D6464F464646D3
:1035A000C0B58A4615001C005379032B06D00026AF
:1035B0003000E0BCBA46B146A846F0BD9278424819
:1035C00004F0C6FE2A79D3009B1A9BB212339BB239
:1035D000A34212D82B789946A9444B465B78212BFD
:1035E00013D1FFF7E7FD8046002816D0524602703F
:1035F0004B461C784C44002732E0F32252003349FA
:10360000334804F0A5FE0026D2E7F62252002F49E7
:103610002F4804F09DFE0026CAE7F022FF322B4916
:103620002B4804F095FE0026C2E7F822FF32274916
:10363000274804F08DFE0026BAE7FC2252002349F9
:10364000234804F085FEB3E74246937021796379FD
:103650001B020B435B055B0D53812378E418013794
:103660002B79BB4216DD6378052BDED12100504655
:10367000FEF778FA061EE0D0A378DA09012AE3D033
:103680004246D370217963791B020B435B055B0DC6
:103690009381E2E7AB78424653704B469B79D371F6
:1036A0004B46DA791B7A1B02134342461381094BBE
:1036B0001B789371AB79012B01D0012678E7EB7968
:1036C0005371012674E7C0469CEE0010D0EE001046
:1036D0007CE000103831002000B589B006AA918046
:1036E0006B46187000236946CB70029205936846BA
:1036F000FFF732FE012009B000BD0000F8B504005C
:103700000E684B681B7B002B28D1451EFDF740FF40
:1037100003681FBA737B0137144A0233DB0034217C
:1037200069435B18D3189F60737B406800BA02330B
:10373000DB005B18D31858605218012353710C4BEF
:10374000002B02D0200009F09BF834235D43074B87
:10375000E95C2000FEF728FA0120F8BDEA22FF32DA
:103760000449054804F0F4FD0020F6E7E8190020BC
:1037700081C80010A8EF00107CE00010431E023149
:10378000C900342058430918014841188868704717
:10379000E8190020431E0231C9003420584309189B
:1037A0000148411848687047E8190020013834235F
:1037B00043430248C0184079C0B27047E81900205E
:1037C000F0B585B00700029116000393451E342220
:1037D0006A431D4B9B181B79DCB2002B02D12000E1
:1037E00005B0F0BD34226A43174B9B189978FDF75A
:1037F000D3FE041EF3D06B005B191B01134CE418BD
:103800001F220299200003F0C1FA34226A430E4BB2
:103810009B189E60039ADA600A9A1A6101229A71D3
:1038200099780023019300931F3322003800FDF79D
:1038300021FF041ED3D134226A43034B9B1899788D
:103840003800FDF7E3FECAE7E81900202819002038
:10385000F0B58DB005000F0003921E00421E342308
:103860005A43124B9B181B79D8B2002B01D10DB0D3
:10387000F0BD04AC1F220021200003F081FA0C4BA4
:1038800004930C4B059367730823069378332373D3
:10389000763BA3731B33E373129B00933300039AAD
:1038A00021002800FFF78CFFE1E7C046E81900205F
:1038B0005553424342535554F0B58FB005000F00A5
:1038C00003921E00421E34235A43194B9B185B7906
:1038D000D8B2002B01D10FB0F0BD06AC1F220021E1
:1038E000200003F04DFA134B0693134B07936773B5
:1038F00024270897802323737A3BA3730622002191
:1039000004A803F03DFA122302A90B720B000F73F7
:10391000062204A91F209C46604403F037FA149B3A
:1039200000933300039A21002800FFF749FFD2E7F4
:10393000E81900205553424342535554F0B58DB019
:1039400004000D0003921E00431E342043430F4821
:10395000C0180379D8B2002B01D10DB0F0BD04AF6F
:103960001F220021380003F00BFA094B0493094B86
:1039700005937D730623BB733D740096039B002261
:1039800039002000FFF71CFFE7E7C046E8190020D8
:10399000555342434253555470B50478651EC3785D
:1039A000002B17D034226A430F4B9B180122DA7088
:1039B00034235D430C4B5B19D9780C4804F0C8FCE8
:1039C0000B4804F095FC00230A4A00212000FFF771
:1039D000B5FF70BDFDF7DCFD02780132342169438B
:1039E000014B5B18DA70E3E7E8190020E8EE0010FD
:1039F000FCEE0010B13A001010B50A684B681B7B52
:103A0000002B08D1517B00230A4AFFF797FF041EC1
:103A100009D0200010BDE222FF320749074804F018
:103A200097FC0024F5E7F12252000349034804F013
:103A30008FFCEEE7B13A0010C8EF00107CE00010F8
:103A4000F0B5C64600B58CB080460D0016001F00CC
:103A500004AC1F220021200003F092F9124B0493C2
:103A6000124B0593657312250695802323737A3BC9
:103A7000A3730622002102A803F082F903236A46F9
:103A800013721573062202A91F20684403F07EF901
:103A9000129B00933B00320021004046FFF790FE4E
:103AA0000CB080BCB846F0BD555342434253555408
:103AB000F0B583B004000E684F68FDF769FD05009E
:103AC0003B7B002B0ED1114804F012FC717B0023CC
:103AD00000930F4B2A002000FFF7BAFE01242000BC
:103AE00003B0F0BD0B4804F003FC717B002300938E
:103AF000094B2A002000FFF7A3FF041EEFD1D822B4
:103B0000FF320649064804F023FCE8E714EF0010F2
:103B1000FD36001028EF0010F9390010E8EF001012
:103B20007CE00010F0B5CE4600B590B007000C0068
:103B30000292039316AB19888946451E34226A43C4
:103B4000284B9B185B79D8B2002B03D110B080BCF6
:103B5000B946F0BD08AE1F220021300003F010F975
:103B6000214B0893214B099374730234E4003421F0
:103B7000694364181B490C19636849464B430A930F
:103B800080233373763BB37305AC0A2200212000F7
:103B900003F0F6F828232370039B1DBA0E2302AA14
:103BA000944663441A002B041B0C13802D0C558083
:103BB0004B465BBA9AB213216144FF2003400B705D
:103BC000120A4A700A222100D838604403F0DEF855
:103BD000189B0093179B029A31003800FFF7F0FD05
:103BE000B4E7C046E81900205553424342535554A8
:103BF000F0B591B007000C000292039316AB1E883B
:103C0000451E34226A43284B9B185B79D8B2002B9F
:103C100001D111B0F0BD1F22002108A803F0B0F8B7
:103C2000224B0893224B099302A9252009180C70F6
:103C30000234E4003421694364181B490C19636899
:103C400073430A930A2302A9013009180B7005ACCB
:103C50000A220021200003F093F82A232370039BFB
:103C60001DBA0E2302AA944663441A002B041B0CAF
:103C700013802D0C558073BA9AB213216144FF2032
:103C800003400B70120A4A700A222100D83860449F
:103C900003F07CF8189B0093179B029A08A9380040
:103CA000FFF78EFDB5E7C046E819002055534243A3
:103CB0004253555410B53421064804F049FB3021D5
:103CC000054804F045FBD0220021044803F058F8D1
:103CD000012010BD3CEF00105CEF0010E81900203F
:103CE0000120704770B50400042807D8461E34250B
:103CF00075430E4BED182B79002B00D170BD0100E0
:103D00000B4804F025FB34237343084EF6187379EF
:103D1000002B05D0074B002B02D0200008F0C6FD79
:103D200034220021280003F02BF8E7E7E8190020EF
:103D300078EF0010ADC80010F0B589B00393461EAF
:103D40007400A7193F01454BFF18A4192401203422
:103D5000E41834237343424DED18AD79022D4CD055
:103D6000032D61D0012D03D00124200009B0F0BD46
:103D70003B4DED18AD788D4204D1002A02D1039B52
:103D80001F2B07D0A22252003649374804F0E0FA30
:103D90000024EAE773009B191B01304AD3189B6883
:103DA000002B2AD0342171432D4A52189268002AE0
:103DB00023D00C002A49091902248C717100891939
:103DC0000901264C6118097B49B200290FDB9BB21F
:103DD0000021019100912900FDF74CFC041EC4D183
:103DE0004A22FF321F49204804F0B2FABDE73421CD
:103DF00071431B4E76187578E9E734237343184EE8
:103E0000F6180323B37171780023019300930D33E7
:103E10002200FDF72FFC041EA7D1A9225200114950
:103E2000114804F095FAA0E7342272430C4B9B181A
:103E300000229A71DA68002A0ED004970594342380
:103E40007343074EF618B3680693336903930793D9
:103E500004A99047012488E7012486E72819002057
:103E6000E819002024F000107CE00010F0B5CE46E8
:103E700000B582B0019114009279062A54D1E279FA
:103E8000502A57D12179CA00521A92B2093292B2FD
:103E90009A4206D8019B013B99462778E7190025ED
:103EA0001FE0BE2252002449244804F051FA0026A3
:103EB0003BE0C12252002049204804F049FA002684
:103EC00033E08422FF321C491C4804F041FA2CE004
:103ED00034214A4651431A4A521853703B78FF180E
:103EE0000135012D18D87B78052BE2D1FA78023BF9
:103EF0001340022BDDD139000198FDF733FE061E79
:103F0000DFD0BB78DA09012AE2D034214A46514396
:103F10000B4A52189370E1E7A17834234A46534381
:103F2000074A9954012600E00026300002B080BC08
:103F3000B946F0BD0026F8E718F000107CE000104C
:103F4000E8190020F0B589B005000E00421E3423A8
:103F5000534324495B5CB34209D09622FF32224985
:103F6000224804F0F5F90024200009B0F0BD342304
:103F700053431C4AD218012717711D4804F0B8F9A1
:103F800006AC23781F229343012213432370DBB234
:103F900060229343202213432370DAB280235B42D2
:103FA00013432370FE23637000236380A680E780A1
:103FB000FDF7EEFA060018220021684602F0E0FE46
:103FC0006B461D70029403960A4B04936846FEF7F5
:103FD00025FB041EC8D1B022FF320349034804F078
:103FE000B7F9C1E7E819002008F000107CE00010E4
:103FF00094EF00109939001070B506000D000B48C1
:1040000004F0A6F9002403E004F064F90134A4B23A
:10401000AC4207D2305D064B1B5C68229343F3D160
:104020002E20F1E7034804F063F970BD34F000106E
:10403000E90A011038F0001010B582B000290AD04A
:1040400001281DD80B78002B1AD0174A1354022BC5
:104050001FD001241AE002236A4613710023537112
:1040600001A90020FDF7A2F9041E03D00E4B022285
:104070001A700BE051220D490D4804F069F905E072
:104080005B220A490A4804F063F90024200002B0C8
:1040900010BDFDF78BF9041EF8D1662203490448D0
:1040A00004F056F9F2E7C046B81A0020BCF100103F
:1040B0007CE0001070B504000D000378DB07DE0F14
:1040C000002B1CD103785B071AD401214942280038
:1040D00009F0E2FE2378DB0704D423785B070CD5D4
:1040E000002600E00026002E03D02378042213438C
:1040F0002370280009F0B8FE02E00126F3E700264D
:10410000300070BD70B504000E000121494230003E
:1041100009F0C2FE23785B070BD40025002D03D0E5
:104120002378042293432370300009F09DFE280079
:1041300070BD2378DB0701D50025EFE70125EDE70A
:10414000F8B506000F0015000279447924021443E3
:104150006405640D81782200334804F0F9F8F3789F
:104160009B079B0F022B16D0032B44D0012B01D0B1
:104170000020F8BD022F04D02C4BA34204D3012011
:10418000F7E78023DB00F8E7EF222949294804F00C
:10419000DFF80020EDE7022F0FD0002D03D08023A1
:1041A0009B009C4216D0082C37D0102C37D0202CE6
:1041B00037D0402C17D10120DBE780239B009C42A5
:1041C00001D10120D5E7F62219491A4804F0C0F8B8
:1041D0000020CEE7184804F08BF840233371002309
:1041E00073712800C5E7802252001149114804F07C
:1041F000AFF80020BDE7022F04D04023A34204D330
:104200000120B6E78023DB00F8E78422520008494A
:10421000084804F09DF80020ABE70120A9E7012041
:10422000A7E70120A5E7C0463CF00010FF0300000F
:10423000A8F100107CE000105CF00010F0B5C6465C
:1042400000B580460C001E008D1801E0217864182E
:10425000AC420FD261780529F8D1A7783200390035
:10426000064804F075F87F21394049004144FB09B4
:10427000CE54EBE780BCB846F0BDC0469CF00010C1
:1042800070B506000300002010E0081880B25B182B
:1042900090420AD21978002907D05C780B2C0FD0F5
:1042A000042CF2D1DC78002CEFD129004D1EEDB2A8
:1042B000002905D03178081880B219785B18E7E733
:1042C00070BD0000F0B5C64600B584B00600884653
:1042D000170000280BD0002909D002AB2E4A116824
:1042E000029112791A7132229A70002521E02B482E
:1042F00003F0FEFF39E0102130001038FFF77CFE9C
:104300001FE0202003F0E6FF0134E4B2BC42F8D302
:1043100029010909224804F01BF8327801AB1A7010
:104320000136202003F0D6FF019902A804F010F80E
:104330000135454507D2002301932B07EDD1002D10
:10434000D9D10024E2E70F2347461F4042461342DB
:1043500002D0FBB2984601E010239846002F18D1F6
:10436000434699B2F01AFFF747FE04B080BCB84646
:10437000F0BD202003F0AEFF0134012CF9DD013542
:104380001023DB1BAB42EBD9202003F0A3FF00245A
:10439000F3E70025F4E7C046D0F00010C0F00010AD
:1043A000C8F0001003008A1890B2814202D85A0067
:1043B000904203DB5B009BB2C01A80B2704770B5BD
:1043C00005000800AC889A420BD3D11A89B20029A3
:1043D0001ED08C4210D2944209D8131B9BB26B8121
:1043E0000AE0D11A89B26600891989B2EFE7A218EA
:1043F00093B2F4E71B1B9BB29C42FBD92968EA8865
:104400005204520C5343C91802F0C0FC012070BD85
:104410000020FCE7030000895B89C01A4342584131
:10442000C0B27047818803899BB2428992B293429D
:1044300006D39B1A9BB200208B424041C0B270470A
:104440009B1A9BB24A009B189BB2F4E770B504001C
:104450000D000069002803D00121494209F01CFD2C
:10446000228992B263899BB229002000FFF7A7FF3F
:104470000500618989B282B2A088FFF793FF60814D
:104480002069002801D009F0EFFC280070BDF8B5C4
:1044900004000E00C068002803D00121494209F041
:1044A000FBFC2589ADB22000FFF7BCFF002802D03D
:1044B000E779FF0916D0A2882B0001E09B1A9BB276
:1044C0009A42FBD9E2885204520C53432168C8181F
:1044D000310002F05BFCA08801222900FFF762FF97
:1044E00020810127E068002801D009F0BDFC3800D8
:1044F000F8BD10B50400C068002803D0012149426E
:1045000009F0CAFC2069002803D00121494209F0C2
:10451000C3FC002363812381E068002801D009F0F7
:10452000A3FC2069002801D009F09EFC012010BDE9
:10453000074B9B68103080001950BFF35F8FBFF3AB
:104540005F8F044B0021196082F310887047C046CA
:1045500000ED00E0240100D00048704700E400E0D6
:1045600010B5FFF7F9FF002302E0034A04C001334E
:10457000072BFAD910BDC0468080808010B5091A7B
:10458000081F0B4B9C4661440A4A914208D8C30756
:1045900006D440104005400D074B184380B210BDB3
:1045A0008721064B064A4900064803F0E3FCC04653
:1045B000FC070000FE0F000000E0FFFF20F20010EB
:1045C00084F4001050F2001010B5091A04394C0898
:1045D000090B08D14905490D064A11430180064BD4
:1045E0002343438010BD8B21044B054A49000548F5
:1045F00003F0C0FC00F0FFFF00F8FFFF98F200108E
:1046000060F4001050F2001001238340034A106848
:104610001840431E9841C0B27047C04600E100E018
:10462000002A05D0044BC0225200995019607047EF
:10463000014A8023D150FAE700E100E010B50A00FA
:104640001F230340012199404009FFF7E9FF10BDF6
:10465000024B9B6810308000C058704700ED00E0AE
:1046600010B5FFF7F5FF002806D0044B984201D0A3
:10467000012010BD0020FCE70020FAE7C101001076
:1046800070B504000D00EFF3108672B60C4B1B687A
:10469000002BFBD0BFF35F8F2000FFF7D9FF094B42
:1046A000984201D0A84205D1320029002000FFF72E
:1046B0003FFF70BD044B054AED21054803F05AFC4D
:1046C000240100D0C1010010A8F20010B8F40010BD
:1046D00050F20010F0B5DE4657464E464546E0B56E
:1046E00089B0814601911500EFF3108B72B6754BBE
:1046F0001B68002BFBD0BFF35F8F734B0027DF5786
:10470000002F3FDB7C00E419A40070482418062227
:10471000A2566D4B1A706E4B9A684B4610339B0035
:10472000D35898461B1A2F2B3AD96A4B984530D14B
:1047300005AE694B33807B009A46D8198000634BE5
:104740009846404402306549FFF718FF7080644B7B
:10475000B380FF23B371F571019B07935744BF00EA
:1047600047440ECE0EC701231C43A0465A4641467D
:104770004846FFF7DDFE09B0F0BCBB46B246A9468D
:10478000A046F0BDBE21574B574A4900574803F099
:10479000F1FB8421564B544AFF31544803F0EAFBA5
:1047A000012342469A439246101A0C2101F0E2FB83
:1047B00000290FD153460026DA79AA4212D90621E0
:1047C000595600290DDB4A00521892001E003F4B3B
:1047D0009B18F1E7CA21474B434A4900434803F07D
:1047E000C9FB1E00002E3BD005AB434A1A80813A1C
:1047F0005A800623F3560293002B17DA3F4805AB85
:104800009A469880029A9A71DD71019A0792301D3A
:104810002100FFF7B3FEB080B7717B00DB199B006E
:104820002A4FFF18534607CB07C79FE77800C019E8
:104830008000264BC0180430321DB388D90A1C29C9
:1048400007D15B055915023149005118FFF796FE53
:10485000D5E78E212A4B2B4A4900244803F08AFBD6
:1048600005AE1D4B33807B000293D8198000174A98
:104870009046020042440392901C1849FFF77EFEC6
:104880007080039A101D5146FFF778FEB0801E4BD2
:1048900052464146521A524153431B0DB371F571B2
:1048A000019A0792029B9C466744BF0047440ECE84
:1048B0000EC7114B52461380813B538001231C438A
:1048C000A04653E7240100D03B31002060050020C2
:1048D00000ED00E0C101001000A1FFFF90050020E5
:1048E00001BDFFFFE0F20010A0F4001050F2001034
:1048F00008F3001030F300100148000001BD000073
:10490000B4F3001090F40010AAAA0000F0B5CE464F
:10491000474680B583B006000D00EFF3108872B6ED
:10492000564B1B68002BFBD0BFF35F8F544B9A682C
:1049300034001034A300D758524B9F4207D0AF42E7
:1049400000D198E00197504BFB1A2F2B09D9424612
:1049500039003000FFF7ECFD03B0C0BCB946B046EB
:10496000F0BD3000FFF750FE814600213000FFF718
:1049700065FEBFF35F8FEFF30581002901D08C4204
:1049800011D10123019C9C430022A3689D4211D0B8
:104990000622A256002A0CDB53009B189B00220023
:1049A000394CE418F1E7394B394A3A493A4803F0AF
:1049B000E1FA22009D4257D106256557002D39DBCB
:1049C0006B005B199A00304B9B189A68A260DA79E9
:1049D000E27106229A56A2719B795BB2002B0FDA24
:1049E0002E48A0806B005B199B00274AD3182C4AE5
:1049F00011789971157049463000FFF71FFEA6E740
:104A0000201D6B005B199B001F4A9B181A1D9B8879
:104A1000D90A1C2907D15B055B15023359005118CF
:104A2000FFF7ACFDDDE78E211E4B1F4A49001A48F7
:104A300003F0A0FA002912D1002A0ED0FF239371AF
:104A40001A4B9380164A1378A371194B0E49641AB6
:104A5000644163431B0D1370CDE70A4FF2E7201D3D
:104A60001449FFF7B1FDC6E79121134B084A8900AD
:104A7000094803F07FFA034F69E7C046240100D0DC
:104A800000ED00E0C101001060050020CCF3001033
:104A900070F400100202000050F2001001BD00008E
:104AA0003B310020B4F3001090F4001001BDFFFF73
:104AB000AAAA00009A05002000F4001070B5012198
:104AC00001432C4BCB1A2F2B28D8EFF30583002B57
:104AD0002AD0EFF3108C72B6274A1268002AFBD056
:104AE000BFF35F8F254A0400224D641B644162437B
:104AF000120D54B2224A92689B00D2588A4219D0B1
:104B00000022032A30D853009B189B001949CB1868
:104B10009B795BB2A3421DD00132F2E7194B1A4ACE
:104B20001A491B4803F026FA1A4B174A1A49184823
:104B300003F020FA124A92681849D150184B1A789B
:104B400082711C70BFF35F8F0B4B00221A608CF3D5
:104B5000108870BD0D005300991889006918FF2650
:104B60008E71104A8A80E9E70F4B074A0F490848BF
:104B700003F000FA60050020240100D0AAAA00007A
:104B800000ED00E008F4001044F400107F02000083
:104B900050F2001030F4001082020000C101001039
:104BA0003B31002001BDFFFF3CF4001093020000E8
:104BB0000FB400B583B0084803F09AFB049B002BA8
:104BC00007D005A90191180003F0A2FB034803F0E8
:104BD0008FFB012003F080F9D4F4001078E300107B
:104BE000EFF3108072B6034B1B68002BFBD0BFF3B2
:104BF0005F8F70472C0100D0BFF35F8F024B002204
:104C00001A6080F3108870472C0100D0F8B50600B8
:104C10000C001500FFF7E4FFE308F718F15C07222A
:104C20002240012393400B4205D1DBB20B433B7082
:104C3000FFF7E2FFF8BD21002800FFF7B9FFF0B54C
:104C400083B00600019114001F00FFF7C9FF00E0C8
:104C50000134BC420CD8E308F518F35C072121406D
:104C600001228A401A42F3D1D2B21A432A7001E0DB
:104C700001246442FFF7C0FF002C02DB200003B0D8
:104C8000F0BD019B002BF9D00898FFF791FF0000C1
:104C9000054A1078431CDBB21370172B02D913009E
:104CA00010221A707047C046A805002000B583B0D6
:104CB0000100044B00931F2318220348FFF7BFFF96
:104CC00003B000BDE4F40010841F0020002307E0BF
:104CD000054A9A189200BFF35F8F002111600133DB
:104CE0001F2BF5D97047C04640000034024B9C464C
:104CF00061448900016070474000003410B5040031
:104D0000FFF7C6FF01002000FFF7F0FFFF2323712C
:104D1000BFF35F8F10BD10B50400FFF7B9FF0100AE
:104D20002000FFF7E3FFFF23237100236371BFF32C
:104D30005F8F10BD10B50D4C09E00D4B0D4A1A21C7
:104D40000D4803F017F92000FFF7D8FF08340B4B8C
:104D50009C4209D22368002BF5D0012BEDD1200015
:104D6000FFF7D9FF0834F2E710BDC046800E0020DF
:104D700000F50010DCF5001020F50010880E002072
:104D8000034B9C46614489000160BFF35F8F70470D
:104D90004000003410B504000120FFF787FF010038
:104DA0002000FFF7EDFF10BD00040843704700002E
:104DB0000A4B1A68EFF3108172B61368002BFCD00F
:104DC000BFF35F8F054B1B68BFF35F8F00221A6034
:104DD00081F3108840BF0020002170471C31002063
:104DE000F0B5DE4657464E464546E0B585B0EFF392
:104DF000058303221A4093469200B34BD35898463A
:104E00001B785B4507D101235A4693401A00039350
:104E1000AE4B1A6015E1AE4BAE4A9221AE4803F09C
:104E2000A9F85B004B44DB004246526992469A4423
:104E300053469E68DF68A94800F0AEFB801BB9416D
:104E4000002900DA07E1002F60DB53461C69A44B00
:104E50009C4244D043460820185E5346598889B284
:104E6000FFF7A2FF53465969A04704000D00230035
:104E70002B434BD0002D3CDA30003900001BA941F8
:104E8000009001915346009801999860D9600025DF
:104E90005D5F002D00DADEE043465C696B005B1964
:104EA000DB00E3189A68DB68801A9941002900DA70
:104EB000D1E043461D81474608370023FE5E002EA1
:104EC0001FDB7500AD19ED006519009A019BA868FC
:104ED000E968121A8B41002B13DB2F00EDE75346D4
:104EE0005C6920002369984700280FD06568246812
:104EF000BDE77A4800F050FB00196941009001912C
:104F0000C0E753461E804B463B80A4E05346002238
:104F10009B5E424613811269EFF3108372B61168EB
:104F20000029FCD0BFF35F8F42460221525E5146FA
:104F30000A804246494651801269BFF35F8F0021C3
:104F4000116083F3108886E043461A69EFF31081FD
:104F500072B61368002BFCD0BFF35F8F43469B886B
:104F60001BB2994601235B42424693801369BFF30B
:104F70005F8F00221A6081F3108818E0260000235A
:104F8000F55E002D0BDB6C006419E4003C19009AFF
:104F9000019BA068E168121A8B41002BEEDA4B46A8
:104FA0003380634600229B5E994663461D804B46D4
:104FB000002B56DB43465F694B465B004B44DB00EE
:104FC0009C46BC446346DC689B680093019446465B
:104FD0000836D4E7002342469371414608314346E0
:104FE0000820185E11E001225242D317A260E3604C
:104FF000434608229B5E834206D00D80434608222A
:105000009B5E2380434618812800431C2DD04346D5
:105010005A6943001B18DB00D418D55E63881BB2A5
:10502000002BE0DB2100EFE75B4604339B002B4ABB
:105030009C502A4800F0B0FA241A8D41002D3ADC29
:1050400037D0264B039A5A63434608229B5E994603
:10505000002B00DBE5E643469B881BB2002B00DB00
:1050600072E743469B79002BB4D1434608229A5EEF
:10507000002A20DB53009B18DB004246526994460D
:1050800063449C68DD68631C01D16B1CD1D0134B59
:10509000996A601A5A4604329200D3585B1A9842B1
:1050A000C2D30E4B1A6A012359468B401342C0D11A
:1050B000BAE7002CC5D040BF05B0F0BCBB46B24635
:1050C000A946A046F0BDC046D42E00203C70054045
:1050D000F0F50010E8F600101CF600100040054046
:1050E000E14D0010F8B5CE46474680B5060088462B
:1050F00091461F00C160FFF7CBFD1B4B9C466044EF
:10510000800030614B463370BBB27381D0221206EF
:1051100012787270012252423281B2809B187380E1
:10512000002406E0631E65002D19ED0072695353DB
:105130000134BC42F6D34B469A000C4BD6500124A6
:105140004B469C4043461C6209494846FFF798FA83
:1051500001214846FFF772FA064941440C60C0BC81
:10516000B946B046F8BDC04640000034D42E0020F9
:10517000E14D00103820000010B5064B1B69002BD4
:1051800001D0044810BD044B044A6521044802F0D4
:10519000F1FEC046AC0500205CF60010D0F6001011
:1051A0001CF60010F0B5C64600B504000069EFF328
:1051B000108C72B601680029FCD0BFF35F8F02210A
:1051C000665E7500AD19ED00616988464544002EA4
:1051D00002DB0020295E61802169BFF35F8F002020
:1051E00008608CF31088002E2EDB06992961079940
:1051F0006961AA60EB606B8801335B04590C002B7A
:1052000000D1012169803000FFF7CEFD2269EFF364
:10521000108172B61368002BFCD0BFF35F8FA38898
:105220002B80A6802369BFF35F8F00221A6081F371
:105230001088E368217801328A4005498C4663442E
:105240001A6080BCB846F0BD01204042F9E7C04674
:105250003C20000070B582B0060014001D0008ABB1
:105260001B78002B07D100F0C9F922002B00121A7D
:105270008B41002B0ADB079B0193069B00932200C6
:105280002B003000FFF78EFF02B070BD0020FBE75F
:1052900010B5030008145A8990422FDA4200121800
:1052A000D2005869844662441C69EFF3108C72B6D0
:1052B00020680028FCD0BFF35F8F508880B20904BB
:1052C000090C884212D000201A69BFF35F8F0021B9
:1052D00011608CF31088002811D0DA681B78013136
:1052E0009940074B9C466244116008E00549084319
:1052F00080B2508001229A710120E5E7002010BDA4
:105300003C2000000080FFFFF0B585B006000F00D4
:10531000EFF30583002B1AD106246442E517A41984
:105320007D418D4202D803D1844201D90024002559
:1053300000F064F922002B00121A8B41002B0BDCC9
:1053400008D03000390000F06BF905B0F0BD1C4802
:10535000FFF72EFC002AF4D0FFF70EFF0023029384
:105360000193184B009322002B00FFF773FF0028D6
:1053700018DAE6E7002300E00023002BE1D1124B0E
:105380001A68EFF3108172B61368002BFCD0BFF3DC
:105390005F8F0D4B1B68BFF35F8F00221A6081F394
:1053A000108820BF094B5B6A9D42E5D80749896A8E
:1053B000A14203D29D42DDD00123DEE70123DCE7D9
:1053C00080F60010B14D00101C3100200040054057
:1053D00070B504000D0000F011F9001969410029B1
:1053E00002DBFFF791FF70BD012040420049F8E762
:1053F000FFFFFF7F10B5FA2292000023002101F089
:10540000F3FBFFF7E5FF10BDF0B5CE46474680B58C
:1054100085B005000C00EFF30583002B15D0474B3A
:105420005B6A8B4209D3454A926A82420BD28B4215
:1054300001D0012002E0002000E0002005B0C0BC47
:10544000B946B046F0BD0120F8E7FFF795FEC36806
:105450009946037898462E002700484600F09CF8AD
:1054600002000B00B61A9F41434604339B004A4694
:105470009B58181A0023BB420FDC0CD020BF2F4BC7
:105480005B6A9C4224D82D4A926AAA4222D29C424C
:105490001CD00120D2E7B042F0D9FFF76DFE002307
:1054A00002930193264B00932A002300FFF7D2FEBC
:1054B000061E11DD214B5B6A9C4221D81F4A926A6D
:1054C000AA4232D29C4219D001231AE00020B5E74B
:1054D0000020B3E70120B1E7184B5B6A9C4209D872
:1054E000164A926AAA4207D29C4201D00120A5E73F
:1054F0000020A3E70020A1E701209FE7002300E0B0
:105500000023002B00D120BFFFF736FE3100FFF74C
:10551000BFFE0A4B5B6A9C420BD8084A926AAA42B9
:1055200009D29C4203D0012088E70123E9E700204B
:1055300084E7002082E7012080E7C0460040054064
:10554000B14D0010004870470040054010B50B4BAE
:105550001B69002B04D00A210948FFF7C7FB10BDC7
:10556000FFF7F0FF0400032100F00CF810230322E2
:1055700021000248FFF7B6FDEDE7C046AC0500206C
:105580001C31002010B5024A0248FFF73FFB10BD56
:1055900008F70010881F00200200436A906A190073
:1055A000536A9942FAD17047416A00E0416A9942D0
:1055B000FCD300E0416A994202D1816A9142F9D359
:1055C0007047F0B5C64600B5804614001D00FFF7D1
:1055D000E3FF06000F0022002B0092197B41994245
:1055E00002D804D1904202D901225242D317404638
:1055F000FFF7DAFF80BCB846F0BD000010B50248E6
:10560000FFF7CAFF10BDC0460040054010B50200BC
:105610000B000248FFF7D5FF10BDC0460040054013
:1056200010B502000B000248FFF7BEFF10BDC046D8
:105630000040054010B5192000F004FAD0231B06E5
:10564000802292045A620548054B1860E12101232B
:105650000022490202F068FF10BDC046004003402E
:1056600028310020002805D0D0231B068022920478
:105670005A617047D0231B06802292049A61F8E792
:1056800010B5002002F0FCFD10BD704710B50248B7
:1056900000F004F810BDC046EC2E002070B588B0B4
:1056A000040004AD002604960922002105A801F09B
:1056B00067FB00960922002101A801F061FB4B2342
:1056C0002B700D226946280008F0BEFB002304E081
:1056D0005A1D69468A5CE2540133072BF8DD08B095
:1056E00070BD10B5010018231B881422108898473C
:1056F00010BD10B5010018231B881622108898478A
:1057000010BDF0B5C64600B507000E000025012308
:10571000984600E00135B5420AD2AC003C19206839
:10572000FFF7DFFF20600028F4D100239846F1E75F
:10573000404680BCB846F0BDF8B5D646474680B571
:1057400006000D001700984644002418A400294BB9
:105750009C4664446368089A934200D26260331F97
:10576000DBB29A46012B2ED980221201C0239B0165
:10577000E3181A60B300204A9958002907D05069ED
:1057800000F0F8FB431C5800C0180338FDD27F011D
:1057900022685740E022174080235B01E3181F6016
:1057A0005246012A1AD980239B01E3188022120154
:1057B0001A60089B6360B6000F4B4246F250C0BCB3
:1057C000BA46B046F8BD012DCED10322C0239B01BD
:1057D000E3181A60A368DB07FCD5D8E721686940A5
:1057E00003220A401A60A3680122AA401A42FAD092
:1057F000D9E7C046008000408C210020F0B583B07E
:1058000005000E0017001800089900F0B3FB030014
:10581000089A140200943A0031002800FFF78CFF28
:1058200003B0F0BD10B582B0802464000094FFF78F
:1058300083FF02B010BD00008000014BC0587047CC
:105840008C210020F8B5CE46474680B5D0231B06F4
:105850001F68BA00204BD3589846002F03D01F4B27
:10586000994600262AE01E4B9946FAE7EB4012E0E3
:1058700024090135002C20D033000833AB421CD959
:105880000F23190021402342F2D0BB00154A9B5838
:10589000202DEBD40023DB07EAD407222A40920014
:1058A000EB08080090403C339B000F4A9850434659
:1058B000002BDDD02800C047DAE708361D2E06D8B9
:1058C000F30808339B004A469C583500D2E7C0BC19
:1058D000B946B046F8BDC046741F002030410140B3
:1058E00000410140E42E00200040014030B5072473
:1058F0000440A400C008A14004003C34A400094DA9
:10590000615180001818002A05D080239B019C4615
:105910006044016030BDC0239B019C46604401602F
:10592000F8E7C0460040014010B58300084A9A18C5
:10593000126840245440C0222240064CA4466344CE
:105940001A60C000044B9C466044416010BDC046D4
:1059500004C0014004D001400040014070B5060081
:105960000D00141E0BD1D0231B061B68002B11D079
:10597000094B220029003000FFF7B8FF70BD0D2051
:10598000FEF76EFE0028EED1044B054ABD21054806
:1059900002F0F0FA044BECE73041014058F90010F6
:1059A000CCF9001084F900100041014070B50400EA
:1059B000D0231B061D68AA000C4BD358002B0AD01D
:1059C000002803D0AD00094BEC5070BD08490D20F4
:1059D000FEF79CFFF6E70028F7D0AD00034BE85038
:1059E000002203490D20FEF775FEEEE7741F00202C
:1059F0004558001070B505000E0014001800FFF7A0
:105A0000D5FF220031002800FFF7A8FF002C00D1AD
:105A100070BD01210D20FEF711FEF9E7002906D027
:105A20008000064B9C466044402303607047800022
:105A3000034B9C46604440230360F7E704E00140C9
:105A400004F0014010B501238340D0221206936276
:105A500093610521FFF768FF10BD0000F0B5C64651
:105A600000B504000E0017001D00364800F082FA51
:105A70008046354BFA18354B9A4238D80100380029
:105A800000F078FA0200103A98235B009A4234D86A
:105A90006B1E062B37D8069B013B062B33D83F09DC
:105AA000474536D32D04069B1A0315432368002B64
:105AB00035DB274B9C4243D00C2301229A40254BD7
:105AC0001A60254B1A60254B1B6811009943FAD1C7
:105AD0002660A060224BE218212313602368002B6C
